:100000000C9463000C948B000C948B000C948B006C
:100010000C948B000C948B000C948B000C94420875
:100020000C948B000C948B000C948B000C94400966
:100030000C948B000C948B000C948B000C948B0014
:100040000C94F6080C948B000C94C4080C949E0835
:100050000C948B000C948B000C948B000C948B00F4
:100060000C948B000C948B000000000024002700EF
:100070002A000000000023002600290000000008DC
:10008000000201000003040700000000000000005F
:10009000010204081020408001020408102001021F
:1000A0000408102000000000250028002B00040494
:1000B0000404040404040202020202020303030310
:1000C00003030200C10911241FBECFEFD8E0DEBF39
:1000D000CDBF18E0A0E0B1E0EAEDF3E202C0059088
:1000E0000D92A831B107D9F728E0A8E1B8E001C026
:1000F0001D92AE3EB207E1F710E0C3E6D0E004C0C7
:100100002197FE010E94B711C236D107C9F70E949C
:10011000F4090C94EB110C940000AF92BF92CF92B3
:10012000DF92EF92FF920F931F93CF93DF936C01B7
:100130007B018B01040F151FEB015E01AE18BF0898
:10014000C017D10759F06991D601ED91FC9101904A
:10015000F081E02DC6010995892B79F7C501DF9162
:10016000CF911F910F91FF90EF90DF90CF90BF90B4
:10017000AF900895FC01538D448D252F30E0842FDE
:1001800090E0821B930B541710F0CF9608950197BF
:100190000895FC01918D828D981761F0A28DAE0FAC
:1001A000BF2FB11D5D968C91928D9F5F9F73928F33
:1001B00090E008958FEF9FEF0895FC01918D828D5F
:1001C000981731F0828DE80FF11D858D90E008952C
:1001D0008FEF9FEF0895FC01918D228D892F90E084
:1001E000805C9F4F821B91098F73992708958FE43C
:1001F00098E00E94EB0021E0892B09F420E0822F97
:10020000089580E090E0892B29F00E94F700811189
:100210000C9400000895FC01A48DA80FB92FB11D06
:10022000A35ABF4F2C91848D90E001968F7399272C
:10023000848FA689B7892C93A089B1898C9183700A
:1002400080648C93938D848D981306C00288F38903
:10025000E02D80818F7D80830895EF92FF920F9330
:100260001F93CF93DF93EC0181E0888F9B8D8C8D62
:1002700098131AC0E889F989808185FF15C09FB756
:10028000F894EE89FF896083E889F9898081837019
:10029000806480839FBF81E090E0DF91CF911F91C8
:1002A0000F91FF90EF900895F62E0B8D10E00F5FE9
:1002B0001F4F0F731127E02E8C8D8E110CC00FB6BF
:1002C00007FCFACFE889F989808185FFF5CFCE0157
:1002D0000E940B01F1CFEB8DEC0FFD2FF11DE35AC6
:1002E000FF4FF0829FB7F8940B8FEA89FB898081DA
:1002F0008062CFCFCF93DF93EC01888D8823B9F054
:10030000AA89BB89E889F9898C9185FD03C0808120
:1003100086FD0DC00FB607FCF7CF8C9185FFF2CF9D
:10032000808185FFEDCFCE010E940B01E9CFDF91E7
:10033000CF910895833081F028F4813099F0823094
:10034000A9F008958730A9F08830C9F08430B1F45D
:10035000809180008F7D03C0809180008F77809393
:100360008000089584B58F7784BD089584B58F7D0E
:10037000FBCF8091B0008F778093B000089580917B
:10038000B0008F7DF9CFCF93DF93282F30E0F901B4
:10039000E458FF4F8491F901E057FF4FD491F901E0
:1003A000E255FF4FC491CC23A1F081110E949A0124
:1003B000EC2FF0E0EE0FFF1FEE58FF4FA591B49128
:1003C000EC91ED2381E090E009F480E0DF91CF91A2
:1003D000089580E090E0FACF1F93CF93DF93282F0A
:1003E00030E0F901E458FF4F8491F901E057FF4FE5
:1003F000D491F901E255FF4FC491CC23A9F0162FF7
:1004000081110E949A01EC2FF0E0EE0FFF1FEC55D6
:10041000FF4FA591B4918FB7F894EC91111108C0DA
:10042000D095DE23DC938FBFDF91CF911F9108958C
:10043000DE2BF8CF61E086E00E94EC0161E084E011
:100440000E94EC0161E085E00E94EC0161E082E045
:100450000C94EC0160E086E00E94EC0161E084E035
:100460000E94EC0161E085E00E94EC0160E082E026
:100470000C94EC0161E086E00E94EC0160E084E015
:100480000E94EC0160E085E00E94EC0161E082E006
:100490000C94EC0161E086E00E94EC0160E084E0F5
:1004A0000E94EC0161E085E00E94EC0160E082E0E6
:1004B0000C94EC014F925F926F927F928F929F9279
:1004C000AF92BF92FF920F931F93CF93DF93F82EBB
:1004D0002A013B01C901B801A30192010E945211F6
:1004E00028EE33E040E050E00E94981149015A01A3
:1004F00060E271EA87E090E0A30192010E94981106
:100500008901220F331F220F331FE9012597412C48
:10051000512C3201481459046A047B04F4F480918C
:10052000400881111AC061E08F2D0E94EC01023059
:10053000110518F0CE010197F1F760E08F2D0E94B0
:10054000EC010230110518F0CE010197F1F78FEFA1
:10055000481A580A680A780ADDCFDF91CF911F91B7
:100560000F91FF90BF90AF909F908F907F906F9072
:100570005F904F90089590913C0289130BC0E2EC7C
:10058000F0E0E4919FEF90933C02E13049F028F0D5
:10059000E23061F060E00C94EC0110926E00FACF52
:1005A00090916F009D7F90936F00F4CF90917000B9
:1005B0009D7F9093700091E09093B0009091B10076
:1005C000987F94609093B1001092B300E3CFCF93E3
:1005D000DF9390E0FC01E057FF4F249182559F4F3D
:1005E000FC0184918823D1F090E0880F991FFC01D1
:1005F000E859FF4FA591B491FC01EC55FF4FC5910F
:10060000D49161110EC09FB7F8948C91E22FE095C0
:100610008E238C932881E223E8839FBFDF91CF91C3
:1006200008958FB7F894EC91E22BEC938FBFF6CF3F
:100630004F925F926F927F928F929F92AF92BF92F2
:10064000CF92DF92EF92FF920F931F93CF93DF939E
:1006500000D000D01F92CDB7DEB78B0129013A013F
:1006600090913C028917C9F09F3F09F47EC00F901A
:100670000F900F900F900F90DF91CF911F910F91DE
:10068000FF90EF90DF90CF90BF90AF909F908F90B2
:100690007F906F905F904F900895E2ECF0E094911E
:1006A0009D8397FDE4CF61E00E94E7028D8188235E
:1006B00021F09D81923009F04AC14801B12CA12C52
:1006C00060E072E18AE790E0A50198010E9498112C
:1006D00029833A834B835C8369017A0181E0C81ADC
:1006E000D108E108F1089FEFC916D104E104F10433
:1006F00009F00CF401C160E472E48FE090E0A50120
:1007000098010E94981169017A0181E0C81AD10804
:10071000E108F1089D81923009F0A2C08FEFC81660
:10072000D104E104F10409F00CF4E6C160E970EDD4
:1007300083E090E0A50198010E94981169017A0177
:1007400091E0C91AD108E108F1088FEFC816D10469
:10075000E104F10411F00CF07FC183E09091B1004D
:10076000987F892B8093B100CFC080933C02E2EC4C
:10077000F0E094919D839F3F09F479CF913041F14E
:1007800050F0923009F446C09D8197FD70CF61E032
:100790000E94E7028ECF14BC15BC94B5926094BD44
:1007A00095B5916095BD282F30E0F901E255FF4FD6
:1007B000E491F0E0EE0FFF1FEC55FF4F459154918F
:1007C000F901E057FF4FE491E0932D081D826BCFB4
:1007D0001092800010928100909181009860909317
:1007E000810090918100916090938100282F30E0EA
:1007F000F901E255FF4FE491F0E0EE0FFF1FEC55D9
:10080000FF4F45915491F901E057FF4FE491E09378
:100810002C0849CF1092B0001092B1009091B00016
:1008200092609093B0009091B10091609093B1006C
:10083000282F30E0F901E255FF4FE491F0E0EE0F90
:10084000FF1FEC55FF4F459154915093370840934B
:100850003608F901E057FF4FE491E093380823CFC1
:100860009FEFC916D104E104F10409F00CF46DC046
:1008700068E478EE81E090E0A50198010E9498116B
:1008800069017A0181E0C81AD108E108F1089D8167
:10089000992309F4FAC08FEFC816D104E104F104DA
:1008A00011F00CF0FBC0EFC064E274EF80E090E068
:1008B000A50194010E94981169017A0181E0C81A8A
:1008C000D108E108F10885E09FEFC916D104E104E1
:1008D000F10409F008F442CF62E17AE780E090E0A9
:1008E000A50194010E94981169017A0181E0C81A5A
:1008F000D108E108F108E5C081E09D8191112ECF7A
:1009000095B5987F892B85BD2FEF3FEFA901411445
:1009100051046104710409F043C09D81913009F4D0
:100920005EC0923009F46DC09111A1CEC7BC209376
:10093000320830933308409334085093350880913F
:100940006E00826080936E0092CE82E0D6CFB12C92
:10095000A12C60E072E18AE790E0A50198010E9475
:10096000981169017A0181E0C81AD108E108F108FB
:10097000C114D10491E0E906F10404F591E08D8100
:10098000813011F680918100887F892B80938100CE
:100990002FEF3FEFA9014114510461047104F9F0F4
:1009A000D801AA0FBB1FA30192010E94BD1128EE1E
:1009B00033E040E050E00E947611AFCF68E478EE7B
:1009C00081E090E0A50198010E94981169017A01E7
:1009D00081E0C81AD108E108F10893E0D0CFD092A5
:1009E0008900C092880020932E0830932F084093EE
:1009F00030085093310880916F00826080936F00BF
:100A000036CEC092B3002093390830933A08409311
:100A10003B0850933C088091700082608093700086
:100A200026CE84E09FEFC916D104E104F10409F059
:100A300008F466CFC980DA80EB80FC808AE0F59408
:100A4000E794D794C7948A95D1F781E0C81AD10862
:100A5000E108F10885E054CF68E478EE81E090E0A9
:100A6000A50198010E94981169017A0181E0C81AD4
:100A7000D108E108F1089FEFC916D104E104F1049F
:100A800011F00CF011CF84E069CE83E09FEFC9161E
:100A9000D104E104F10409F00CF432CF62E17AE709
:100AA00080E090E0A50194010E94981169017A010B
:100AB00081E0C81AD108E108F1089D81992309F461
:100AC000B0CF86E09FEFC916D104E104F10409F02C
:100AD00008F444CEC980DA80EB80FC809AE0F5947B
:100AE000E794D794C7949A95D1F781E0C81AD108B2
:100AF000E108F10887E032CE82E030CE8E5080648B
:100B000080937C0080917A00806480937A00809149
:100B10007A0086FDFCCF809178009091790008954D
:100B20003FB7F89480911D0890911E08A0911F086E
:100B3000B091200826B5A89B05C02F3F19F001965B
:100B4000A11DB11D3FBFBA2FA92F982F8827BC0127
:100B5000CD01620F711D811D911D42E0660F771F4F
:100B6000881F991F4A95D1F708958F929F92AF924F
:100B7000BF92CF92DF92EF92FF926B017C010E94B5
:100B800090054B015C01C114D104E104F104B9F0FA
:100B90000E949005681979098A099B09683E73408B
:100BA0008105910580F321E0C21AD108E108F1081E
:100BB00088EE880E83E0981EA11CB11CE4CFFF9044
:100BC000EF90DF90CF90BF90AF909F908F9008955F
:100BD000CF93DF9320914008211111C0EB01BC019C
:100BE00020E030E0A90180914B080E941803BE016B
:100BF000DD0F880B990B0E94B50580914008DF91AD
:100C0000CF910895FC0181E08383118610861386BD
:100C1000128615821482178216821586148686859E
:100C20000C94BB02CF93DF93EC018A8181110BC03E
:100C30008FB7F89425E030E03093250820932408FE
:100C40008FBF81E08A838091240890912508892BA9
:100C5000A1F42A853B851216130674F488859985BC
:100C60008217930754F52C853D851216130644F41C
:100C7000255031093D872C871A82DF91CF91089545
:100C8000880F991FEE81FF81E80FF91F20813181C4
:100C90003D872C872C813D81820F931FFC01608151
:100CA000718120E030E0A9018E850E9418038885BB
:100CB0009985019699878887DFCFCE010E94020629
:100CC000DBCFFC01828181110BC08FB7F89422E346
:100CD00030E030932708209326088FBF81E082837D
:100CE0008091260890912708892B09F41282089593
:100CF00060E086E00E94EC0161E084E00E94E7028F
:100D000060E084E00E94EC0160E085E00E94EC017C
:100D100061E082E00E94E70260E082E00C94EC0176
:100D2000FC0101900020E9F73197AF01481B590BF6
:100D3000BC018FE498E00C948D00CF93DF93682F73
:100D40008FE498E00E942D01EC0185EE97E00E946F
:100D500090068C0F9D1FDF91CF9108958F929F92E7
:100D6000AF92BF920F931F93CF93DF93CDB7DEB7B0
:100D7000A1970FB6F894DEBF0FBECDBF19A24230C7
:100D800008F44AE08E010F5D1F4F842E912CB12C88
:100D9000A12CA50194010E947611E62FB901CA0188
:100DA000EA30F4F4E05DD801EE938D01232B242B7F
:100DB000252B79F790E080E0109719F0CD010E9483
:100DC0009006A1960FB6F894DEBF0FBECDBFDF919F
:100DD000CF911F910F91BF90AF909F908F900895EA
:100DE000E95CE1CF4F925F926F927F92AF92BF9298
:100DF000CF92DF92EF92FF920F931F93CF93DF93E7
:100E0000029709F056C088EE97E00E94900685EEA2
:100E100097E00E949006C3E6D7E033EFE32E36E07A
:100E2000F32E43EDA42E47E0B42E58EEC52E53E02A
:100E3000D52EAC16BD0609F491C0809140088111F1
:100E40008DC069917991C6010E9462112B01770FC3
:100E500066087708F701419151917F01052E000C3A
:100E6000660B770B80914B0893018201082E000CD2
:100E7000990B0E945A02C301B2010E942B1026E670
:100E800036E646EA5FE30E94E0100E94F30F072E69
:100E9000000C880B990B0E94B50580914B089301BB
:100EA00040E050E0BA01082E000C990B0E945A0253
:100EB000C0CF8CEF97E00E94900685EE97E00E94ED
:100EC0009006C7E5D6E08BEBE82E85E0F82E93EF91
:100ED000A92E96E0B92E28EEC22E23E0D22EAC1613
:100EE000BD06E1F180914008811138C06991799186
:100EF000C6010E9462112B01770F66087708F7017F
:100F0000419151917F01052E000C660B770B80916A
:100F10004B0893018201082E000C990B0E945A0283
:100F2000C301B2010E942B1026E636E646EA5FE3D3
:100F30000E94E0100E94F30F072E000C880B990B03
:100F40000E94B50580914B08930140E050E0BA0142
:100F5000082E000C990B0E945A02C1CFDF91CF914D
:100F60001F910F91FF90EF90DF90CF90BF90AF90C7
:100F70007F906F905F904F900895CF92DF92EF92A5
:100F8000FF92CF93DF936C01990FEE08FF08F7FEF5
:100F90001FC06DE28FE498E00E942D01EC016627EE
:100FA0007727CB016C197D098E099F094AE00E94C1
:100FB000AE06C80FD91F85EE97E00E9490068C0FF1
:100FC0009D1FDF91CF91FF90EF90DF90CF9008951C
:100FD0004AE0C701B6010E94AE06EC01ECCFCF9209
:100FE000DF92EF92FF920F931F9360E08CE00E94DC
:100FF000EC0183E090E00197F1F761E08CE00E9462
:10100000EC0183E290E00197F1F760E08CE00E9450
:10101000EC01EDE9F0E06491EBEBF0E0E491F0E05D
:10102000EE0FFF1FEE58FF4F8591949100E412E4FC
:101030002FE030E0462F0E947C096B017C01C11437
:10104000D104E104F10439F08FEFC81AD80AE80A94
:10105000F80A8FE0F8226AE070E080E090E00E94F9
:10106000B505C701B6010E9429102DEC3CEC48E6FD
:1010700052E40E94810F1F910F91FF90EF90DF903B
:10108000CF9008951F920F920FB60F9211242F93B5
:101090003F934F935F936F937F938F939F93AF9300
:1010A000BF93EF93FF938091390890913A08A091F4
:1010B0003B08B0913C08892B8A2B8B2BD1F1909166
:1010C0003808E0913608F0913708808189278083BD
:1010D0008091390890913A08A0913B08B0913C0862
:1010E000181619061A061B069CF48091390890916F
:1010F0003A08A0913B08B0913C080197A109B109B9
:101100008093390890933A08A0933B08B0933C0829
:10111000FF91EF91BF91AF919F918F917F916F91CF
:101120005F914F913F912F910F900FBE0F901F90A5
:10113000189580913C020E94BB02EACF1F920F9249
:101140000FB60F9211242F933F934F935F936F939A
:101150007F938F939F93AF93BF93EF93FF938FE40E
:1011600098E00E940B01FF91EF91BF91AF919F9189
:101170008F917F916F915F914F913F912F910F9040
:101180000FBE0F901F9018951F920F920FB60F92DF
:1011900011242F938F939F93EF93FF93E0915F0818
:1011A000F09160088081E0916508F091660882FD09
:1011B0001BC09081809168088F5F8F7320916908B0
:1011C000821741F0E0916808F0E0E15BF74F958FFE
:1011D00080936808FF91EF919F918F912F910F90CD
:1011E0000FBE0F901F9018958081F4CF1F920F9221
:1011F0000FB60F9211242F933F938F939F93AF932A
:10120000BF938091190890911A08A0911B08B09182
:101210001C083091180823E0230F2D3758F501964C
:10122000A11DB11D209318088093190890931A08E6
:10123000A0931B08B0931C0880911D0890911E0874
:10124000A0911F08B09120080196A11DB11D8093A7
:101250001D0890931E08A0931F08B0932008BF910B
:10126000AF919F918F913F912F910F900FBE0F9053
:101270001F90189526E8230F0296A11DB11DD2CF0D
:101280001F920F920FB60F9211248F939F9380910C
:10129000280890912908892B49F08091280890917D
:1012A00029080197909329088093280880912408A1
:1012B00090912508892B49F0809124089091250868
:1012C0000197909325088093240880912608909197
:1012D0002708892B49F080912608909127080197CB
:1012E000909327088093260878949F918F910F9070
:1012F0000FBE0F901F901895CF92DF92EF92FF9242
:101300000F931F93E82FF92F05C0015011092109F0
:10131000310961F1908196239417B9F305C001500A
:1013200011092109310911F1908196239413F7CF06
:10133000C12CD12CE12CF12C0AC08FEFC81AD80A8D
:10134000E80AF80A0C151D052E053F0579F0808185
:101350008623841791F36C2D7D2D8E2D9F2D1F914B
:101360000F91FF90EF90DF90CF90089560E070E0D4
:1013700080E090E01F910F91FF90EF90DF90CF9071
:101380000895EFE4F8E01382128288EE93E0A0E083
:10139000B0E084839583A683B78387ED97E091833C
:1013A000808385EC90E09587848784EC90E0978734
:1013B000868780EC90E0918B808B81EC90E0938B22
:1013C000828B82EC90E0958B848B86EC90E0978BFF
:1013D000868B118E128E138E148E82E896E0909377
:1013E000ED088093EC080895CF93DF9300D01F920F
:1013F000CDB7DEB7789484B5826084BD84B5816052
:1014000084BD85B5826085BD85B5816085BD8091CF
:101410006E00816080936E00109281008091810047
:10142000826080938100809181008160809381003F
:10143000809180008160809380008091B100846001
:101440008093B1008091B00081608093B000809162
:101450007A00846080937A0080917A008260809321
:101460007A0080917A00816080937A0080917A007E
:10147000806880937A001092C100809121088111C8
:101480002BC0109225081092240810922708109261
:10149000260810922908109228089FB7F8941092F5
:1014A0008000109281002EE330E030938900209379
:1014B0008800809181008860809381008091810004
:1014C00084608093810080916F00826080936F00C0
:1014D0009FBF81E0809321088091220881110BC079
:1014E00010924E0881E492E090934D0880934C084E
:1014F00081E08093220880912308811121C01092FD
:101500003F0887E492E090933E0880933D08109254
:10151000400810924208109241081092440810921C
:1015200043081092460810924508109248081092FD
:10153000470810924A081092490881E080932308D6
:101540008AE080934B088FB7F89425E030E0309321
:101550002508209324088FBFE0915F08F091600870
:1015600082E08083E0915B08F0915C081082E0915A
:101570005D08F0915E088FEC808310926708E0911F
:101580006308F091640886E08083E0916108F0913F
:101590006208808180618083E0916108F091620837
:1015A000808188608083E0916108F0916208808189
:1015B00080688083E0916108F091620880818F7D6E
:1015C000808361E085E00E94E70261E082E00E94A2
:1015D000E70261E086E00E94E70261E084E00E94A9
:1015E000E70260E085E00E94EC0160E082E00E949A
:1015F000EC0160E086E00E94EC0160E084E00E9483
:10160000EC0110924E0861E089E00E94E70261E07F
:101610008AE00E94E70260E08BE00E94E70260E05F
:1016200087E00E94E70260E088E00E94E70261E054
:101630008CE00E94E70260E08DE00E94E70260E03B
:101640008FE00E94E70260E080E10E94E7029FE2F3
:10165000292E94E0392E20E0A22E21E0B22E3FE484
:10166000832E912C8FE498E00E94EB00892B39F0B7
:101670008FE498E00E94C90089830E949D06E98159
:10168000E153E93408F052C00E2E000CFF0BE55B6D
:10169000F44F0C94B711C10CCA0CD00CD60CDC0C56
:1016A000E20CE80CEE0C960B960B960B960B960B39
:1016B000960B960B960B960BCD0B960B960BB00BD1
:1016C000940B960B960B960B960B960BAD0B960BFD
:1016D000960B960B960BAD0BB00BB30B960B960BB4
:1016E000960B940B960B960B960B960B960B960BF4
:1016F000960B960B960BB60BBB0B960B960B4C0CE6
:10170000BD0B9A0CE60B960B960BA70DBA0DD30DDD
:101710005A0E960E960B960B960B960B960B960BF7
:10172000960B9F0DF40CA50D0E944A02E0913D0816
:10173000F0913E080190F081E02D8DE398E009954D
:10174000E0E0F0E0EF2B09F48DCF0E94F700882352
:1017500009F488CF0E94000085CF0E942A02E6CFBC
:101760000E943A02E3CF0E947806E0CF61E089E070
:101770000E94EC01DBCF60E0FACF0E941A0268EC15
:1017800070E080E090E00E94B5050E942A026CEBB8
:1017900072E080E090E00E94B5050E941A02C6CF78
:1017A0008FE498E00E94C9008A830E949D063A81D6
:1017B000333591F4BBCFEA81FB81EF2B11F5009714
:1017C000E9F08130910539F50E943A028FE498E002
:1017D0000E94EB00892B21F70E94EF070E94F30F74
:1017E0002B017B018FE00E94C3019B838A8380E1F0
:1017F0000E94C30126E042165104ECF60E944A0200
:10180000E5CF2A813B812130310529F4009719F475
:101810000E942A02DBCF9201265031092A3031057D
:1018200050F4EA81FB81319731F48130910519F44C
:101830000E947806CBCF9201205131092431310525
:1018400050F42A813B812130310509F0BFCF019747
:1018500009F0BCCFD3CF34E2E316F1040CF4B6CFD9
:10186000EA81FB81319709F0B1CF019709F0AECF42
:10187000DFCF8FE498E00E94C9008A830E949D0612
:101880002A81233579F452CF2A813B81232B11F50C
:10189000019701F50E943A028FE498E00E94EB0064
:1018A000892B39F78BE00E94C3019B838A8387E0F1
:1018B0000E94C3017C0188E00E94C301EA94EF28E2
:1018C00061F4EA81FB813197F9F6892B19F40E94C2
:1018D0002A02E2CF0E944A02DFCFEA81FB813197E0
:1018E00029F4892BA1F30E947806D6CF2A813B8167
:1018F000232BC9F70197B9F7CDCF8FE498E00E9469
:10190000C9008A830E949D063A813335C9F40ECFFF
:10191000009779F50E941A0268EE73E080E090E08B
:101920000E94B5050E942A0264EF71E080E090E019
:101930000E94B5058FE498E00E94EB00892BE9F640
:101940000E94EF070E94F30F7B836A838FE00E945F
:10195000C3017C0180E10E94C301E114F104C1F2E2
:10196000EA94EF2839F7009709F04DC20E942A0245
:10197000E1CF0197F9F60E943A02DCCF0197D1F648
:10198000F5CF20E030E0A90166E071E08AE00E9436
:101990001803CCCE20E030E0A90166E271E0F6CF7A
:1019A00020E030E0A9016AE471E0F0CF20E030E00F
:1019B000A9016DE571E0EACF20E030E0A90168E817
:1019C00071E0E4CF20E030E0A90168EB71E0DECF08
:1019D00020E030E0A9016EEE71E0D8CF20E030E0E9
:1019E000A90164E172E0D2CF0E94EF076B017C0194
:1019F000AC019B010E944D11882379F08BE098E0A7
:101A00000E94900685EE97E00E94900662E370E0E7
:101A100080E090E00E94B50589CE26013701E89468
:101A200077F82FEF3FEF4FE75FE7C301B2010E9466
:101A30004D1181110DC02FEF3FEF4FE75FE7C3015D
:101A4000B2010E947C0F18161CF48FE098E0D8CFEA
:101A50002FEF3FEF4FE75FE4C701B6010E94DB10B5
:101A600018161CF483E198E0CBCF2FEF3FEF4FE740
:101A70005FECC701B6010E947C0F87FDF3CF20E029
:101A800030E0A901C701B6010E947C0F87FF09C0A1
:101A90006DE28FE498E00E942D01F7FAF094F7F8D8
:101AA000F0942AE037ED43EA5BE3C701B6010E94F8
:101AB000100F6B017C010E94FA0F2B013C010E9468
:101AC00029109B01AC01C701B6010E940F0F6B01E9
:101AD0007C014AE0C301B2010E94AE066EE28FE4CF
:101AE00098E00E942D0120E030E040E251E4C7017F
:101AF000B6010E94E0106B017C010E94FA0F2B01DD
:101B0000712C612C4AE0C301B2010E94AE06C301F0
:101B1000B2010E9429109B01AC01C701B6010E94CD
:101B20000F0F20E030E040E251E40E94E0100E94FC
:101B3000FA0F90E080E04AE00E94AE0663CF8FE0AB
:101B40000E947E050E94BD0761CF80E1F9CF8DE341
:101B500098E00E9402061092400881E090E00E9406
:101B6000F20681E090E00E94F20682E090E00E949E
:101B7000F206DCCD8DE398E00E9402061092400848
:101B800010924608109245082EE931E03093420841
:101B900020934108B0924408A092430890924808CC
:101BA00080924708C3CD8DE398E00E9402066AEF59
:101BB00070E086E291E00E94E8056AEF70E088EB51
:101BC00091E00E94E8056AEF70E088E891E00E94E9
:101BD000E8056AEF70E08BE092E00E94E80564EFB0
:101BE00071E08EEE91E00E94E8056AEF70E088E80F
:101BF00091E00E94E8056AEF70E088EB91E00E94B6
:101C0000E8056AEF70E088E891E00E94E8056AEF75
:101C100070E08BE492E00E94E80564EF71E08BE0F5
:101C200092E00E94E8056AEF70E088E891E00E9487
:101C3000E8056AEF70E080E193E00E94E8056AEF52
:101C400070E083E992E00E94E8056AEF70E08BE0C3
:101C500092E00E94E8056AEF70E08EEE91E00E944B
:101C6000E8056AEF70E088EB91E00E94E80567E71D
:101C700071E08AEB92E00E94E8056AEF70E083E988
:101C800092E00E94E8056AEF70E08BE092E00E942B
:101C9000E8056AEF70E08BE492E00E94E80564EFEB
:101CA00071E08BE092E00E94E80580914B080E9471
:101CB000BB023CCD8DE398E00E94020610924008E2
:101CC0008BEE92E09B838A8389E4E82E82E0F82EF3
:101CD000EA81FB812E163F0609F428CD8091400849
:101CE000811124CD6191719181919191FB83EA835E
:101CF000F701619071907F0120E030E04AEF53E4FA
:101D00000E94E0100E94F30F8B019C01A301770C4D
:101D1000660B770B80914B08082E000C990B0E94E4
:101D20005A0280914B080E94BB02D2CF8DE398E00B
:101D30000E940206109240082FE234E03B832A837F
:101D4000809140088111F2CCEA81FB81628173812C
:101D500016161706ECF58091EC089091ED080E949C
:101D6000621170932B0860932A08C0902A08D090C3
:101D70002B080D2C000CEE08FF08C701B6010E94CD
:101D80002B1026E636E646E65FE30E94E0100E944E
:101D9000FA0F9B01AC01EA81FB8160817181809126
:101DA0004B080E941803C701B6010E94B505809137
:101DB0004B080E94BB022A813B812C5F3F4F3B8333
:101DC0002A838BEB95E08217930709F0B9CFAECC4D
:101DD0006115710551F27195619571098091EC0859
:101DE0009091ED080E946211072E000C880B990B50
:101DF0000E942B1020E030E040EC5FE30E94E010F6
:101E00000E94F30FAECF2A813B812B3031050CF4B9
:101E1000B5CD019709F08ECD0E944A028BCD505866
:101E2000BB27AA270E94270F0C94A1100E94931091
:101E300038F00E949A1020F039F49F3F19F426F4EC
:101E40000C9490100EF4E095E7FB0C948A10E92FA7
:101E50000E94B21058F3BA176207730784079507F8
:101E600020F079F4A6F50C94D4100EF4E0950B2E26
:101E7000BA2FA02D0B01B90190010C01CA01A001DC
:101E80001124FF27591B99F0593F50F4503E68F137
:101E90001A16F040A22F232F342F4427585FF3CF78
:101EA000469537952795A795F0405395C9F77EF449
:101EB0001F16BA0B620B730B840BBAF09150A1F092
:101EC000FF0FBB1F661F771F881FC2F70EC0BA0F18
:101ED000621F731F841F48F4879577956795B795A0
:101EE000F7959E3F08F0B0CF9395880F08F099279B
:101EF000EE0F9795879508950E94661008F481E08B
:101F000008950E94950F0C94A1100E949A1058F009
:101F10000E94931040F029F45F3F29F00C948A103E
:101F200051110C94D5100C9490100E94B21068F3CB
:101F30009923B1F3552391F3951B550BBB27AA2782
:101F400062177307840738F09F5F5F4F220F331FBC
:101F5000441FAA1FA9F335D00E2E3AF0E0E832D084
:101F600091505040E695001CCAF72BD0FE2F29D087
:101F7000660F771F881FBB1F261737074807AB0759
:101F8000B0E809F0BB0B802DBF01FF2793585F4FCE
:101F90003AF09E3F510578F00C948A100C94D510BD
:101FA0005F3FE4F3983ED4F3869577956795B795B0
:101FB000F7959F5FC9F7880F911D9695879597F9BB
:101FC0000895E1E0660F771F881FBB1F6217730734
:101FD0008407BA0720F0621B730B840BBA0BEE1F49
:101FE00088F7E09508950E94FA0F6894B1110C9457
:101FF000D51008950E94BA1088F09F5798F0B92F15
:102000009927B751B0F0E1F0660F771F881F991F2D
:102010001AF0BA95C9F714C0B13091F00E94D410EB
:10202000B1E008950C94D410672F782F8827B85FFB
:1020300039F0B93FCCF3869577956795B395D9F785
:102040003EF490958095709561957F4F8F4F9F4F8F
:102050000895E89409C097FB3EF49095809570959B
:1020600061957F4F8F4F9F4F9923A9F0F92F96E9E4
:10207000BB279395F695879577956795B795F11159
:10208000F8CFFAF4BB0F11F460FF1BC06F5F7F4FF6
:102090008F4F9F4F16C0882311F096E911C0772308
:1020A00021F09EE8872F762F05C0662371F096E811
:1020B000862F70E060E02AF09A95660F771F881FE0
:1020C000DAF7880F9695879597F90895990F000884
:1020D000550FAA0BE0E8FEEF16161706E807F907FA
:1020E000C0F012161306E407F50798F0621B730B95
:1020F000840B950B39F40A2661F0232B242B252B16
:1021000021F408950A2609F4A140A6958FEF811DB8
:10211000811D089597F99F6780E870E060E0089559
:102120009FEF80EC089500240A94161617061806EF
:102130000906089500240A941216130614060506CB
:102140000895092E0394000C11F4882352F0BB0F5C
:1021500040F4BF2B11F460FF04C06F5F7F4F8F4FBF
:102160009F4F089557FD9058440F551F59F05F3FFA
:1021700071F04795880F97FB991F61F09F3F79F0A9
:1021800087950895121613061406551FF2CF46952B
:10219000F1DF08C0161617061806991FF1CF8695AD
:1021A0007105610508940895E894BB276627772791
:1021B000CB0197F908950E94661008F48FEF0895F7
:1021C0000E94F3100C94A1100E94931038F00E940A
:1021D0009A1020F0952311F00C948A100C94901012
:1021E00011240C94D5100E94B21070F3959FC1F386
:1021F000950F50E0551F629FF001729FBB27F00DB5
:10220000B11D639FAA27F00DB11DAA1F649F662709
:10221000B00DA11D661F829F2227B00DA11D621F58
:10222000739FB00DA11D621F839FA00D611D221F12
:10223000749F3327A00D611D231F849F600D211DF6
:10224000822F762F6A2F11249F5750409AF0F1F079
:1022500088234AF0EE0FFF1FBB1F661F771F881FE2
:1022600091505040A9F79E3F510580F00C948A1080
:102270000C94D5105F3FE4F3983ED4F386957795A0
:102280006795B795F795E7959F5FC1F7FE2B880F88
:10229000911D9695879597F908950E946610880B71
:1022A000990B0895DB018F939F930E94BD11BF91FD
:1022B000AF91A29F800D911DA39F900DB29F900D95
:1022C0001124089597FB072E16F4009407D077FD8C
:1022D00009D00E94C81107FC05D03EF49095819565
:1022E0009F4F0895709561957F4F0895A1E21A2E32
:1022F000AA1BBB1BFD010DC0AA1FBB1FEE1FFF1FAA
:10230000A217B307E407F50720F0A21BB30BE40BF9
:10231000F50B661F771F881F991F1A9469F7609540
:102320007095809590959B01AC01BD01CF010895FA
:10233000052E97FB1EF400940E94AF1157FD07D0A5
:102340000E94761107FC03D04EF40C94AF11509507
:102350004095309521953F4F4F4F5F4F0895909591
:102360008095709561957F4F8F4F9F4F0895EE0F29
:10237000FF1F0590F491E02D09940E94DC11A59FA8
:10238000900DB49F900DA49F800D911D1124089570
:10239000AA1BBB1B51E107C0AA1FBB1FA617B7078B
:1023A00010F0A61BB70B881F991F5A95A9F78095A7
:1023B0009095BC01CD010895A29FB001B39FC001CB
:1023C000A39F700D811D1124911DB29F700D811D61
:0A23D0001124911D0895F894FFCF29
:1023DA00F4013200F4013200F40132005E01960089
:1023EA00F4015E0196008A02F401F4013200F4015C
:1023FA003200F40132005E019600F4015E0196009B
:10240A008A02F401F4012C019600F4014501AF009F
:10241A007D007D00FA004501FA00F4014501AF0094
:10242A007D007D00FA005E01FA00F4015E017D0084
:10243A00F40177017D008A02F4012C019600F4016F
:10244A004501AF007D007D00FA004501FA00F40164
:10245A004501AF007D007D00FA005E01FA00F4013B
:10246A0077017D00F40177017D008A028A02B801B2
:10247A000000B8010000B80100005D010B02B801BC
:10248A005D010B02B80100009302000093020000F4
:10249A0093020000BA020B029F015D010B02B80110
:1024AA0000007003B801B80170033F031003E4028F
:1024BA00BA02E4020000C7016E024B022A020B02B2
:1024CA00D2010B0200005D019F015D01B8010B0200
:1024DA00B8010B0293027003B801B80170033F03FD
:1024EA001003E402BA02E4020000C7016E024B02C2
:1024FA002A020B02D2010B0200005D019F015D015D
:10250A000B02B8015D010B02B8010000FF000000D8
:10251A00006106000000001206B801B801B801B84F
:10252A0001B801B801B80115015D018801B801FFC0
:10253A00FFEE01EE01EE01EE01EE01B801B801B8BD
:10254A0001B80115011501EE0188015D01FFFF06C1
:10255A0001B80188015D010601FFFF0601060106B7
:10256A0001B80188015D012601FFFF2601EE01B8CD
:10257A000188014A01FFFF15011501EE018801B822
:10258A00015D01FFFF0601B80188015D010601FF37
:10259A00FF0601B80188015D012601FFFF26012619
:1025AA0001EE01B801880115011501150115016E29
:1025BA00021501EE0188015D01FFFF0000003F00E6
:1025CA0000003F0000803F0000003F0000003F0085
:1025DA0000803F0000003F0000003F0000403F0035
:1025EA0000803E0000C03F0000003F0000003F00A6
:1025FA0000003F0000803F0000003F0000003F0055
:10260A0000003F0000003F0000803E0000803E00C6
:10261A0000003F0000003F0000003F0000003F00B4
:10262A0000C03F0000003F0000003F0000003F00E4
:10263A0000003F0000003F0000803F0000003F0014
:10264A0000803E0000803E0000003F0000003F0086
:10265A0000003F0000003F0000803F0000803F0074
:10266A0000003F0000003F0000003F0000003F0064
:10267A0000803F0000803F0000003F0000003F0054
:10268A0000003F0000003F0000803F0000403F0084
:10269A0000803E0000003F0000003F0000003F00B5
:1026AA0000003F0000803F0000803F0000003F0024
:1026BA0000003F0000003F0000003F0000803F0094
:1026CA0000003F0000003F0000003F0000003F0004
:1026DA0000003F0000003F0000003F0000003F00F4
:1026EA0000003F0000003F0000003F0000003F00E4
:1026FA0000003F0000003F0000403F0000803E9382
:10270A00020400EE0108000B0208004B0204000B51
:10271A00020800EE010800B8010400B80108000B25
:10272A00020800930204004B0208000B020800EEA4
:10273A0001FCFF0B0208004B020400930204000B89
:10274A00020400B8010400B8010800B8010800EE4C
:10275A000108000B0208004B02FCFFBA02080070D5
:10276A0003040010030800BA0208009302FCFF0BDE
:10277A00020800930204004B0208000B020800EE54
:10278A00010400EE0108000B0208004B020400934A
:10279A000204000B020400B8010400B8010400009E
:1027AA0000040093020400EE0108000B0208004B2B
:1027BA000204000B020800EE010800B8010400B888
:1027CA000108000B020800930204004B0208000BE8
:1027DA00020800EE01FCFF0B0208004B0204009302
:1027EA000204000B020400B8010400B8010800B892
:1027FA00010400EE0108000B0208004B02FCFFBABC
:10280A000208007003040010030800BA02080093CB
:10281A0002FCFF0B020800930204004B0208000BA3
:10282A00020800EE010400EE0108000B0208004B4A
:10283A00020400930204000B020400B8010400B869
:10284A0001040000000400930202000B0202004B84
:10285A00020200EE0102000B020200B80102009F10
:10286A00010200EE01040000000800930202000BBE
:10287A000202004B020200EE0102000B0204009366
:10288A00020400700302003F0302004D0A4D0A00D1
:10289A00004D0A00002D084D0A0000400C000000FF
:1028AA0000000020060000000000002D08000000C3
:1028BA0000200600000000270500000000E00600D6
:1028CA0000B80700004907E006000020064D0A404C
:1028DA000CC00D0000EA0A400C00004D0A00002D51
:1028EA00082D09B807000000002D0800000000208C
:1028FA000600000000270500000000E0060000B8FE
:10290A000700004907E006000020064D0A400CC0F7
:10291A000D0000EA0A400C00004D0A00002D082DA7
:10292A0009B807000000000C000C000C000C000C99
:10293A00000C000C000C000C000C000C000C000C2D
:10294A00000C000C000C000C000C000C000C000C1D
:10295A00000C000C000C000C000C000C000C000C0D
:10296A00000C000C000C000900090009000C000C06
:10297A00000C000C000C000C000C000C000C000CED
:10298A00000C000C000C000C000C000C000C000CDD
:10299A00000C000C000C000C000C000C000C000CCD
:1029AA00000C000C000900090009000C000C000CC6
:1029BA00000C000C000C000C000C000C000C000CAD
:1029CA00000C0006010B02DC00B801E900D201008C
:1029DA0000000006010B02DC00B801E900D2010088
:1029EA00000000AF005D01930026019C0037010042
:1029FA00000000AF005D01930026019C0037010032
:102A0A00000000370115012601150137013701D0F1
:102A1A0000C4001501060172015D01A500D201B8CA
:102A2A00019F013701F700E900DC00D00000000037
:102A3A000000000C000C000C000C000C000C00063E
:102A4A000003000C000C000C000C000C000C00062B
:102A5A000003000C000C000C000C000C000C00061B
:102A6A000003000C000C000C000C000C000C00060B
:102A7A0000060012001200120006000600060006F8
:102A8A0000060006001200120012001200120012C4
:102A9A00000A000A000A000A000A000A00030003EA
:102AAA00000300000000002D018D00BA007A01EB3E
:102ABA0000C900DD000D0A002027556E6465727793
:102ACA006F726C64205468656D65270020274D611C
:102ADA0072696F205468656D6527006E616E0069C2
:082AEA006E66006F76660000C5
:00000001FF
