:100000000C94F3010C941B020C941B020C941B0225
:100010000C941B020C941B020C941B020C941B02EC
:100020000C94F8090C941B020C941B020C94C60946
:100030000C941B020C941B020C941B020C941B02CC
:100040000C947C090C941B020C944A090C9424090E
:100050000C941B020C941B020C941B020C941B02AC
:100060000C941B020C941B020000000024002700CB
:100070002A0000000000250028002B0000000008D6
:10008000000201000003040700000000000000005F
:100090002A2A2A2A2A2A2A2A2A2A2A2A2A2A2A2AC0
:1000A0002A2A2A2A2A2A2A2A2A2A2A2A2A2A2A2AB0
:1000B0002A2A2A2A2A2A2A2A2A2A2A2A2A2A2A2AA0
:1000C0002A2A2A2A2A2A2A2A2A2A2A2A2A2A2A2A90
:1000D0002A2A2A2A2A2A2A2A2A2A2A2A2A2A2A2A80
:1000E0002A2A2A2A2A2A2A2A2A2A2A2A2A2A2A2A70
:1000F0002A2A005468616E6B7300206874747073F0
:100100003A2F2F6769746875622E636F6D2F417285
:100110006475696E6F2D495272656D6F74652F41FC
:10012000726475696E6F2D495272656D6F746523C7
:10013000636F6E76657274696E672D796F75722D57
:1001400032782D70726F6772616D2D746F2D7468C7
:10015000652D34782D76657273696F6E0041206766
:100160007569646520686F7720746F20636F6E76A1
:1001700065727420796F757220322E302070726F24
:100180006772616D20697320686572653A00206846
:10019000747470733A2F2F6769746875622E636F79
:1001A0006D2F41726475696E6F2D495272656D6F66
:1001B00074652F41726475696E6F2D495272656D59
:1001C0006F7465236578616D706C65732D666F72F1
:1001D0002D746869732D6C6962726172790054685C
:1001E00065206578616D706C65732061726520644F
:1001F0006F63756D656E74656420686572653A003D
:100200005374617274207769746820746865205330
:10021000696D706C655265636569766572206F7291
:100220002053696D706C6553656E646572206578E6
:10023000616D706C652E0020617661696C61626C25
:1002400065206174202246696C65203E20457861F6
:100250006D706C6573203E204578616D706C6573C0
:100260002066726F6D20437573746F6D204C6962E8
:10027000726172696573202F20495272656D6F74C7
:1002800065222E00506C6561736520757365206F63
:100290006E65206F6620746865206E657720636FD9
:1002A0006465206578616D706C65732066726F6D32
:1002B00020746865206C6962726172792C005468E0
:1002C00069732076657273696F6E206973206E6F33
:1002D000206C6F6E67657220737570706F727465D5
:1002E0006421004974207365656D732C2074686106
:1002F0007420796F7520617265207573696E67204F
:1003000061206F6C642076657273696F6E20322E87
:100310003020636F6465202F206578616D706C6597
:100320002E005468616E6B20796F7520666F7220A5
:100330007573696E672074686520495272656D6FC8
:100340007465206C69627261727921002A2A2A2AF6
:100350002A2A2A2A2A2A2A2A2A2A2A2A2A2A2A2AFD
:100360002A2A2A2A2A2A2A2A2A2A2A2A2A2A2A2AED
:100370002A2A2A2A2A2A2A2A2A2A2A2A2A2A2A2ADD
:100380002A2A2A2A2A2A2A2A2A2A2A2A2A2A2A2ACD
:100390002A2A2A2A2A2A2A2A2A2A2A2A2A2A2A2ABD
:1003A0002A2A2A2A2A2A2A2A2A2A2A2A2A2A000001
:1003B00000000023002600290004040404040404AF
:1003C0000402020202020203030303030301020404
:1003D00008102040800102040810200102040810C7
:1003E0002000070B5B1411241FBECFEFD8E0DEBF47
:1003F000CDBF11E0A0E0B1E0E0E7F3E302C005907B
:100400000D92A83EB107D9F724E0A8EEB1E001C0F3
:100410001D92A333B207E1F711E0C2EFD1E004C0AF
:100420002197FE010E94AC17C13FD107C9F70E9476
:10043000670B0C94AB190C9400000F931F93CF9390
:10044000DF93E091F003F091F1034091380282854F
:1004500010E0481708F064C0142F117000913702A3
:1004600001114FC0842F90E0880F991FE80FF91FEA
:100470000384F485E02D2CEE3FEF112311F024E1ED
:1004800030E0C0913502D09136022C0F3D1FC901DA
:1004900063E470E00E948417E617F70760F0C90173
:1004A00068E270E00E9484176F5F7F4F81E090E008
:1004B0006E177F0710F52C0F3D1FC90163E470E034
:1004C0000E948417E617F70750F0C90168E270E050
:1004D0000E9484176F5F7F4F6E177F0760F42C0FA9
:1004E0003D1FC90163E470E00E948417E617F70717
:1004F000E8F41FEF15C082E090E0909334028093FF
:1005000033020F5F009337028091330290913402DF
:100510000817190628F0109237024F5F40933802EF
:10052000812FDF91CF911F910F910895C90168E24A
:1005300070E00E9484176F5F7F4F6E177F07C8F2CD
:1005400083E090E0DACFCF93DF93482FE091F00380
:10055000F091F10371969B012C5E3F4FC90163E45A
:1005600070E00E948417EB01C90168E270E00E940C
:1005700084176F5F7F4F80E090E0DC012081318144
:10058000880F991FAA1FBB1F34962C173D0720F018
:100590006217730708F08160415081F78093D5039B
:1005A0009093D603A093D703B093D80381E0DF9153
:1005B000CF9108950895AF92BF92CF92DF92EF92BC
:1005C000FF920F931F93CF93DF936C017B018B01FD
:1005D000040F151FEB015E01AE18BF08C017D1074D
:1005E00059F06991D601ED91FC910190F081E02DD7
:1005F000C6010995892B79F7C501DF91CF911F912C
:100600000F91FF90EF90DF90CF90BF90AF90089543
:10061000FC01538D448D252F30E0842F90E0821B08
:10062000930B541710F0CF96089501970895FC018D
:10063000918D828D981761F0A28DAE0FBF2FB11DE5
:100640005D968C91928D9F5F9F73928F90E008953D
:100650008FEF9FEF08952FB7F89480911F0290912C
:100660002002A0912102B09122022FBF809341026B
:1006700090934202A0934302B093440289E392E034
:100680000E94170397FF26C02FB7F89480911F028E
:1006900090912002A0912102B09122022FBF40919F
:1006A0004102509142026091430270914402841BC6
:1006B000950BA60BB70B40913D0250913E02609105
:1006C0003F027091400284179507A607B707B0F262
:1006D0008FEF9FEF0895FC01918D828D981731F077
:1006E000828DE80FF11D858D90E008958FEF9FEFCB
:1006F0000895FC01918D228D892F90E0805C9F4FA1
:10070000821B91098F739927089589E392E00E94D3
:10071000790321E0892B09F420E0822F089580E0FD
:1007200090E0892B29F00E94850381110C94000030
:100730000895FC01A48DA80FB92FB11DA35ABF4F76
:100740002C91848D90E001968F739927848FA689D0
:10075000B7892C93A089B1898C91837080648C9324
:10076000938D848D981306C00288F389E02D8081D3
:100770008F7D80830895EF92FF920F931F93CF9305
:10078000DF93EC0181E0888F9B8D8C8D98131AC0CC
:10079000E889F989808185FF15C09FB7F894EE89B3
:1007A000FF896083E889F989808183708064808310
:1007B0009FBF81E090E0DF91CF911F910F91FF905B
:1007C000EF900895F62E0B8D10E00F5F1F4F0F7303
:1007D0001127E02E8C8D8E110CC00FB607FCFACFBE
:1007E000E889F989808185FFF5CFCE010E949903C0
:1007F000F1CFEB8DEC0FFD2FF11DE35AFF4FF0828F
:100800009FB7F8940B8FEA89FB8980818062CFCFF4
:10081000CF93DF93EC01888D8823B9F0AA89BB8937
:10082000E889F9898C9185FD03C0808186FD0DC022
:100830000FB607FCF7CF8C9185FFF2CF808185FF43
:10084000EDCFCE010E949903E9CFDF91CF910895BA
:10085000833081F028F4813099F08230A9F0089536
:100860008730A9F08830C9F08430B1F480918000DD
:100870008F7D03C0809180008F77809380000895E2
:1008800084B58F7784BD089584B58F7DFBCF80912B
:10089000B0008F778093B00008958091B0008F7D75
:1008A000F9CFCF93DF93282F30E0F901E458FF4FC1
:1008B0008491F901E353FC4FD491F901E754FC4FC3
:1008C000C491CC23A1F081110E942804EC2FF0E008
:1008D000EE0FFF1FE155FC4FA591B491EC91ED2374
:1008E00081E090E009F480E0DF91CF91089580E00D
:1008F00090E0FACF1F93CF93DF93282F30E0F901D8
:10090000E458FF4F8491F901E353FC4FD491F9016E
:10091000E754FC4FC491CC23A9F0162F81110E94FB
:100920002804EC2FF0E0EE0FFF1FEE58FF4FA591CB
:10093000B4918FB7F894EC91111108C0D095DE23D3
:10094000DC938FBFDF91CF911F910895DE2BF8CFFD
:10095000CF93DF9390E0FC01E353FC4F2491875445
:100960009C4FFC0184918823D1F090E0880F991F5F
:10097000FC01E859FF4FA591B491FC01EE58FF4FDF
:10098000C591D49161110EC09FB7F8948C91E22F5C
:10099000E0958E238C932881E223E8839FBFDF912B
:1009A000CF9108958FB7F894EC91E22BEC938FBF21
:1009B000F6CFA6EDB2E011968C931197282F30E078
:1009C000F901E353FC4FE4911496EC931497F90169
:1009D000E754FC4FE491F0E0EE0FFF1FE155FC4FB0
:1009E0002591349113963C932E93129760E00C94CA
:1009F000A8041F93CF93DF93182FEB0161E00E94AF
:100A0000A804209739F460E0812FDF91CF911F91E6
:100A10000C947A04CF3FD10511F461E0F5CFE12FBA
:100A2000F0E0E458FF4FE491E33031F140F4E1307D
:100A3000B1F0E230E1F0C038D1057CF7E4CFE73027
:100A400029F1E83059F1E430B1F7809180008062FB
:100A500080938000D0938B00C0938A0004C084B53B
:100A6000806884BDC7BDDF91CF911F91089584B583
:100A7000806284BDC8BDF7CF80918000806880937C
:100A80008000D0938900C0938800EDCF8091B000A2
:100A900080688093B000C093B300E5CF8091B00030
:100AA00080628093B000C093B400DDCF80913202A9
:100AB00081110CC08FB7F89422E330E030932A0202
:100AC000209329028FBF81E0809332028091290216
:100AD00090912A02892B09F080C0109232028091F5
:100AE000300287FF3EC060E084E00E947A0480917B
:100AF0002E0290913002282F30E0291B310997FDFA
:100B0000339540912D024217130621F01CF0891BEA
:100B100080932E0260912E0270E086E00E94F9041C
:100B20008091310287FF3BC060E082E00E947A043E
:100B300080912F0290913102282F30E0291B31093A
:100B400097FD339540912D024217130621F01CF0BA
:100B5000891B80932F0260912F0270E085E00C9436
:100B6000F90461E084E00E947A0490912E02809161
:100B70003002282F082E000C330B290F311D409115
:100B80002D024217130621F01CF0890F80932E02CC
:100B900080912E026FEF70E0681B7109BECF61E09B
:100BA00082E00E947A0490912F0280913102282FD6
:100BB000082E000C330B290F311D40912D024217D6
:100BC000130621F01CF0890F80932F0280912F02D1
:100BD0006FEF70E0681B7109C1CF08958E5080647B
:100BE00080937C0080917A00806480937A00809169
:100BF0007A0086FDFCCF809178009091790008956D
:100C00003FB7F8948091E9019091EA01A091EB013E
:100C1000B091EC0126B5A89B05C02F3F19F00196B5
:100C2000A11DB11D3FBFBA2FA92F982F8827BC0146
:100C3000CD01620F711D811D911D42E0660F771F6E
:100C4000881F991F4A95D1F708958F929F92AF926E
:100C5000BF92CF92DF92EF92FF926B017C010E94D4
:100C600000064B015C01C114D104E104F104B9F0A8
:100C70000E940006681979098A099B09683E734039
:100C80008105910580F321E0C21AD108E108F1083D
:100C900088EE880E83E0981EA11CB11CE4CFFF9063
:100CA000EF90DF90CF90BF90AF909F908F9008957E
:100CB000CF93DF9360E083E10E947A0460E082E1F9
:100CC0000E947A04C7E0D0E0CE010197F1F761E01D
:100CD00083E10E947A04CE010197F1F761E082E19D
:100CE0000E947A042197F1F7DF91CF910895EF9256
:100CF000FF920F931F93CF93DF93082FC8E0D0E0AC
:100D000011E087E0E82EF12C802F812361E009F4C7
:100D100060E082E10E947A04C7010197F1F761E087
:100D200083E10E947A04C7010197F1F760E083E153
:100D30000E947A04110F219739F7DF91CF911F910B
:100D40000F91FF90EF900895CF93DF9361E082E1E0
:100D50000E947A0461E083E10E947A04C7E0D0E057
:100D6000CE010197F1F760E082E10E947A042197B9
:100D7000F1F760E083E1DF91CF910C947A040F9357
:100D80001F93CF93DF938C010E94A40680EC0E94F6
:100D90007706E801005F1F4F89910E947706C01710
:100DA000D107D1F70E9458060E94A4068AE80E9443
:100DB0007706DF91CF911F910F910C945806EDE2C9
:100DC000F2E0148213821282118280EB91E00C9483
:100DD000BF06EDE2F2E084E1848383838183828332
:100DE00080EA91E00C94BF06EDE2F2E08CEE8483A1
:100DF00084E183838183828380E991E00C94BF0640
:100E0000EDE2F2E084E184839CEE9383818382832C
:100E100080E891E00C94BF06CF92DF92EF92FF92B0
:100E20000F931F93CF93DF9320E436E0DC010E9401
:100E3000B21724EB30E040E050E00E94F515DA01F3
:100E4000C90180579E4FAF4FBF4FEC01CC0FDD1F44
:100E5000CC0FDD1F259768E17CEF0E9498176B018E
:100E600084E1C80ED11C0D2C000CEE08FF0802E333
:100E700010E061E08AE00E947A04CE010197F1F768
:100E800060E08AE00E947A04C701B6010E9425064C
:100E90000150110971F7DF91CF911F910F91FF90D0
:100EA000EF90DF90CF900895FC0101900020E9F7CA
:100EB0003197AF01481B590BBC0189E392E00C94B8
:100EC000DB0288ED91E00C9454070F931F93CF93AE
:100ED000DF938C01D0E0C0E0F801EC0FFD1F6491BE
:100EE000662341F089E392E00E94BB03892B11F055
:100EF0002196F2CF0E9461078C0F9D1FDF91CF9149
:100F00001F910F9108958F929F92AF92BF920F936E
:100F10001F93CF93DF93CDB7DEB7A1970FB6F894A9
:100F2000DEBF0FBECDBF19A2423008F44AE08E01E9
:100F30000F5D1F4F842E912CB12CA12CA501940183
:100F40000E94D315E62FB901CA01EA30F4F4E05D3E
:100F5000D801EE938D01232B242B252B79F790E0DC
:100F600080E0109719F0CD010E945407A1960FB6AA
:100F7000F894DEBF0FBECDBFDF91CF911F910F91CF
:100F8000BF90AF909F908F900895E95CE1CFCF9292
:100F9000DF92EF92FF92CF93DF936C01990FEE08EF
:100FA000FF08F7FE1DC06DE289E392E00E94BB03DB
:100FB000EC0166277727CB016C197D098E099F0903
:100FC0004AE00E948307C80FD91F0E9461078C0F57
:100FD0009D1FDF91CF91FF90EF90DF90CF9008950C
:100FE0004AE0C701B6010E948307EC01EECF0F93E0
:100FF0001F93CF93DF938C01EB01FC0180819181E2
:101000000097E1F06881798161157105A9F042814D
:1010100053812C813D814217530770F00E94A4191F
:101020008C819D81F801958384831D821C82DF91D0
:10103000CF911F910F9108950E9455188881998131
:10104000F801918380838A819B81938382838C8141
:101050009D8195838483198218821B821A82E5CF31
:10106000FC0180819181009711F00C94551808952E
:101070000F931F93CF93DF93EC01888199810097A1
:1010800059F02A813B812617370730F081E0DF9144
:10109000CF911F910F9108958B016F5F7F4F0E9439
:1010A000DE18009759F0998388831B830A832C816B
:1010B0003D81232B59F7FC011082E8CF80E0E7CF78
:1010C000EF92FF920F931F93CF93DF93EC017B017D
:1010D0008A01BA010E94380828813981811114C01F
:1010E0002115310519F0C9010E945518198218827D
:1010F0001D821C821B821A82CE01DF91CF911F912B
:101100000F91FF90EF9008951D830C83B701C901E3
:101110000E94A419F1CFEF92FF920F931F93CF93E8
:10112000DF9300D0CDB7DEB78C01FC0111821082B5
:10113000138212821582148250E040E06AED71E061
:101140000E9460080E942B0397FD21C08332910505
:10115000F1F089831A82F801E480F580FFEFEF1A3D
:10116000FF0AB701C8010E943808882359F3F80123
:101170002081318184819581BE016F5F7F4F820F15
:10118000931F0E94A419F801F582E482DBCFC80105
:101190000F900F90DF91CF911F910F91FF90EF90E3
:1011A0000895CF92DF92EF92FF920F931F9360E02A
:1011B0008CE00E947A0483E090E00197F1F761E00F
:1011C0008CE00E947A0483E290E00197F1F760E0FE
:1011D0008CE00E947A04EAEDF3E06491E6ECF3E03F
:1011E000E491F0E0EE0FFF1FE155FC4F85919491E3
:1011F00000E412E42FE030E0462F0E94C20A6B01A7
:101200007C01C114D104E104F10439F08FEFC81A54
:10121000D80AE80AF80A8FE0F8226AE070E080E075
:1012200090E00E942506C701B6010E94A4142DEC8F
:101230003CEC48E652E40E94D2161F910F91FF90B9
:10124000EF90DF90CF9008951F920F920FB60F92FC
:1012500011242F933F934F935F936F937F938F93BB
:101260009F93AF93BF93EF93FF9389E392E00E9424
:101270009903FF91EF91BF91AF919F918F917F91D2
:101280006F915F914F913F912F910F900FBE0F90F3
:101290001F9018951F920F920FB60F9211242F9343
:1012A0008F939F93EF93FF93E0914902F0914A024D
:1012B0008081E0914F02F091500282FD1BC090812D
:1012C000809152028F5F8F7320915302821741F0F9
:1012D000E0915202F0E0E75CFD4F958F809352025F
:1012E000FF91EF919F918F912F910F900FBE0F90D3
:1012F0001F9018958081F4CF1F920F920FB60F9216
:1013000011242F933F938F939F93AF93BF9380911B
:101310001F0290912002A0912102B09122023091EF
:10132000E80123E0230F2D3758F50196A11DB11DCB
:101330002093E80180931F0290932002A093210242
:10134000B09322028091E9019091EA01A091EB0112
:10135000B091EC010196A11DB11D8093E90190931C
:10136000EA01A093EB01B093EC01BF91AF919F9183
:101370008F913F912F910F900FBE0F901F90189556
:1013800026E8230F0296A11DB11DD2CF1F920F9206
:101390000FB60F9211248F939F93EF93FF93809139
:1013A0002B0290912C02892B49F080912B02909175
:1013B0002C02019790932C0280932B02E3E2F2E03F
:1013C00080819181892B29F080819181019791837E
:1013D0008083329682E0EB32F80791F77894FF91A0
:1013E000EF919F918F910F900FBE0F901F901895C6
:1013F0001F920F920FB60F9211242F933F934F938A
:101400005F936F937F938F939F93AF93BF93CF938C
:10141000EF93FF93E091D802F091D902C0818091BF
:10142000DA02C8238091DB029091DC02019649F038
:101430008091DB029091DC0201969093DC02809314
:10144000DB028091D60281111DC0C1116EC0809156
:10145000DB029091DC028536910578F01092DF0274
:101460008091DB029091DC029093E2028093E10292
:1014700081E08093E0028093D6021092DC02109209
:10148000DB0253C08091D6028130A9F4CC2309F449
:101490004CC0E091E0028E0F8093E0028091DB026D
:1014A0009091DC02F0E0EE0FFF1FEA52FD4F9487AF
:1014B000838782E0E0CF8091D602823009F053C06A
:1014C000C11122C0E091E00281E0E03768F0809332
:1014D000DF0283E08093D602E091DD02F091DE022C
:1014E000309759F20995C9CF8E0F8093E002809111
:1014F000DB029091DC02F0E0EE0FFF1FEA52FD4F9D
:101500009487838781E0B7CF8091DB029091DC02E2
:101510008536910550F083E08093D602E091DD029C
:10152000F091DE02309709F009958091FE03813039
:1015300041F48091FD03C1111DC061E081111DC006
:101540002D9AFF91EF91CF91BF91AF919F918F9184
:101550007F916F915F914F913F912F910F900FBEAF
:101560000F901F9018958091D6028330F1F6C1112B
:10157000DCCF83CF882321F060E00E947A04E1CFA2
:101580002D98DFCFCF92DF92EF92FF920F931F93B0
:10159000E82FF92F05C0015011092109310961F126
:1015A000908196239417B9F305C0015011092109C0
:1015B000310911F1908196239413F7CFC12CD12CCE
:1015C000E12CF12C0AC08FEFC81AD80AE80AF80AF1
:1015D0000C151D052E053F0579F0808186238417A3
:1015E00091F36C2D7D2D8E2D9F2D1F910F91FF90CE
:1015F000EF90DF90CF90089560E070E080E090E0A1
:101600001F910F91FF90EF90DF90CF900895CF93AF
:10161000DF93E9E3F2E01382128288EE93E0A0E028
:10162000B0E084839583A683B7838AEC91E09183AD
:10163000808385EC90E09587848784EC90E09787A1
:10164000868780EC90E0918B808B81EC90E0938B8F
:10165000828B82EC90E0958B848B86EC90E0978B6C
:10166000868B118E128E138E148EC6EDD2E0D0931F
:101670002304C093220480E00E94D9041092FD0349
:10168000D093F103C093F00383E00E94D904E7EC08
:10169000F3E011821082138212821582148250E0CC
:1016A00040E06AED71E0CF010E946008E1ECF3E0F8
:1016B00011821082138212821582148250E040E05F
:1016C0006AED71E0CF01DF91CF910C946008CF9368
:1016D000DF93CDB7DEB72A970FB6F894DEBF0FBE03
:1016E000CDBF789484B5826084BD84B5816084BDAB
:1016F00085B5826085BD85B5816085BD80916E00B0
:10170000816080936E0010928100809181008260E0
:10171000809381008091810081608093810080911D
:1017200080008160809380008091B100846080930C
:10173000B1008091B00081608093B00080917A0008
:10174000846080937A0080917A00826080937A002E
:1017500080917A00816080937A0080917A0080681D
:1017600080937A001092C1008091ED01811133C005
:101770001092240210922302109226021092250247
:10178000109228021092270210922A021092290227
:1017900010922C0210922B029FB7F89410928000A6
:1017A000109281002EE330E030938900209388006E
:1017B00080918100886080938100809181008460A5
:1017C0008093810080916F00826080936F009FBF43
:1017D00081E08093ED018091EE01811110C088ECD1
:1017E00080932D0210922E0210922F02109230023E
:1017F000109231021092320281E08093EE018FB795
:10180000F89420ED37E030932602209325028FBF15
:10181000E0914902F0914A0282E08083E091450222
:10182000F09146021082E0914702F09148029FEC4D
:10183000908310925102E0914D02F0914E0296E099
:101840009083E0914B02F0914C02908190619083E3
:10185000E0914B02F0914C02908198609083E0916E
:101860004B02F0914C02908190689083E0914B0282
:10187000F0914C0290819F7D90838093B000809383
:10188000B10084E68093B3008093B4001092B2005C
:101890008091D602833011F41092D60284E08093B6
:1018A000700061E00E94A80461E086E00E94A80444
:1018B00061E082E00E94A80461E085E00E94A80443
:1018C0001092320261E083E10E94A80461E082E1AB
:1018D0000E94A8048EE092E00E94BF0660E08BE0C8
:1018E0000E94A80460E087E00E94A80460E088E00D
:1018F0000E94A80461E08AE00E94A80460E08FE0F2
:101900000E94A80460E080E10E94A80461E08CE0ED
:101910000E94A80460E08DE00E94A8048AE590E09F
:101920000E940C078091250290912602892B11F0CC
:101930000000F8CF80E091E00E94BF06BCEECB2E05
:1019400014E1F12E0CEEE02E84E1D82E44244A94CA
:10195000542C320189E392E00E947903892B09F427
:1019600055C089E392E00E94170380931E02682FFE
:1019700089E392E00E94BB030E946107E0911E028E
:10198000E254E93308F042C00E2E000CFF0BE55381
:10199000F34F0C94AC17C70D060D060D060D040D84
:1019A000060D060D060D060D060DD40D060D060DD1
:1019B000060D060D060DD70D4C0E060D060D060D77
:1019C000060D060D060D060D060D060D060D060D7F
:1019D000060D060D060D060D060D060DF30D230E64
:1019E0006A0EDB0E300F060DC10FC40FC70FCA0FF2
:1019F000CD0FD00F060D060D060D060D610F930FCE
:101A0000060D060D060DD30F0E94E90680911E02F9
:101A1000883709F06EC30E94D1084B015C01AC010C
:101A20009B010E947F17882309F4C0C28BED91E0CF
:101A30000E9454070E94610762E370E080E090E03A
:101A40000E9425068091F701811141C08CE493E04A
:101A50000E94650782E293E00E94650783EE92E0B0
:101A60000E9465078EEB92E00E94650784E892E091
:101A70000E94650787E392E00E9465070E94610764
:101A800080E092E00E9465070E9461078EED91E080
:101A90000E9465078EE891E00E9465078DE591E060
:101AA0000E9465078AEF90E00E9465070E94610727
:101AB00083EF90E00E94650780E990E00E9465074F
:101AC0000E9461070E94610781E08093F701809185
:101AD000D602833009F07AC4A1EEB2E0B0930902D5
:101AE000A09308028091E00280930A029091DF02A5
:101AF000992321F01092DF021092E0029091DF0210
:101B000090930B02109200021092010210920202B6
:101B10001092030290E89093EF032091E30230913A
:101B2000E402265831092C35310590F4843009F04F
:101B3000F3C28091E5029091E6028197489740F4C4
:101B40008091E7029091E8020897089708F420C373
:101B500080910A028A3108F450C3E0910802F091A2
:101B60000902208131812A30310508F025C3109205
:101B700004024092000250920102609202027092AE
:101B8000030281E08093EF0387E190E010C3C092ED
:101B90003102C0923002F0922E02F0922F0280E1C8
:101BA00091E00E94BF0632CF0E9400072FCF0E9413
:101BB000F4062CCF012B29F4019719F40E94F406A6
:101BC0002FC00E94E9062CC00130110529F4892B91
:101BD00029F10E94DF0624C0012BD9F70197C9F72C
:101BE000EDCF0E9456058BE00E9451048C0190932A
:101BF000F2018093F10187E00E9451045C0190930F
:101C0000F0018093EF0188E00E945104AA94AB2870
:101C1000D9F60130110571F6892B99F60E9400075B
:101C200089E392E00E947903892BD9F289E392E05B
:101C30000E94170380931E02833599F60E94DF06E7
:101C40000E945605E3CE8BE00E9451045C01909304
:101C5000F2018093F10187E00E9451048C0190937E
:101C6000F0018093EF0188E00E945104AB28B9F4A1
:101C7000012BA9F4892B99F40E94E90689E392E0EB
:101C80000E947903892BF9F289E392E00E941703FD
:101C900080931E028335B9F60E94DF06B7CEE0922C
:101CA0003102E0923002D0922E02D0922F0280E1D7
:101CB00091E00E94BF066CEB72E080E090E00E9431
:101CC00025060E94000760E273E080E090E00E9439
:101CD0002506D4CF0E94D1080E94441764317105B3
:101CE0000CF066C00E94DF0664EF71E080E090E0D7
:101CF0000E94250684EB90E00E940C0764EF71E0DF
:101D000080E090E00E9425060E94D1080E944417BE
:101D10007093F6016093F50164E670E080E090E076
:101D20000E94250690E080E00E940C0764EF71E0BD
:101D300080E090E00E9425060E94D1080E9444178E
:101D40008B017093F4016093F30164E670E080E02E
:101D500090E00E9425068AE590E00E940C0764EF5F
:101D600071E080E090E00E9425068091F50190915D
:101D7000F60108171907CCF40E9400076CEB72E01B
:101D800080E090E00E94250689E392E00E947903BA
:101D9000892B09F49FCF89E392E00E941703809377
:101DA0001E02833509F096CF77CF0E94F406E6CF66
:101DB0000E94E906E9CF0E94D1084B015C0120E0B6
:101DC00030E040EA51E40E947A1787FD1BC020E012
:101DD00030E040E752E4C501B4010E949F14181698
:101DE0008CF00E94E90689E392E00E947903892B36
:101DF00011F389E392E00E94170380931E0283355A
:101E0000D1F61CCF20E030E040E251E4C501B4013E
:101E10000E947A1718166CF420E030E040EA51E492
:101E2000C501B4010E949F1487FF03C00E94DF0612
:101E3000DACF20E030E040E251E4C501B4010E9475
:101E40009F1418169CF3E0923102E0923002D09277
:101E50002E02D0922F0280E191E00E94BF06C3CFF4
:101E60008FE00E94EE058C0190930D0280930C028E
:101E700080E10E94EE050B381240D4F08B3892407E
:101E8000A4F00E94E90689E392E00E947903892B7D
:101E900049F089E392E00E94170380931E02833584
:101EA00009F4CCCE0E945605DBCF0E940007EBCF91
:101EB0008B3892401CF00E94F406E5CF0E94DF06AA
:101EC000E2CFCE0101960E948B08BE016F5F7F4F6B
:101ED00087EC93E00E94F707CE0101960E9430083C
:101EE0001A8219821C821B821E821D826091C70386
:101EF0007091C8036115710541F04091CB03509179
:101F0000CC03CE0101960E94600889819A8160E02D
:101F1000009711F00E94631460932E02CE01019687
:101F20000E94300873CDCE0101960E948B08BE013D
:101F30006F5F7F4F81EC93E00E94F707CE0101961F
:101F40000E9430081A8219821C821B821E821D8206
:101F50006091C1037091C2036115710541F0409118
:101F6000C5035091C603CE0101960E946008898185
:101F70009A8160E0009711F00E94631460932F0231
:101F8000CDCF80E791E00DCE80E691E00ACE80E5EE
:101F900091E007CE80E491E004CE80E391E001CEB1
:101FA00080E291E0FECD8EE092E0FBCDD501C40150
:101FB000BF778F839887A987BA872FEF3FEF4FE7C7
:101FC0005FE7BC01CD010E947F1781110FC02FEF89
:101FD0003FEF4FE75FE76F81788589859A850E949B
:101FE0009F1418161CF48FED91E022CD2FEF3FEFD8
:101FF0004FE75FE4C501B4010E947A1718161CF47C
:1020000083EE91E015CD2FEF3FEF4FE75FECC50179
:10201000B4010E949F1487FDF3CF20E030E0A901B6
:10202000C501B4010E949F1487FF09C06DE289E3D6
:1020300092E00E94BB03B7FAB094B7F8B0942AE0DC
:1020400037ED43EA5BE3C501B4010E9466166F8376
:10205000788789879A870E944B174B015C010E9401
:10206000A4149B01AC016F81788589859A850E94B3
:1020700065166F83788789879A874AE0C501B4011E
:102080000E9483076EE289E392E00E94BB0320E096
:1020900030E040E251E46F81788589859A850E941D
:1020A00005156F83788789879A870E944B174B01A4
:1020B000B12CA12C4AE0C501B4010E948307C501DF
:1020C000B4010E94A4149B01AC016F8178858985BD
:1020D0009A850E94651620E030E040E251E40E94BB
:1020E00005150E944B1790E080E04AE00E948307AC
:1020F000A1CC873751F48FE00E94EE0590930D023A
:1021000080930C020E94C70797CC893709F09ACCBC
:1021100080E10E94EE05F6CF843409F019CD80915C
:10212000E5029091E602825491098F9708F010CD54
:1021300040E956E060E372E080E20E94A302882357
:1021400009F406CDE0910802F0910902EA57FF4F29
:10215000808191810897089708F0FACC8091D50387
:102160009091D603A091D703B091D8038093000239
:1021700090930102A0930202B093030280E2809345
:10218000040288E090E09093FD018093FC010FC071
:1021900010920402409200025092010260920202E8
:1021A0007092030281E88093EF0388E090E09093BF
:1021B000CE038093CD03CFC02281338124523109D5
:1021C0002A313105D0F443E050E060E0812C912CBD
:1021D000540190E04817590708F055C02481358113
:1021E000285031092830310540F4268137812231C9
:1021F000310598F120323105D8F181E08093380221
:1022000089E793E09093360280933502109237026B
:102210000E941D02813009F0E8C0812C912C5401EC
:1022200010E0E091F003F091F10392858091380283
:10223000891708F03FC00E941D02082F0E941D024E
:1022400001112EC0813009F0D0C0880C991CAA1C45
:10225000BB1C689480F81F5FE4CF2930310568F219
:102260002131310550F6880C991CAA1CBB1C06C0F4
:10227000880C991CAA1CBB1C689480F86F5F4E5F89
:102280005F4F3496A7CF6093040280920002909231
:102290000102A0920202B092030287E190E073CFA4
:1022A000013009F0A2C08111A0C0880C991CAA1CA1
:1022B000BB1CD1CF812F90E09093EE038093ED0370
:1022C0008092D5039092D603A092D703B092D80300
:1022D000882D8F7390E09093D2038093D103940163
:1022E00046E0369527954A95E1F72F7133273093CD
:1022F000D0032093CF03940122273071232B31F494
:10230000805C9F4F9093D2038093D10380E893FC2D
:1023100088E88093EF0381E190E09093CE0380936F
:10232000CD03838594858F3C994028F48091EF03F9
:1023300081608093EF0310930402809200029092D8
:102340000102A0920202B092030281E190E0909318
:10235000FD018093FC016091000270910102809167
:102360000202909103026093F8017093F901809347
:10237000FA019093FB0140E10E9483070E946107EC
:102380008091F8019091F901A091FA01B091FB01BF
:102390008D3922E692072FEFA207B10509F475C225
:1023A0000CF063C28D3F22E092072FEFA207B10528
:1023B00009F47EC28D3D9242AF4FB10509F475C25A
:1023C0008091D602833011F41092D6020E945605F5
:1023D00080E090E0892B09F4BDCA0E948503882320
:1023E00009F4B8CA0E940000B5CAE091F003F09168
:1023F000F1038585968588974D9708F046C08785B7
:1024000090890C970B9708F040C083E080933802C6
:102410008CEB91E090933602809335021092370254
:102420000E941D02813089F50E941D0281112DC07C
:10243000812C912C540110E0E091F003F091F10314
:10244000928580913802891708F06CC00E941D02A5
:10245000382E1330B1F00E941D02082F133021F4E2
:102460000E941D02081311C0B1E03B1251C00111BE
:102470000CC0880C991CAA1CBB1C689480F81F5FB8
:10248000DBCF0E941D02381631F380910A028C3393
:1024900009F0A2C0E0910802F091090282819381C3
:1024A000865891098D35910508F096C084819581F3
:1024B000CE978C9708F090C04CE256E064EF71E044
:1024C0008CE10E94A302882309F486C0E0910802EF
:1024D000F0910902EA58FF4F808191810797089790
:1024E00008F07AC08091D5039091D603A091D703CC
:1024F000B091D8038093000290930102A09302024E
:10250000B09303028CE18093040286E090E03BCE1E
:102510003110BBCF013009F0B8CF880C991CAA1C30
:10252000BB1CADCF812F90E09093EE038093ED0321
:102530008092D5039092D603A092D703B092D8038D
:10254000282D30E0892D1432A0F580E88093EF0328
:102550003093D2032093D103892D90E09093D00340
:102560008093CF03A0FE03C088E88093EF0315316A
:1025700028F08091EF0380618093EF038385948539
:1025800083379A4028F48091EF0381608093EF03B2
:1025900082E190E09093CE038093CD0310930402E8
:1025A0008092000290920102A0920202B092030275
:1025B000CECE90E89093EF0397FE03C098E89093F7
:1025C000EF033093D2032093D1038F7790E0909361
:1025D000D0038093CF03D2CF40910A02E09108024A
:1025E000F091090282819381423289F49C01285042
:1025F00031092730310558F4DF01AE5BBF4F2D9113
:102600003C91285031092730310508F458C08D57C6
:1026100091098735910508F462C0E0910802F091B4
:10262000090282819381835491098F9780F480916C
:102630000A02843009F088C0848195818197489787
:1026400030F4868197810897089708F4A7C0E09135
:10265000F003F091F1038285823209F0AFC0E0917E
:102660000802F0910902828193810497059708F08E
:10267000A5C0848195810B970A9708F09FC04CE113
:1026800057E064E071E08FE00E94A302882309F420
:1026900095C08091D5039091D603A091D703B091B6
:1026A000D8038093000290930102A0930202B0939A
:1026B00003028FE08093040284E090E064CD1092E6
:1026C0000402409200025092010260920202709253
:1026D000030281E08093EF0385E090E068CD44320F
:1026E00008F49BCF84819581CE978C9708F095CF85
:1026F0004AE256E06EE072E080E10E94A302882385
:1027000009F48BCFE0910802F0910902EA5BFF4FD8
:10271000808191810897079708F07FCF8091D5033A
:102720009091D603A091D703B091D8038093000273
:1027300090930102A0930202B093030280E1809380
:10274000040285E090E01FCD843408F480CF8481BA
:102750009581825491098F9708F079CF40E956E02E
:1027600060E372E080E20E94A302882309F46FCF45
:102770008091D5039091D603A091D703B091D8034F
:102780008093000290930102A0930202B09303028F
:1027900080E28093040283E190E0F5CC1092040281
:1027A0004092000250920102609202027092030273
:1027B00081E08093EF0383E190E0F9CCB0900A02CE
:1027C00085E08B1508F0FCCDE0910802F09109023C
:1027D000329625EC3DE94CE151E883E0382E9AE051
:1027E000292E8481958161917191289E8001299E75
:1027F000100D1124DB01AA0FBB1FAA0FBB1FAA0FCC
:10280000BB1F0A171B0780F0269ED001279EB00D24
:10281000112463E0880F991F6A95E1F712E0A81769
:10282000B90718F011E001C010E063E971E080E041
:1028300091E00E94C3159B01AC0121273394B31092
:10284000D0CF2093000230930102409302025093B4
:10285000030280E2809304021092FD011092FC01B9
:102860001092CE031092CD0376CD873528EA9207D9
:102870002FEFA207B10561F08D33924CAF4FB10538
:1028800009F09ECD0E94F4069BCD0E94E90698CDEA
:10289000C0923102C0923002F0922E02F0922F02CA
:1028A00080E191E00E94BF068BCD0E94000788CD99
:1028B0000E94DF0685CD81EC93E00E94300887EC12
:1028C00093E00C9430081F93FC0199278827BC01E2
:1028D000E89411911032E9F3193010F01E30C8F36A
:1028E0001B3251F01D3249F4689406C00E948A14CC
:1028F000610F711D811D911D119110531A30B0F39C
:102900003EF490958095709561957F4F8F4F9F4FC6
:102910001F910895592F482F372F262F660F771FA5
:10292000881F991F660F771F881F991F620F731FDB
:10293000841F951F660F771F881F991F08950E9497
:10294000E11408F481E00895E89409C097FB3EF48F
:1029500090958095709561957F4F8F4F9F4F9923EC
:10296000A9F0F92F96E9BB279395F695879577956A
:102970006795B795F111F8CFFAF4BB0F11F460FF2A
:102980001BC06F5F7F4F8F4F9F4F16C0882311F082
:1029900096E911C0772321F09EE8872F762F05C096
:1029A000662371F096E8862F70E060E02AF09A9531
:1029B000660F771F881FDAF7880F9695879597F926
:1029C0000895990F0008550FAA0BE0E8FEEF1616C0
:1029D0001706E807F907C0F012161306E407F50713
:1029E00098F0621B730B840B950B39F40A2661F087
:1029F000232B242B252B21F408950A2609F4A1402A
:102A0000A6958FEF811D811D08950E9418150C94C5
:102A100089150E947B1538F00E94821520F09523BD
:102A200011F00C9472150C94781511240C94BD15AA
:102A30000E949A1570F3959FC1F3950F50E0551FB2
:102A4000629FF001729FBB27F00DB11D639FAA2703
:102A5000F00DB11DAA1F649F6627B00DA11D661F52
:102A6000829F2227B00DA11D621F739FB00DA11D73
:102A7000621F839FA00D611D221F749F3327A00D2D
:102A8000611D231F849F600D211D822F762F6A2FC9
:102A900011249F5750409AF0F1F088234AF0EE0F2E
:102AA000FF1FBB1F661F771F881F91505040A9F75B
:102AB0009E3F510580F00C9472150C94BD155F3F3C
:102AC000E4F3983ED4F3869577956795B795F79597
:102AD000E7959F5FC1F7FE2B880F911D969587950F
:102AE00097F9089597F99F6780E870E060E008958E
:102AF0009FEF80EC089500240A9416161706180616
:102B00000906089500240A941216130614060506F1
:102B10000895092E0394000C11F4882352F0BB0F82
:102B200040F4BF2B11F460FF04C06F5F7F4F8F4FE5
:102B30009F4F089557FD9058440F551F59F05F3F20
:102B400071F04795880F97FB991F61F09F3F79F0CF
:102B500087950895121613061406551FF2CF469551
:102B6000F1DF08C0161617061806991FF1CF8695D3
:102B70007105610508940895E894BB2766277727B7
:102B8000CB0197F90895DB018F939F930E94141650
:102B9000BF91AF91A29F800D911DA39F900DB29FF9
:102BA000900D11240895A1E21A2EAA1BBB1BFD0152
:102BB0000DC0AA1FBB1FEE1FFF1FA217B307E4071C
:102BC000F50720F0A21BB30BE40BF50B661F771F74
:102BD000881F991F1A9469F7609570958095909554
:102BE0009B01AC01BD01CF010895052E97FB1EF49A
:102BF00000940E940C1657FD07D00E94D31507FCC5
:102C000003D04EF40C940C165095409530952195B8
:102C10003F4F4F4F5F4F0895909580957095619508
:102C20007F4F8F4F9F4F08950E945616A59F900D7E
:102C3000B49F900DA49F800D911D112408952F9293
:102C40003F924F925F926F927F928F929F92AF923C
:102C5000BF92CF92DF92EF92FF920F931F93CF9389
:102C6000DF93CDB7DEB7CA1BDB0B0FB6F894DEBF20
:102C70000FBECDBF09942A88398848885F846E8446
:102C80007D848C849B84AA84B984C884DF80EE8090
:102C9000FD800C811B81AA81B981CE0FD11D0FB699
:102CA000F894DEBF0FBECDBFED010895A29FB00125
:102CB000B39FC001A39F700D811D1124911DB29F70
:102CC000700D811D1124911D08955058BB27AA270E
:102CD0000E947D160C9489150E947B1538F00E9485
:102CE000821520F039F49F3F19F426F40C947815DE
:102CF0000EF4E095E7FB0C947215E92F0E949A15EB
:102D000058F3BA17620773078407950720F079F420
:102D1000A6F50C94BC150EF4E0950B2EBA2FA02D41
:102D20000B01B90190010C01CA01A0011124FF2778
:102D3000591B99F0593F50F4503E68F11A16F04073
:102D4000A22F232F342F4427585FF3CF4695379572
:102D50002795A795F0405395C9F77EF41F16BA0B37
:102D6000620B730B840BBAF09150A1F0FF0FBB1FE5
:102D7000661F771F881FC2F70EC0BA0F621F731F2E
:102D8000841F48F4879577956795B795F7959E3F8B
:102D900008F0B0CF9395880F08F09927EE0F97951C
:102DA000879508950E94E6160C9489150E94821555
:102DB00058F00E947B1540F029F45F3F29F00C94F5
:102DC000721551110C94BD150C9478150E949A152A
:102DD00068F39923B1F3552391F3951B550BBB274A
:102DE000AA2762177307840738F09F5F5F4F220F8F
:102DF000331F441FAA1FA9F335D00E2E3AF0E0E886
:102E000032D091505040E695001CCAF72BD0FE2FCF
:102E100029D0660F771F881FBB1F26173707480763
:102E2000AB07B0E809F0BB0B802DBF01FF2793581B
:102E30005F4F3AF09E3F510578F00C9472150C9458
:102E4000BD155F3FE4F3983ED4F38695779567957B
:102E5000B795F7959F5FC9F7880F911D9695879550
:102E600097F90895E1E0660F771F881FBB1F62176F
:102E700073078407BA0720F0621B730B840BBA0B2D
:102E8000EE1F88F7E09508950E944B176894B111E2
:102E90000C94BD1508950E94A21588F09F5798F0D4
:102EA000B92F9927B751B0F0E1F0660F771F881F4F
:102EB000991F1AF0BA95C9F714C0B13091F00E9469
:102EC000BC15B1E008950C94BC15672F782F8827A6
:102ED000B85F39F0B93FCCF3869577956795B39590
:102EE000D9F73EF490958095709561957F4F8F4FFF
:102EF0009F4F08950E94E11408F48FEF08950E94F7
:102F0000E114880B990B0895AA1BBB1B51E107C064
:102F1000AA1FBB1FA617B70710F0A61BB70B881F69
:102F2000991F5A95A9F780959095BC01CD010895F8
:102F300097FB072E16F4009407D077FD09D00E9466
:102F4000841707FC05D03EF4909581959F4F089516
:102F5000709561957F4F0895EE0FFF1F0590F491D6
:102F6000E02D09940E945616B7FF0895821B930B1B
:102F700008950F931F93CF93DF938230910510F440
:102F800082E090E0E0913104F091320430E020E002
:102F9000B0E0A0E0309799F42115310509F44AC05A
:102FA000281B390B24303105D8F58A819B816115A6
:102FB000710589F1FB0193838283FE0111C0408179
:102FC00051810281138148175907E0F048175907CA
:102FD00099F4109761F012960C93129713961C9324
:102FE0003296CF01DF91CF911F910F9108950093F9
:102FF000310410933204F4CF2115310551F04217FA
:10300000530738F0A901DB019A01BD01DF01F80186
:10301000C1CFEF01F9CF9093320480933104CDCF2B
:10302000FE01E20FF31F81939193225031093983FE
:103030002883D7CF20912F0430913004232B41F4E3
:103040002091C2013091C3013093300420932F04AA
:103050002091C0013091C1012115310541F42DB7F6
:103060003EB74091C4015091C501241B350BE0913E
:103070002F04F0913004E217F307A0F42E1B3F0B4E
:103080002817390778F0AC014E5F5F4F24173507DA
:1030900048F04E0F5F1F5093300440932F048193EC
:1030A00091939FCFF0E0E0E09CCFCF93DF93009728
:1030B000E9F0FC01329713821282A0913104B091A1
:1030C0003204ED0130E020E01097A1F4208131813D
:1030D000820F931F20912F04309130042817390755
:1030E00009F061C0F0933004E0932F04DF91CF9199
:1030F0000895EA01CE17DF07E8F54A815B819E015A
:1031000041155105B1F7E901FB83EA8349915991D2
:10311000C40FD51FEC17FD0761F4808191810296E1
:10312000840F951FE90199838883828193819B8312
:103130008A83F0E0E0E012968D919C9113970097BE
:10314000B9F52D913C911197CD010296820F931FF5
:1031500020912F04309130042817390739F6309721
:1031600051F51092320410923104B0933004A093C0
:103170002F04BCCFD383C28340815181840F951F1C
:10318000C817D90761F44E5F5F4F88819981480F56
:10319000591F518340838A819B81938382832115A8
:1031A000310509F0B0CFF0933204E09331049ECFA3
:1031B000FD01DC01C0CF13821282D7CFB0E0A0E0C6
:1031C000E4EEF8E10C9421168C01009751F4CB0148
:1031D0000E94B9178C01C801CDB7DEB7E0E10C94AD
:1031E0003D16FC01E60FF71F9C0122503109E21742
:1031F000F30708F49DC0D901CD91DC911197C61752
:10320000D70798F0C530D10530F3CE010497861763
:10321000970708F3C61BD70B2297C193D1936D93E1
:103220007C93CF010E945518D6CF5B01AC1ABD0A22
:103230004C018C0E9D1EA0913104B0913204512C92
:10324000412CF12CE12C109731F580912F049091B5
:1032500030048815990509F05CC04616570608F039
:1032600058C08091C0019091C101009741F48DB781
:103270009EB74091C4015091C501841B950BE8177E
:10328000F90708F055C0F0933004E0932F04F901DA
:1032900071836083A0CF8D919C91119712966C9051
:1032A000129713967C901397A815B90559F56C01E0
:1032B00042E0C40ED11CCA14DB0420F1AC014A194F
:1032C0005B09DA011296159780F06282738251834E
:1032D0004083D9016D937C93E114F10471F0D7011F
:1032E0001396FC93EE93129776CF22968C0F9D1F28
:1032F000F90191838083F301EFCFF0933204E093DF
:10330000310469CF4816590608F42C017D01D30118
:103310009ACFCB010E94B9177C01009749F0AE010A
:10332000B8010E949B19C8010E945518870153CF0C
:1033300010E000E050CFFB01DC0102C001900D92D3
:1033400041505040D8F70895FB01DC0101900D92E7
:103350000020E1F7089511E0C2EFD1E004C0FE01C2
:103360000E94AC172196C33FD107C9F7F894FFCF4D
:10337000010204081020408080402010080402014F
:1033800000000000002448904824000000000000D5
:1033900000000C1E3F7FFEFCFE7F3F1E0C00000065
:1033A0000000060404042420202604040404000071
:1033B000000000412214484040481422410000000F
:1033C00000003C424A818FF1814A4224140C0000E3
:1033D0000000020202120804081222020200000089
:1033E0000E1115110E0040808040000E1115110EB7
:1033F0000000000000004428104428104428100059
:103400000010284410284410284400000000000048
:103410000000000000241209122400000000000037
:103420002E2A3A00023E02003E223E003E0A0E00D4
:1034300000003304800000000000BB03DB0208032F
:103440000804790317036B030D0A006E616E0069AF
:083450006E66006F7666000055
:00000001FF
