:100000000C9463000C948B000C948B000C948B006C
:100010000C948B000C948B000C948B000C94CA07EE
:100020000C948B000C948B000C948B000C948B0024
:100030000C948B000C948B000C948B000C948B0014
:100040000C947E080C948B000C944C080C9426089D
:100050000C948B000C948B000C948B000C948B00F4
:100060000C948B000C948B000000000024002700EF
:100070002A000000000023002600290000000008DC
:10008000000201000003040700000000000000005F
:10009000010204081020408001020408102001021F
:1000A0000408102000000000250028002B00040494
:1000B0000404040404040202020202020303030310
:1000C000030302000D0911241FBECFEFD8E0DEBFED
:1000D000CDBF27E0A0EDB6E001C01D92A23DB20762
:1000E000E1F716E0A0E0B1E0E8EFF6E202C005902B
:1000F0000D92A03DB107D9F710E0C3E6D0E004C0EF
:100100002197FE010E946013C236D107C9F70E94F1
:1001100055090C947A130C940000AF92BF92CF92C1
:10012000DF92EF92FF920F931F93CF93DF936C01B7
:100130007B018B01040F151FEB015E01AE18BF0898
:10014000C017D10759F06991D601ED91FC9101904A
:10015000F081E02DC6010995892B79F7C501DF9162
:10016000CF911F910F91FF90EF90DF90CF90BF90B4
:10017000AF900895FC01538D448D252F30E0842FDE
:1001800090E0821B930B541710F0CF9608950197BF
:100190000895FC01918D828D981761F0A28DAE0FAC
:1001A000BF2FB11D5D968C91928D9F5F9F73928F33
:1001B00090E008958FEF9FEF0895FC01918D828D5F
:1001C000981731F0828DE80FF11D858D90E008952C
:1001D0008FEF9FEF0895FC01918D228D892F90E084
:1001E000805C9F4F821B91098F73992708958CEE35
:1001F00096E00E94EB0021E0892B09F420E0822F99
:10020000089580E090E0892B29F00E94F700811189
:100210000C9400000895FC01A48DA80FB92FB11D06
:10022000A35ABF4F2C91848D90E001968F7399272C
:10023000848FA689B7892C93A089B1898C9183700A
:1002400080648C93938D848D981306C00288F38903
:10025000E02D80818F7D80830895EF92FF920F9330
:100260001F93CF93DF93EC0181E0888F9B8D8C8D62
:1002700098131AC0E889F989808185FF15C09FB756
:10028000F894EE89FF896083E889F9898081837019
:10029000806480839FBF81E090E0DF91CF911F91C8
:1002A0000F91FF90EF900895F62E0B8D10E00F5FE9
:1002B0001F4F0F731127E02E8C8D8E110CC00FB6BF
:1002C00007FCFACFE889F989808185FFF5CFCE0157
:1002D0000E940B01F1CFEB8DEC0FFD2FF11DE35AC6
:1002E000FF4FF0829FB7F8940B8FEA89FB898081DA
:1002F0008062CFCFCF93DF93EC01888D8823B9F054
:10030000AA89BB89E889F9898C9185FD03C0808120
:1003100086FD0DC00FB607FCF7CF8C9185FFF2CF9D
:10032000808185FFEDCFCE010E940B01E9CFDF91E7
:10033000CF910895833081F028F4813099F0823094
:10034000A9F008958730A9F08830C9F08430B1F45D
:10035000809180008F7D03C0809180008F77809393
:100360008000089584B58F7784BD089584B58F7D0E
:10037000FBCF8091B0008F778093B000089580917B
:10038000B0008F7DF9CFCF93DF93282F30E0F901B4
:10039000E458FF4F8491F901E057FF4FD491F901E0
:1003A000E255FF4FC491CC23A1F081110E949A0124
:1003B000EC2FF0E0EE0FFF1FEE58FF4FA591B49128
:1003C000EC91ED2381E090E009F480E0DF91CF91A2
:1003D000089580E090E0FACF1F93CF93DF93282F0A
:1003E00030E0F901E458FF4F8491F901E057FF4FE5
:1003F000D491F901E255FF4FC491CC23A9F0162FF7
:1004000081110E949A01EC2FF0E0EE0FFF1FEC55D6
:10041000FF4FA591B4918FB7F894EC91111108C0DA
:10042000D095DE23DC938FBFDF91CF911F9108958C
:10043000DE2BF8CF4F925F926F927F928F929F92B6
:10044000AF92BF92FF920F931F93CF93DF93F82E3B
:100450002A013B01C901B801A30192010E94C21106
:1004600028EE33E040E050E00E94411349015A0178
:1004700060E271EA87E090E0A30192010E944113DB
:100480008901220F331F220F331FE9012597412CC9
:10049000512C3201481459046A047B04D4F461E0FD
:1004A0008F2D0E94EC010230110518F0CE0101974A
:1004B000F1F760E08F2D0E94EC010230110518F079
:1004C000CE010197F1F78FEF481A580A680A780AA7
:1004D000E1CFDF91CF911F910F91FF90BF90AF902F
:1004E0009F908F907F906F905F904F900895909124
:1004F000000189130BC0E2ECF0E0E4919FEF9093D0
:100500000001E13049F028F0E23061F060E00C9445
:10051000EC0110926E00FACF90916F009D7F909346
:100520006F00F4CF909170009D7F9093700091E0E8
:100530009093B0009091B100987F94609093B10037
:100540001092B300E3CFCF93DF9390E0FC01E0572C
:10055000FF4F249182559F4FFC0184918823D1F055
:1005600090E0880F991FFC01E859FF4FA591B491C5
:10057000FC01EC55FF4FC591D49161110EC09FB79E
:10058000F8948C91E22FE0958E238C932881E223BE
:10059000E8839FBFDF91CF9108958FB7F894EC91D6
:1005A000E22BEC938FBFF6CF4F925F926F927F92C8
:1005B0008F929F92AF92BF92CF92DF92EF92FF9273
:1005C0000F931F93CF93DF9300D000D01F92CDB72E
:1005D000DEB78B0129013A01909100018917C9F01A
:1005E0009F3F09F47EC00F900F900F900F900F90D7
:1005F000DF91CF911F910F91FF90EF90DF90CF90FF
:10060000BF90AF909F908F907F906F905F904F9032
:100610000895E2ECF0E094919D8397FDE4CF61E0D2
:100620000E94A3028D81882321F09D81923009F0E0
:100630004AC14801B12CA12C60E072E18AE790E048
:10064000A50198010E94411329833A834B835C835F
:1006500069017A0181E0C81AD108E108F1089FEF29
:10066000C916D104E104F10409F00CF401C160E4FD
:1006700072E48FE090E0A50198010E9441136901A6
:100680007A0181E0C81AD108E108F1089D81923011
:1006900009F0A2C08FEFC816D104E104F10409F0FB
:1006A0000CF4E6C160E970ED83E090E0A5019801EB
:1006B0000E94411369017A0191E0C91AD108E10849
:1006C000F1088FEFC816D104E104F10411F00CF029
:1006D0007FC183E09091B100987F892B8093B10016
:1006E000CFC080930001E2ECF0E094919D839F3FA6
:1006F00009F479CF913041F150F0923009F446C0BD
:100700009D8197FD70CF61E00E94A3028ECF14BC43
:1007100015BC94B5926094BD95B5916095BD282F98
:1007200030E0F901E255FF4FE491F0E0EE0FFF1FDA
:10073000EC55FF4F45915491F901E057FF4FE4917B
:10074000E093DC061D826BCF109280001092810036
:1007500090918100986090938100909181009160C8
:1007600090938100282F30E0F901E255FF4FE4918A
:10077000F0E0EE0FFF1FEC55FF4F45915491F9014A
:10078000E057FF4FE491E093DB0649CF1092B000B1
:100790001092B1009091B00092609093B00090914F
:1007A000B10091609093B100282F30E0F901E2553B
:1007B000FF4FE491F0E0EE0FFF1FEC55FF4F459126
:1007C00054915093E6064093E506F901E057FF4F38
:1007D000E491E093E70623CF9FEFC916D104E1042B
:1007E000F10409F00CF46DC068E478EE81E090E06B
:1007F000A50198010E94411369017A0181E0C81A9C
:10080000D108E108F1089D81992309F4FAC08FEF1E
:10081000C816D104E104F10411F00CF0FBC0EFC0E4
:1008200064E274EF80E090E0A50194010E9441131E
:1008300069017A0181E0C81AD108E108F10885E070
:100840009FEFC916D104E104F10409F008F442CF86
:1008500062E17AE780E090E0A50194010E944113F3
:1008600069017A0181E0C81AD108E108F108E5C000
:1008700081E09D8191112ECF95B5987F892B85BD03
:100880002FEF3FEFA901411451046104710409F0F5
:1008900043C09D81913009F45EC0923009F46DC06F
:1008A0009111A1CEC7BC2093E1063093E20640939C
:1008B000E3065093E40680916E00826080936E00A0
:1008C00092CE82E0D6CFB12CA12C60E072E18AE713
:1008D00090E0A50198010E94411369017A0181E02D
:1008E000C81AD108E108F108C114D10491E0E90661
:1008F000F10404F591E08D81813011F68091810041
:10090000887F892B809381002FEF3FEFA90141144D
:10091000510461047104F9F0D801AA0FBB1FA301AF
:1009200092010E94F41128EE33E040E050E00E9472
:10093000D211AFCF68E478EE81E090E0A501980194
:100940000E94411369017A0181E0C81AD108E108C7
:10095000F10893E0D0CFD0928900C0928800209314
:10096000DD063093DE064093DF065093E00680916B
:100970006F00826080936F0036CEC092B3002093E8
:10098000E8063093E9064093EA065093EB0680911F
:10099000700082608093700026CE84E09FEFC916BD
:1009A000D104E104F10409F008F466CFC980DA80CB
:1009B000EB80FC808AE0F594E794D794C7948A95FD
:1009C000D1F781E0C81AD108E108F10885E054CFD9
:1009D00068E478EE81E090E0A50198010E9441135F
:1009E00069017A0181E0C81AD108E108F1089FEF96
:1009F000C916D104E104F10411F00CF011CF84E028
:100A000069CE83E09FEFC916D104E104F10409F037
:100A10000CF432CF62E17AE780E090E0A501940126
:100A20000E94411369017A0181E0C81AD108E108E6
:100A3000F1089D81992309F4B0CF86E09FEFC91694
:100A4000D104E104F10409F008F444CEC980DA804D
:100A5000EB80FC809AE0F594E794D794C7949A953C
:100A6000D1F781E0C81AD108E108F10887E032CE59
:100A700082E030CE1F93CF93DF93182FEB0161E01C
:100A80000E94A302209739F460E0812FDF91CF917B
:100A90001F910C94EC01CF3FD10511F461E0F5CF2B
:100AA000E12FF0E0E458FF4FE491E33031F140F4FE
:100AB000E130B1F0E230E1F0C038D1057CF7E4CFAD
:100AC000E73029F1E83059F1E430B1F78091800046
:100AD000806280938000D0938B00C0938A0004C012
:100AE00084B5806884BDC7BDDF91CF911F91089503
:100AF00084B5806284BDC8BDF7CF809180008068D6
:100B000080938000D0938900C0938800EDCF8091BE
:100B1000B00080688093B000C093B300E5CF8091AF
:100B2000B00080628093B000C093B400DDCF8E50DF
:100B3000806480937C0080917A00806480937A0046
:100B400080917A0086FDFCCF8091780090917900A9
:100B500008953FB7F8948091D5069091D606A0915C
:100B6000D706B091D80626B5A89B05C02F3F19F02F
:100B70000196A11DB11D3FBFBA2FA92F982F88271D
:100B8000BC01CD01620F711D811D911D42E0660FF8
:100B9000771F881F991F4A95D1F708958F929F92CA
:100BA000AF92BF92CF92DF92EF92FF926B017C01E6
:100BB0000E94A9054B015C01C114D104E104F104B8
:100BC000B9F00E94A905681979098A099B09683E4C
:100BD00073408105910580F321E0C21AD108E10834
:100BE000F10888EE880E83E0981EA11CB11CE4CFAA
:100BF000FF90EF90DF90CF90BF90AF909F908F903D
:100C00000895CF92DF92EF92FF926B01770FEE087B
:100C1000FF08A7019601BC018091D1070E94D40270
:100C2000C701B6010E94CE058091D1070E947702CC
:100C300062E370E080E090E0FF90EF90DF90CF9073
:100C40000C94CE0564EF71E080E793E00E9401060A
:100C50006CE271E088EB91E00E94010666E970E0C9
:100C600088EB91E00E94010664EF71E080E793E079
:100C70000E94010665E471E08FE393E00E940106A3
:100C80006FEA70E080E193E00E9401066DE770E09A
:100C900084EE92E00E9401066DE770E08AEB92E03C
:100CA0000E9401066AEF70E084EE92E00E94010665
:100CB00065E471E080E090E00E94CE056AEF70E0AC
:100CC00087EC91E00E94010664EF71E08EE692E00D
:100CD0000E94010665E471E08BE492E00E94010647
:100CE0006FEA70E08AE292E00E9401066DE770E030
:100CF0008BE092E00E9401066DE770E082ED91E0EA
:100D00000E9401066AEF70E08BE092E00E9401060B
:100D10006EE571E080E090E00C94CE05FC0101905E
:100D20000020E9F73197AF01481B590BBC018CEE4D
:100D300096E00C948D008F929F92AF92BF920F938A
:100D40001F93CF93DF93CDB7DEB7A1970FB6F8947B
:100D5000DEBF0FBECDBF19A2423008F44AE08E01BB
:100D60000F5D1F4F842E912CB12CA12CA501940155
:100D70000E94D211E62FB901CA01EA30F4F4E05D15
:100D8000D801EE938D01232B242B252B79F790E0AE
:100D900080E0109719F0CD010E948E06A1960FB643
:100DA000F894DEBF0FBECDBFDF91CF911F910F91A1
:100DB000BF90AF909F908F900895E95CE1CFCF9264
:100DC000DF92EF92FF92CF93DF936C01990FEE08C1
:100DD000FF08F7FE1FC06DE28CEE96E00E942D0129
:100DE000EC0166277727CB016C197D098E099F09D5
:100DF0004AE00E949B06C80FD91F8DE996E00E9429
:100E00008E068C0F9D1FDF91CF91FF90EF90DF90AA
:100E1000CF9008954AE0C701B6010E949B06EC01FD
:100E2000ECCF8F929F92AF92BF92CF92DF92EF92D0
:100E3000FF920F931F93CF93DF9380EA96E00E9477
:100E40008E068DE996E00E948E06CFEED5E083E512
:100E5000882E85E0982E98EEA92E93E0B92E699100
:100E60007991C5010E942D136B01770FEE08FF08E1
:100E7000F401419151914F01052E000C660B770B47
:100E80008091D10797018601082E000C990B0E94D2
:100E90001A02C701B6010E94A51026E636E646EA08
:100EA0005FE30E9404110E94ED12072E000C880BD4
:100EB000990B0E94CE058091D107970140E050E048
:100EC000BA01082E000C990B0E941A02F6E0CB38EA
:100ED000DF0729F6DF91CF911F910F91FF90EF90DF
:100EE000DF90CF90BF90AF909F908F900895CF925A
:100EF000DF92EF92FF920F931F9360E08CE00E94CD
:100F0000EC0183E090E00197F1F761E08CE00E9452
:100F1000EC0183E290E00197F1F760E08CE00E9441
:100F2000EC01EDE9F0E06491EBEBF0E0E491F0E04E
:100F3000EE0FFF1FEE58FF4F8591949100E412E4ED
:100F40002FE030E0462F0E94C8086B017C01C114DD
:100F5000D104E104F10439F08FEFC81AD80AE80A85
:100F6000F80A8FE0F8226AE070E080E090E00E94EA
:100F7000CE05C701B6010E94A3102DEC3CEC48E65B
:100F800052E40E947B121F910F91FF90EF90DF902F
:100F9000CF9008951F920F920FB60F9211242F93A6
:100FA0003F934F935F936F937F938F939F93AF93F1
:100FB000BF93EF93FF938091E8069091E906A0918B
:100FC000EA06B091EB06892B8A2B8B2BD1F19091FD
:100FD000E706E091E506F091E606808189278083A7
:100FE0008091E8069091E906A091EA06B091EB069F
:100FF000181619061A061B069CF48091E8069091B3
:10100000E906A091EA06B091EB060197A109B109A2
:101010008093E8069093E906A093EA06B093EB0666
:10102000FF91EF91BF91AF919F918F917F916F91C0
:101030005F914F913F912F910F900FBE0F901F9096
:101040001895809100010E947702EACF1F920F92BB
:101050000FB60F9211242F933F934F935F936F938B
:101060007F938F939F93AF93BF93EF93FF938CEEF8
:1010700096E00E940B01FF91EF91BF91AF919F917C
:101080008F917F916F915F914F913F912F910F9031
:101090000FBE0F901F9018951F920F920FB60F92D0
:1010A00011242F938F939F93EF93FF93E091FC066E
:1010B000F091FD068081E0910207F091030782FD27
:1010C0001BC09081809105078F5F8F732091060769
:1010D000821741F0E0910507F0E0E451F94F958F58
:1010E00080930507FF91EF919F918F912F910F9022
:1010F0000FBE0F901F9018958081F4CF1F920F9212
:101100000FB60F9211242F933F938F939F93AF931A
:10111000BF938091D1069091D206A091D306B09151
:10112000D4063091D00623E0230F2D3758F50196D1
:10113000A11DB11D2093D0068093D1069093D206B5
:10114000A093D306B093D4068091D5069091D6068D
:10115000A091D706B091D8060196A11DB11D80932C
:10116000D5069093D606A093D706B093D806BF9124
:10117000AF919F918F913F912F910F900FBE0F9044
:101180001F90189526E8230F0296A11DB11DD2CFFE
:10119000CF92DF92EF92FF920F931F93E82FF92FD8
:1011A00005C0015011092109310961F1908196238F
:1011B0009417B9F305C0015011092109310911F142
:1011C000908196239413F7CFC12CD12CE12CF12CD4
:1011D0000AC08FEFC81AD80AE80AF80A0C151D05CC
:1011E0002E053F0579F080818623841791F36C2DBD
:1011F0007D2D8E2D9F2D1F910F91FF90EF90DF90F1
:10120000CF90089560E070E080E090E01F910F9132
:10121000FF90EF90DF90CF900895ECEEF6E0138210
:10122000128288EE93E0A0E0B0E084839583A683E9
:10123000B7838FE896E09183808385EC90E0958773
:10124000848784EC90E09787868780EC90E0918B90
:10125000808B81EC90E0938B828B82EC90E0958B7D
:10126000848B86EC90E0978B868B118E128E138E7A
:10127000148EE9E8F7E0168217821086118612862E
:1012800013861486158616861786108A118A128A86
:10129000138A148A158A82E896E09093D007809387
:1012A000CF078AE08093D1070895CF93DF9300D0D2
:1012B0001F92CDB7DEB7789484B5826084BD84B5C3
:1012C000816084BD85B5826085BD85B5816085BD41
:1012D00080916E00816080936E00109281008091F9
:1012E0008100826080938100809181008160809381
:1012F0008100809180008160809380008091B100A6
:1013000084608093B1008091B00081608093B000D0
:1013100080917A00846080937A0080917A00826064
:1013200080937A0080917A00816080937A00809126
:101330007A00806880937A001092C100E091FC06E8
:10134000F091FD0682E08083E091F806F091F906C5
:101350001082E091FA06F091FB068FEC80831092E8
:101360000407E0910007F091010786E08083E09197
:10137000FE06F091FF06808180618083E091FE0689
:10138000F091FF06808188608083E091FE06F091F5
:10139000FF06808180688083E091FE06F091FF0661
:1013A00080818F7D808361E082E00E94A30261E002
:1013B00085E00E94A30261E084E00E94A30261E054
:1013C00086E00E94A30261E089E00E94A30261E03E
:1013D0008BE00E94A30261E08AE00E94A30260E029
:1013E00086E00E94A30260E087E00E94A30260E022
:1013F00088E00E94A30261E08CE00E94A30260E00A
:101400008DE00E94A30260E08FE00E94A30260E0F2
:1014100080E10E94A30293E5292E95E0392E28EE63
:10142000A22E23E0B22E30E0832E30E0932E8CEEFD
:1014300096E00E94EB00892B71F08CEE96E00E9402
:10144000C9008983682F8CEE96E00E942D018DE9FA
:1014500096E00E948E06E981E153E93408F072C0FB
:101460000E2E000CFF0BE95CF54F0C9460139E0CE4
:10147000A70CAD0CB30CB90CBF0CC50CCB0CA20A5D
:10148000A20AA20AA20AA20AA20AA20AA20AA20AFC
:10149000900AA20AA20AD80A800AA20AA20AA20AEA
:1014A000A20AA20AAE0AA20AA20AA20AA20AD60A9C
:1014B000B50AC00AA20AA20AA20ADF0AA20AA20A5E
:1014C000A20AA20AA20AA20AA20AA20AA20AA20ABC
:1014D000A20AA20AA20AC90BEF0A1F0C520BA20A07
:1014E000A20A840DEB0DD20E10103D10A20AA20A22
:1014F000A20AA20AA20AA20AA20A7C0DD10C820D9B
:1015000061E086E00E94EC0168E770E084E00E9400
:101510003A0561E085E00E94EC0168E770E00FC0E9
:1015200061E086E00E94EC0160EF70E084E00E94E0
:101530003A0561E085E00E94EC0160EF70E082E036
:101540000E943A058114910409F471CF0E94F700BA
:10155000882309F46CCF0E94000069CF60E086E028
:101560000E94EC0160EF70E0D1CF61E086E00E9464
:10157000EC0168E770E084E00E943A0560E0DACFB1
:1015800060E086E00E94EC0170E060E084E00E9490
:101590003A0560E085E00E94EC0170E060E082E0E6
:1015A0000E943A058AE00E947702CCCF61E0D7CF53
:1015B00061E086E00E94EC0168E770E0B7CF61E08F
:1015C00086E00E94EC016FE770E084E00E943A053B
:1015D00061E085E00E94EC016FE770E0B0CF61E070
:1015E00086E00E94EC016FEF70E084E00E943A0513
:1015F00061E085E00E94EC016FEF70E082E00E9404
:101600003A0568EC70E080E090E00E94CE0560E072
:1016100086E00E94EC016FEF70E084E00E943A05E2
:1016200061E085E00E94EC016FEF70E082E00E94D3
:101630003A056CEB72E080E090E00E94CE0561E03C
:1016400086E00E94EC016FEF70E084E00E943A05B2
:1016500061E085E00E94EC016FEF70E070CF8130B7
:10166000910509F04BC060E086E00E94EC0168EC57
:1016700070E084E00E943A0561E085E00E94EC01A0
:1016800068EC70E082E00E943A058CEE96E00E94E1
:10169000EB00892B39F08CEE96E00E94C90083356F
:1016A00009F450CF0E9477070E94ED122B017B01B5
:1016B0008FE00E94C3019B838A8380E10E94C30163
:1016C00026E04216510434F0EA81FB81EF2B69F4E5
:1016D000009729F660E086E00E94EC0168EC70E07B
:1016E00084E00E943A0560E0C8CF2A813B81213026
:1016F000310521F4009711F461E0EDCF92012650FD
:1017000031092A303105B8F4EA81FB81319799F427
:101710008130910581F460E086E00E94EC0170E088
:1017200060E084E00E943A0560E085E00E94EC0100
:1017300070E060E0A7CFF0E14F1A510824E14216B3
:101740005104C0F4EA81FB81319709F09ECF0197E3
:1017500009F09BCF61E086E00E94EC016FEF70E042
:1017600084E00E943A0561E085E00E94EC016FEFA1
:1017700070E088CFF4E2EF16F1040CF486CF2A81F2
:101780003B812130310509F080CF019709F07DCFF1
:10179000C2CF86E00E94C3019B838A8387E00E94B8
:1017A000C3018C0188E00E94C30161E00130110592
:1017B00039F0EA81FB81319709F5892B81F560E0E9
:1017C00084E00E94EC0168EC70E085E00E943A053C
:1017D00061E082E00E94EC0168EC70E089E00E9428
:1017E0003A058CEE96E00E94EB00892B91F28CEE8C
:1017F00096E00E94C900833561F6A4CE2A813B8120
:10180000232B69F4019759F461E084E00E94EC0114
:1018100068EC70E085E00E943A0560E0DACF60E0B5
:1018200084E00E94EC0170E060E085E00E943A05EF
:1018300060E082E00E94EC0170E060E0CFCF0E94A7
:1018400077070E94ED127B836A838FE00E94C301B9
:101850008C0180E10E94C3010115110509F042C00D
:10186000009709F056C060E084E00E94EC0166E950
:1018700070E085E00E943A0560E082E00E94EC01A1
:1018800066E970E089E00E943A0568EE73E080E066
:1018900090E00E94CE0560E084E00E94EC0168ECDC
:1018A00070E085E00E943A0561E082E00E94EC0170
:1018B00068EC70E089E00E943A0564EF71E080E036
:1018C00090E00E94CE058CEE96E00E94EB00892B02
:1018D00009F4B5CF8CEE96E00E94C900833509F07B
:1018E000AECF30CE0130110571F760E0009739F0CE
:1018F000EA81FB813B976CF0019729F761E084E076
:101900000E94EC0168EC70E085E00E943A0561E01D
:101910000CC00197C1F661E084E00E94EC0168EC24
:1019200070E085E00E943A0560E082E00E94EC01F0
:1019300068EC70E089E00E943A05C5CF20E030E015
:10194000A90166E071E08AE00E94D402FBCD20E0AC
:1019500030E0A90166E271E0F6CF20E030E0A901B5
:101960006AE471E0F0CF20E030E0A9016DE571E0BC
:10197000EACF20E030E0A90168E871E0E4CF20E0A0
:1019800030E0A90168EB71E0DECF20E030E0A90192
:101990006EEE71E0D8CF20E030E0A90164E172E0A2
:1019A000D2CF0E9477072B013C01AC019B010E9422
:1019B0002813882379F08FEA96E00E948E068DE93D
:1019C00096E00E948E0662E370E080E090E00E9464
:1019D000CE05B8CD73016201E894F7F82FEF3FEF21
:1019E0004FE75FE7C701B6010E94281381110DC0C0
:1019F0002FEF3FEF4FE75FE7C701B6010E949E1050
:101A000018161CF483EB96E0D8CF2FEF3FEF4FE78B
:101A10005FE4C301B2010E94231318161CF487EB84
:101A200096E0CBCF2FEF3FEF4FE75FECC301B20162
:101A30000E949E1087FDF3CF20E030E0A901C30192
:101A4000B2010E949E1087FF09C06DE28CEE96E005
:101A50000E942D0177FA709477F870942AE037EDA0
:101A600043EA5BE3C301B2010E940F126B017C01E8
:101A70000E94F4122B013C010E94A3109B01AC01B7
:101A8000C701B6010E940E126B017C014AE0C3013E
:101A9000B2010E949B066EE28CEE96E00E942D0140
:101AA00020E030E040E251E4C701B6010E94041199
:101AB0006B017C010E94F4122B01712C612C4AE015
:101AC000C301B2010E949B06C301B2010E94A31090
:101AD0009B01AC01C701B6010E940E1220E030E06C
:101AE00040E251E40E9404110E94F41290E080E070
:101AF0004AE00E949B0663CF8FE00E9497050E94F8
:101B0000DF0661CF80E1F9CF0E9411070E94110723
:101B10008BEB96E00E948E068DE996E00E948E0681
:101B20004AE060E770E080E090E00E949B068DE96B
:101B300096E00E948E0688E390E00E94DF0681E72F
:101B400091E09B838A8381E0E82E81E0F82EEA8190
:101B5000FB8161917191FB83EA83C5010E942D1382
:101B60002B01770F66087708F701419151917F01AA
:101B7000052E000C660B770B8091D1079301820133
:101B8000082E000C990B0E941A02C301B2010E9498
:101B9000A51026E636E646EA5FE30E9404110E949D
:101BA000ED12072E000C880B990B0E94CE05809138
:101BB000D107930140E050E0BA01082E000C990BC8
:101BC0000E941A0221EE31E08A819B812817390791
:101BD00009F0BDCFB7CC64EF71E088EB91E00E94D3
:101BE000010664EF71E088EB91E00E94010664EF6A
:101BF00071E088EB91E00E9401066EE571E08DE5F1
:101C000091E00E94010666E970E08BE092E00E949C
:101C1000010664EF71E088EB91E00E9401066EE539
:101C200071E08DE591E00E94010666E970E08BE0CD
:101C300092E00E9401066AE872E088EB91E00E945F
:101C4000010664EF71E080E090E00E94CE0564EF51
:101C500071E083E992E00E94010664EF71E083E99C
:101C600092E00E94010664EF71E083E992E00E9435
:101C700001066EE571E08AEB92E00E94010666E9DA
:101C800070E08BE092E00E94010664EF71E08FE962
:101C900091E00E9401066EE571E08DE591E00E9401
:101CA000010666E970E08BE092E00E9401066AE8B6
:101CB00072E088EB91E00E94010664EF71E080E041
:101CC00090E00E94CE050E9422066AEF70E08DE54A
:101CD00091E00E94010664EF71E08FE991E00E94BB
:101CE00001066EE571E08DE591E00E9401066DE769
:101CF00070E088EB91E00E94010664EF71E08BE0F8
:101D000092E00E94010667E771E088EB91E00E9493
:101D100001066DE770E08BE092E00E9401066AE840
:101D200072E083E992E00E94010664EF71E080E0D6
:101D300090E00E94CE050E9422066AEF70E08DE5D9
:101D400091E00E94010664EF71E08FE991E00E944A
:101D5000010667E771E08DE591E00E9401066DE7FD
:101D600070E08BE092E00E94010664EF71E088EB86
:101D700091E00E94010667E771E08DE591E00E9425
:101D800001066DE770E08BE092E00E9401066AE8D0
:101D900072E088EB91E00E9401066AE872E080E060
:101DA00090E015CE20E030E0A90166E271E080917C
:101DB000D1070E94D4026AEF70E080E090E00E94B8
:101DC000CE0520E030E0A90168EB71E08091D107F9
:101DD0000E94D4026AEF70E080E090E00E94CE059D
:101DE00020E030E0A90168E871E08091D1070E940D
:101DF000D4026AEF70E080E090E00E94CE0520E01F
:101E000030E0A90164E172E08091D1070E94D40220
:101E10006AEF70E080E090E00E94CE0520E030E0C4
:101E2000A9016EEE71E08091D1070E94D40264EFA7
:101E300071E080E090E00E94CE0520E030E0A90152
:101E400068E871E08091D1070E94D4026AEF70E0E7
:101E500080E090E00E94CE0520E030E0A90168EB30
:101E600071E08091D1070E94D4026AEF70E080E0B7
:101E700090E00E94CE0520E030E0A90168E871E022
:101E80008091D1070E94D4026AEF70E080E090E078
:101E90000E94CE0520E030E0A9016BE472E0809161
:101EA000D1070E94D4026AEF70E080E090E00E94C7
:101EB000CE0520E030E0A90164E172E08091D10715
:101EC0000E94D40264EF71E080E090E00E94CE05B1
:101ED00020E030E0A90168E871E08091D1070E941C
:101EE000D4026AEF70E080E090E00E94CE0520E02E
:101EF00030E0A90160E173E08091D1070E94D40233
:101F00006AEF70E080E090E00E94CE0520E030E0D3
:101F1000A90163E972E08091D1070E94D4026AEFBF
:101F200070E080E090E00E94CE0520E030E0A90162
:101F300064E172E08091D1070E94D4026AEF70E000
:101F400080E090E00E94CE0520E030E0A9016EEE36
:101F500071E08091D1070E94D4026AEF70E080E0C6
:101F600090E00E94CE0520E030E0A90168EB71E02E
:101F70008091D1070E94D4026AEF70E080E090E087
:101F80000E94CE0520E030E0A9016AEB72E080916A
:101F9000D1070E94D40267E771E080E090E00E94E0
:101FA000CE0520E030E0A90163E972E08091D1071D
:101FB0000E94D4026AEF70E080E090E00E94CE05BB
:101FC00020E030E0A90164E172E08091D1070E9435
:101FD000D4026AEF70E080E090E00E94CE0520E03D
:101FE00030E0A9016BE472E08091D1070E94D40235
:101FF0006AEF70E080E090E00E94CE0520E030E0E3
:10200000A90164E172E08091D1070E94D40264EFDB
:1020100071E080E090E00E94CE058091D107C3CAB4
:10202000E5E2F3E0FB83EA8301EE11E0EA81FB8164
:1020300061917191FB83EA8320E030E0A9018091F6
:10204000D1070E94D402F80161917191819191911F
:102050008F0120E030E04AEF53E40E9404110E9417
:10206000F4120E94CE058091D1070E9477022A8146
:102070003B81275C3340D1F665CAE7ECF3E0FB8394
:10208000EA83EA81FB816281738116161706DCF50B
:102090008091CF079091D0070E942D137093DA069C
:1020A0006093D9064090D9065090DA06052C000CB2
:1020B00066087708C301B2010E94A51026E636E63D
:1020C00046E65FE30E9404110E94F4129B01AC01FA
:1020D000EA81FB81608171818091D1070E94D402E5
:1020E000C301B2010E94CE058091D1070E94770200
:1020F0002A813B812C5F3F4F3B832A832216330684
:1021000009F0BFCF1FCA6115710561F27195619524
:1021100071098091CF079091D0070E942D13072E4F
:10212000000C880B990B0E94A51020E030E040ECD9
:102130005FE30E9404110E94ED12B0CF0E94E010F4
:1021400008F481E00895E89409C097FB3EF4909567
:102150008095709561957F4F8F4F9F4F9923A9F080
:10216000F92F96E9BB279395F6958795779567950F
:10217000B795F111F8CFFAF4BB0F11F460FF1BC053
:102180006F5F7F4F8F4F9F4F16C0882311F096E9E6
:1021900011C0772321F09EE8872F762F05C0662394
:1021A00071F096E8862F70E060E02AF09A95660F4D
:1021B000771F881FDAF7880F9695879597F9089506
:1021C000990F0008550FAA0BE0E8FEEF1616170648
:1021D000E807F907C0F012161306E407F50798F0B0
:1021E000621B730B840B950B39F40A2661F0232BC9
:1021F000242B252B21F408950A2609F4A140A69545
:102200008FEF811D811D08950E9417110C94881174
:102210000E947A1138F00E94811120F0952311F06C
:102220000C9471110C94771111240C94BC110E9420
:10223000991170F3959FC1F3950F50E0551F629F60
:10224000F001729FBB27F00DB11D639FAA27F00D0F
:10225000B11DAA1F649F6627B00DA11D661F829F36
:102260002227B00DA11D621F739FB00DA11D621F1B
:10227000839FA00D611D221F749F3327A00D611D38
:10228000231F849F600D211D822F762F6A2F11241A
:102290009F5750409AF0F1F088234AF0EE0FFF1F4D
:1022A000BB1F661F771F881F91505040A9F79E3FA4
:1022B000510580F00C9471110C94BC115F3FE4F354
:1022C000983ED4F3869577956795B795F795E795FA
:1022D0009F5FC1F7FE2B880F911D9695879597F903
:1022E000089597F99F6780E870E060E008959FEF98
:1022F00080EC089500240A9416161706180609069D
:10230000089500240A94121613061406050608956B
:10231000092E0394000C11F4882352F0BB0F40F4F3
:10232000BF2B11F460FF04C06F5F7F4F8F4F9F4F33
:10233000089557FD9058440F551F59F05F3F71F0B5
:102340004795880F97FB991F61F09F3F79F087951C
:102350000895121613061406551FF2CF4695F1DFA5
:1023600008C0161617061806991FF1CF8695710535
:10237000610508940895E894BB2766277727CB0169
:1023800097F90895DB018F939F930E94F411BF91F9
:10239000AF91A29F800D911DA39F900DB29F900DB4
:1023A00011240895A1E21A2EAA1BBB1BFD010DC02A
:1023B000AA1FBB1FEE1FFF1FA217B307E407F507F5
:1023C00020F0A21BB30BE40BF50B661F771F881FD1
:1023D000991F1A9469F760957095809590959B0167
:1023E000AC01BD01CF0108950E94FF11A59F900D82
:1023F000B49F900DA49F800D911D11240895A29F5C
:10240000B001B39FC001A39F700D811D1124911DC8
:10241000B29F700D811D1124911D08955058BB2746
:10242000AA270E9426120C9488110E947A1138F073
:102430000E94811120F039F49F3F19F426F40C9486
:1024400077110EF4E095E7FB0C947111E92F0E94CF
:10245000991158F3BA17620773078407950720F09C
:1024600079F4A6F50C94BB110EF4E0950B2EBA2F5F
:10247000A02D0B01B90190010C01CA01A00111248A
:10248000FF27591B99F0593F50F4503E68F11A1636
:10249000F040A22F232F342F4427585FF3CF4695C7
:1024A00037952795A795F0405395C9F77EF41F16E9
:1024B000BA0B620B730B840BBAF09150A1F0FF0FB3
:1024C000BB1F661F771F881FC2F70EC0BA0F621F9F
:1024D000731F841F48F4879577956795B795F7958F
:1024E0009E3F08F0B0CF9395880F08F09927EE0F24
:1024F0009795879508950E948F120C9488110E94D9
:10250000811158F00E947A1140F029F45F3F29F0C0
:102510000C94711151110C94BC110C9477110E9400
:10252000991168F39923B1F3552391F3951B550B3A
:10253000BB27AA2762177307840738F09F5F5F4F96
:10254000220F331F441FAA1FA9F335D00E2E3AF0D5
:10255000E0E832D091505040E695001CCAF72BD0ED
:10256000FE2F29D0660F771F881FBB1F261737073E
:102570004807AB07B0E809F0BB0B802DBF01FF2770
:1025800093585F4F3AF09E3F510578F00C947111CB
:102590000C94BC115F3FE4F3983ED4F38695779595
:1025A0006795B795F7959F5FC9F7880F911D969529
:1025B000879597F90895E1E0660F771F881FBB1F85
:1025C000621773078407BA0720F0621B730B840B32
:1025D000BA0BEE1F88F7E09508950E94F4126894F4
:1025E000B1110C94BC1108950E94A11188F09F575D
:1025F00098F0B92F9927B751B0F0E1F0660F771F27
:10260000881F991F1AF0BA95C9F714C0B13091F01C
:102610000E94BB11B1E008950C94BB11672F782F75
:102620008827B85F39F0B93FCCF3869577956795E1
:10263000B395D9F73EF490958095709561957F4F4D
:102640008F4F9F4F08950E94E01008F48FEF089578
:102650000E94E010880B990B089597FB072E16F443
:10266000009407D077FD09D00E94661307FC05D0BF
:102670003EF4909581959F4F0895709561957F4F99
:102680000895052E97FB1EF400940E94581357FDE1
:1026900007D00E94D21107FC03D04EF40C945813BB
:1026A00050954095309521953F4F4F4F5F4F08957E
:1026B00090958095709561957F4F8F4F9F4F0895AE
:1026C000EE0FFF1F0590F491E02D0994AA1BBB1B90
:1026D00051E107C0AA1FBB1FA617B70710F0A61B22
:1026E000B70B881F991F5A95A9F780959095BC0143
:0826F000CD010895F894FFCF1D
:1026F800FF06010B02DC00B801E900D2010000006E
:102708000006010B02DC00B801E900D2010000005C
:1027180000AF005D01930026019C00370100000016
:1027280000AF005D01930026019C00370100000006
:1027380000370115012601150137013701D000C402
:10274800001501060172015D01A500D201B8019FC3
:10275800013701F700E900DC00D0000000000000AC
:10276800000C000C000C000C000C000C0006000310
:10277800000C000C000C000C000C000C0006000300
:10278800000C000C000C000C000C000C00060003F0
:10279800000C000C000C000C000C000C00060006DD
:1027A80000120012001200060006000600060006CD
:1027B8000006001200120012001200120012000A95
:1027C800000A000A000A000A000A000300030003C6
:1027D800000000003F0000003F0000803F000000B4
:1027E8003F0000003F0000803F0000003F00000065
:1027F8003F0000403F0000803E0000C03F00000056
:102808003F0000003F0000003F0000803F00000044
:102818003F0000003F0000003F0000003F00008034
:102828003E0000803E0000003F0000003F00000026
:102838003F0000003F0000C03F0000003F000000D4
:102848003F0000003F0000003F0000003F00008004
:102858003F0000003F0000803E0000803E00000076
:102868003F0000003F0000003F0000003F000080E4
:102878003F0000803F0000003F0000003F000000D4
:102888003F0000003F0000803F0000803F00000044
:102898003F0000003F0000003F0000003F000080B4
:1028A8003F0000403F0000803E0000003F00000065
:1028B8003F0000003F0000003F0000803F00008014
:1028C8003F0000003F0000003F0000003F00000004
:1028D8003F0000803F0000003F0000003F00000074
:1028E8003F0000003F0000003F0000003F000000E4
:1028F8003F0000003F0000003F0000003F000000D4
:102908003F0000003F0000003F0000003F00004083
:102918003F0000803EB801B801B801B801B801B85D
:1029280001B80115015D018801B801FFFFEE01EE54
:1029380001EE01EE01EE01B801B801B801B80115C8
:10294800011501EE0188015D01FFFF0601B801884C
:10295800015D010601FFFF060106010601B80188B5
:10296800015D012601FFFF2601EE01B80188014A39
:1029780001FFFF15011501EE018801B8015D01FF96
:10298800FF0601B80188015D010601FFFF0601B8D5
:102998000188015D012601FFFF26012601EE01B82D
:1029A80001880115011501150115016E021501EEC9
:1029B8000188015D01FFFF93020400EE0108000B8E
:1029C8000208004B0204000B020800EE010800B8E0
:1029D800010400B80108000B020800930204004B30
:1029E8000208000B020800EE01FCFF0B0208004B76
:1029F800020400930204000B020400B8010400B8AA
:102A0800010800B8010800EE0108000B0208004B9D
:102A180002FCFFBA0208007003040010030800BAA1
:102A28000208009302FCFF0B020800930204004B0B
:102A38000208000B020800EE010400EE0108000B7A
:102A48000208004B020400930204000B020400B8C1
:102A5800010400B80104000000040093020400EE21
:102A68000108000B0208004B0204000B020800EEEC
:102A7800010800B8010400B80108000B020800931F
:102A88000204004B0208000B020800EE01FCFF0BD9
:102A98000208004B020400930204000B020400B871
:102AA800010400B8010800B8010400EE0108000B99
:102AB8000208004B02FCFFBA020800700304001071
:102AC800030800BA0208009302FCFF0B02080093F7
:102AD8000204004B0208000B020800EE010400EE9D
:102AE8000108000B0208004B020400930204000BCB
:102AF800020400B8010400B80104000000040093B7
:102B08000202000B0202004B020200EE0102000B5F
:102B1800020200B80102009F010200EE0104000059
:102B2800000800930202000B0202004B020200EEB2
:102B38000102000B02040093020400700302003F2C
:102B48000302004D0A4D0A00004D0A00002D084DF1
:102B58000A0000400C0000000000002006000000F1
:102B68000000002D080000000020060000000027DB
:102B78000500000000E0060000B80700004907E073
:102B880006000020064D0A400CC00D0000EA0A406D
:102B98000C00004D0A00002D082D09B807000000A0
:102BA800002D080000000020060000000027050096
:102BB800000000E0060000B80700004907E0060032
:102BC8000020064D0A400CC00D0000EA0A400C0027
:102BD800004D0A00002D082D09B807000000000C60
:102BE800000C000C000C000C000C000C000C000C7D
:102BF800000C000C000C000C000C000C000C000C6D
:102C0800000C000C000C000C000C000C000C000C5C
:102C1800000C000C000C000C000C000C000C00094F
:102C280000090009000C000C000C000C000C000C42
:102C3800000C000C000C000C000C000C000C000C2C
:102C4800000C000C000C000C000C000C000C000C1C
:102C5800000C000C000C000C000C000C0009000912
:102C68000009000C000C000C000C000C000C000CFF
:102C7800000C000C000C000C000C00000000002DE3
:102C8800018D00BA007A01EB00C900DD000D0A00D1
:102C980020274D6172696F205468656D6527006E45
:102CA800616E00696E66006F7666002027556E6457
:102CB8006572776F726C64205468656D65270000D3
:00000001FF
