:100000000C9466040C948E040C948E040C948E0450
:100010000C948E040C948E040C948E040C94560C48
:100020000C948E040C948E040C948E040C94540D39
:100030000C948E040C948E040C948E040C948E04F8
:100040000C940A0D0C948E040C94D80C0C94B20CE5
:100050000C948E040C948E040C948E040C948E04D8
:100060000C948E040C948E040606060606060C12EA
:100070000606060606060C120606060606060C12FC
:100080000606060606060C0C0303030C0C0C0C0CEF
:100090000C0303030303030A0A0A0A0A0A121212D0
:1000A00006010B02DC00B801E900D20100000000EB
:1000B00006010B02DC00B801E900D20100000000DB
:1000C000AF005D01930026019C0037010000000095
:1000D000AF005D01930026019C0037010000000085
:1000E000370115012601150137013701D000C40081
:1000F0001501060172015D01A500D201B8019F0141
:100100003701F700E900DC00D0000000000000002B
:1001100000000000240027002A0000000000230047
:100120002600290000000008000201000003040767
:10013000000000000000000006060606060606068F
:10014000060606060606060606060606060606064F
:1001500006060606060606060A0A0A060606060633
:10016000060606060606060606060606060606062F
:10017000060606060606060A0A0A06060606060613
:100180000606060606064D0A4D0A00004D0A000046
:100190002D084D0A0000400C000000000000200661
:1001A0000000000000002D080000000020060000F4
:1001B0000000270500000000E0060000B80700006E
:1001C0004907E006000020064D0A400CC00D000063
:1001D000EA0A400C00004D0A00002D082D09B8075E
:1001E000000000002D0800000000200600000000B4
:1001F000270500000000E0060000B80700004907DE
:10020000E006000020064D0A400CC00D0000EA0A7E
:10021000400C00004D0A00002D082D09B807000011
:1002200000000A010A010A0107030A07030D0A0A6E
:10023000010A010A0107030A07030D0A0A06030A55
:10024000FAFDFEFE05FA050AFAFDFEFE0507050A9F
:1002500007FE0AFAFE0D0A06030AFAFDFEFE05FA7B
:10026000050AFAFDFEFE0507050AFAFE0AFAFE0D6A
:100270000DB8010000B8010000B80100005D010BDD
:1002800002B8015D010B02B8010000930200009367
:1002900002000093020000BA020B029F015D010BF5
:1002A00002B80100007003B801B80170033F0310E9
:1002B00003E402BA02E4020000C7016E024B022A04
:1002C000020B02D2010B0200005D019F015D01B82B
:1002D000010B02B8010B0293027003B801B8017060
:1002E000033F031003E402BA02E4020000C7016EF8
:1002F000024B022A020B02D2010B0200005D019F99
:10030000015D010B02B8015D010B02B8010000059F
:100310000505050A050505050A0505050505050781
:100320000505050A0A2601B80188010B02EE0188BD
:1003300001B80188014B020B028801100393020BE4
:1003400002EE01B801BA0293020B024B020B02B893
:100350000102020402020402020301060202020474
:10036000020202020101020202020602020202026B
:100370000402010102020202040402020202040455
:100380000202020204030102020202040402020247
:10039000020402020202020202020202020202023B
:1003A0000301B801B801B801B801B801B801B8013A
:1003B00015015D018801B801FFFFEE01EE01EE01BC
:1003C000EE01EE01B801B801B801B801150115013F
:1003D000EE0188015D01FFFF0601B80188015D01A2
:1003E0000601FFFF060106010601B80188015D0153
:1003F0002601FFFF2601EE01B80188014A01FFFF37
:1004000015011501EE018801B8015D01FFFF06012C
:10041000B80188015D010601FFFF0601B8018801EE
:100420005D012601FFFF26012601EE01B8018801CA
:1004300015011501150115016E021501EE01880166
:100440005D01FFFF04040404040404040404040420
:100450000602080404040404040404040404040656
:100460000208040404040402020404040202040452
:100470000404040404040404040404020204040440
:100480000406020893029302BA0210031003BA0290
:1004900093024B020B020B024B02930293024B029C
:1004A0004B0293029302BA0210031003BA029302A2
:1004B0004B020B020B024B0293024B020B020B028C
:1004C0004B024B0293020B024B029302BA029302BD
:1004D0000B024B029302BA0293024B020B024B0235
:1004E0008801FFFF93029302BA0210031003BA02BD
:1004F0009302BA024B020B020B024B0293024B0215
:100500000B020B02020202020202040202020202B7
:1005100002040202020202020202020202020202B9
:1005200004020202020202040202020202020402A5
:100530000202020202020202020202020204020299
:100540000202020204020202020202040202020287
:100550000202020202020202020204020202020279
:100560000204020202020202040202020202020267
:100570000202020202020204020202020202040257
:100580000202020202040202020202020202020249
:100590000202020204DF0FD111DF0F3015B21A3050
:1005A00015BF1FDF0FD111DF0F3015B21A3015BF85
:1005B0001FDF0F240E590D240E590DDF0F240EDFFF
:1005C0000F240ED111DF0FD111DF0F0014DF0FDF69
:1005D0000FD111DF0F3015B21A3015BF1FDF0FD149
:1005E00011DF0F3015B21A3015BF1FDF0F240E595F
:1005F0000D240E590DDF0F240EDF0F240ED111DF55
:100600000FD111DF0F240E590D980AE40B980A59E7
:100610000DD111590D3015980AE40B980A590DD1D6
:1006200011590D3015980A7009E8087009E8089802
:100630000A7009980A7009E40B980AE40B980A59A1
:100640000D980A980AE40B980A590DD111590D30EA
:1006500015980AE40B980A590DD111590D301598C7
:100660000A7009E8087009E808980A7009980A7081
:1006700009E40B980AE40B980A590D980AF007E868
:1006800008980A590DD111590D3015980AE40B98A4
:100690000A590DD111590D3015980A7009E80870E2
:1006A00009E808980A7009980A7009E40B980AE4A6
:1006B0000B590DE40B980A02020402020402020420
:1006C00004040202040202040202040404020204FA
:1006D000020204020204040402020A0202020404E6
:1006E00004020204020204020204040402020402DC
:1006F00002040202040404020204020204020204CC
:10070000040402020A0202020404040202040202B5
:1007100004020204040404040404040404040202A1
:100720000402020402020404040404040404040491
:100730000402020402020402020404040404040485
:100740000404040402020402020402020404040475
:1007500004040404040404D111D111D111D111D124
:1007600011D111D111D111590DE40B980AD111D128
:1007700011D111D111D111D111590D980AE40B24C5
:100780000ED111D111D111D111D111D111D111D15C
:1007900011D111590DE40B980A590D980AE8080077
:1007A0000A980AE40B590D980A590DD111D111D1AB
:1007B00011D111D111D111D111D111590DE40B98D1
:1007C0000AD111D111D111D111D111D111590D98D5
:1007D0000AE40B240ED111D111D111D111D111D1B3
:1007E00011D111D111D111590DE40B980A590D985D
:1007F0000AE808000A980AE40B590D980A590D985E
:100800000A980A980A980A980A980A980A980A98D8
:100810000AF007980AF007980AF007980AE40B59BB
:100820000D240EDF0F980A980A980A980A980A98D9
:100830000A980A980A980AF007980AF007980AF0A6
:1008400007E8087009E8087009E808980A980A9803
:100850000A980A980A980A980A980A980AF0079833
:100860000AF007980AF007980AE40B590D240EDFE6
:100870000F980A980A980A980A980A980A980A9863
:100880000A980AF007980AF007980AF007E8087033
:1008900009E8087009E808010204081020408001F6
:1008A00002040810200102040810200000000025A6
:1008B0000028002B000404040404040404020202BF
:1008C00002020203030303030302D50D11241FBE1A
:1008D000CFEFD8E0DEBFCDBF22E0A4E3B1E001C09E
:1008E0001D92AD35B207E1F711E0A0E0B1E0E6E21C
:1008F000F0E302C005900D92A433B107D9F714E0DC
:10090000C6E6D4E004C02197FE010E94E616C53673
:10091000D107C9F70E94140E0C9411180C94000012
:10092000ECE6F1E0858181958187848181958087DE
:1009300082E3868387830895ECE6F1E085818187F1
:1009400084818195808782E3868387830895AF922F
:10095000BF92CF92DF92EF92FF920F931F93CF93AC
:10096000DF936C017B018B01040F151FEB015E010E
:10097000AE18BF08C017D10759F06991D601ED91A3
:10098000FC910190F081E02DC6010995892B79F742
:10099000C501DF91CF911F910F91FF90EF90DF90F4
:1009A000CF90BF90AF900895FC01118610868DE125
:1009B0009BE0918B808B138A128A89E190E0978764
:1009C00086878EE490E0938782870895FC01538D9B
:1009D000448D252F30E0842F90E0821B930B541719
:1009E00010F0CF96089501970895FC01918D828DA6
:1009F000981761F0A28DAE0FBF2FB11D5D968C913F
:100A0000928D9F5F9F73928F90E008958FEF9FEF7D
:100A10000895FC01918D828D981731F0828DE80F39
:100A2000F11D858D90E008958FEF9FEF0895FC01F3
:100A3000918D228D892F90E0805C9F4F821B9109C0
:100A40008F739927089586E791E00E94170521E0AA
:100A5000892B09F420E0822F089580E090E0892B13
:100A600029F00E94230581110C9400000895FC01D7
:100A7000A48DA80FB92FB11DA35ABF4F2C91848DFF
:100A800090E001968F739927848FA689B7892C935C
:100A9000A089B1898C91837080648C93938D848DAF
:100AA000981306C00288F389E02D80818F7D8083B2
:100AB0000895EF92FF920F931F93CF93DF93EC0172
:100AC00081E0888F9B8D8C8D98131AC0E889F989F5
:100AD000808185FF15C09FB7F894EE89FF896083F8
:100AE000E889F98980818370806480839FBF81E079
:100AF00090E0DF91CF911F910F91FF90EF900895BB
:100B0000F62E0B8D10E00F5F1F4F0F731127E02E95
:100B10008C8D8E110CC00FB607FCFACFE889F989CD
:100B2000808185FFF5CFCE010E943705F1CFEB8D97
:100B3000EC0FFD2FF11DE35AFF4FF0829FB7F894A1
:100B40000B8FEA89FB8980818062CFCFCF93DF93BF
:100B5000EC01888D8823B9F0AA89BB89E889F989D5
:100B60008C9185FD03C0808186FD0DC00FB607FC0A
:100B7000F7CF8C9185FFF2CF808185FFEDCFCE013D
:100B80000E943705E9CFDF91CF910895833081F03E
:100B900028F4813099F08230A9F008958730A9F0C7
:100BA0008830C9F08430B1F4809180008F7D03C01B
:100BB000809180008F7780938000089584B58F772F
:100BC00084BD089584B58F7DFBCF8091B0008F7771
:100BD0008093B00008958091B0008F7DF9CFCF93BE
:100BE000DF93282F30E0F901EC5DFE4F8491F9018D
:100BF000E956F74FD491F901EB54F74FC491CC2348
:100C0000A1F081110E94C605EC2FF0E0EE0FFF1F4E
:100C1000E65EFE4FA591B491EC91ED2381E090E06A
:100C200009F480E0DF91CF91089580E090E0FACF61
:100C30001F93CF93DF93282F30E0F901EC5DFE4F37
:100C40008491F901E956F74FD491F901EB54F74F2C
:100C5000C491CC23A9F0162F81110E94C605EC2F58
:100C6000F0E0EE0FFF1FE555F74FA591B4918FB758
:100C7000F894EC91111108C0D095DE23DC938FBF5E
:100C8000DF91CF911F910895DE2BF8CF9091000155
:100C900089130BC0E9ECF8E0E4919FEF9093000119
:100CA000E13049F028F0E23061F060E00C94180681
:100CB00010926E00FACF90916F009D7F90936F001D
:100CC000F4CF909170009D7F9093700091E090938D
:100CD000B0009091B100987F94609093B100109211
:100CE000B300E3CFCF93DF9390E0FC01E956F74FD9
:100CF00024918B54974FFC0184918823D1F090E08C
:100D0000880F991FFC01E05FFE4FA591B491FC0193
:100D1000E555F74FC591D49161110EC09FB7F89476
:100D20008C91E22FE0958E238C932881E223E88337
:100D30009FBFDF91CF9108958FB7F894EC91E22B8C
:100D4000EC938FBFF6CF4F925F926F927F928F920C
:100D50009F92AF92BF92CF92DF92EF92FF920F934A
:100D60001F93CF93DF9300D000D01F92CDB7DEB793
:100D70008B0129013A01909100018917C9F09F3F29
:100D800009F47EC00F900F900F900F900F90DF919D
:100D9000CF911F910F91FF90EF90DF90CF90BF9078
:100DA000AF909F908F907F906F905F904F9008953D
:100DB000E9ECF8E094919D8397FDE4CF61E00E9417
:100DC00072068D81882321F09D81923009F04AC1FD
:100DD0004801B12CA12C60E072E18AE790E0A50106
:100DE00098010E94C71629833A834B835C8369016B
:100DF0007A0181E0C81AD108E108F1089FEFC9160D
:100E0000D104E104F10409F00CF401C160E472E4DE
:100E10008FE090E0A50198010E94C71669017A0150
:100E200081E0C81AD108E108F1089D81923009F0EB
:100E3000A2C08FEFC816D104E104F10409F00CF44C
:100E4000E6C160E970ED83E090E0A50198010E94A1
:100E5000C71669017A0191E0C91AD108E108F108C1
:100E60008FEFC816D104E104F10411F00CF07FC13A
:100E700083E09091B100987F892B8093B100CFC01F
:100E800080930001E9ECF8E094919D839F3F09F481
:100E900079CF913041F150F0923009F446C09D81F4
:100EA00097FD70CF61E00E9472068ECF14BC15BC16
:100EB00094B5926094BD95B5916095BD282F30E0B2
:100EC000F901EB54F74FE491F0E0EE0FFF1FE55509
:100ED000F74F45915491F901E956F74FE491E093AA
:100EE0005C011D826BCF1092800010928100909166
:100EF000810098609093810090918100916090931F
:100F00008100282F30E0F901EB54F74FE491F0E035
:100F1000EE0FFF1FE555F74F45915491F901E95642
:100F2000F74FE491E0935B0149CF1092B00010922B
:100F3000B1009091B00092609093B0009091B10098
:100F400091609093B100282F30E0F901EB54F74FF6
:100F5000E491F0E0EE0FFF1FE555F74F45915491F6
:100F60005093660140936501F901E956F74FE4910A
:100F7000E093670123CF9FEFC916D104E104F10488
:100F800009F00CF46DC068E478EE81E090E0A50112
:100F900098010E94C71669017A0181E0C81AD10838
:100FA000E108F1089D81992309F4FAC08FEFC81672
:100FB000D104E104F10411F00CF0FBC0EFC064E2D5
:100FC00074EF80E090E0A50194010E94C7166901CA
:100FD0007A0181E0C81AD108E108F10885E09FEFA5
:100FE000C916D104E104F10409F008F442CF62E12A
:100FF0007AE780E090E0A50194010E94C71669019C
:101000007A0181E0C81AD108E108F108E5C081E061
:101010009D8191112ECF95B5987F892B85BD2FEF9E
:101020003FEFA901411451046104710409F043C068
:101030009D81913009F45EC0923009F46DC0911128
:10104000A1CEC7BC2093610130936201409363013C
:101050005093640180916E00826080936E0092CE06
:1010600082E0D6CFB12CA12C60E072E18AE790E05B
:10107000A50198010E94C71669017A0181E0C81A8A
:10108000D108E108F108C114D10491E0E906F104A6
:1010900004F591E08D81813011F680918100887F87
:1010A000892B809381002FEF3FEFA9014114510458
:1010B00061047104F9F0D801AA0FBB1FA3019201CA
:1010C0000E948E1528EE33E040E050E00E946C153F
:1010D000AFCF68E478EE81E090E0A50198010E942E
:1010E000C71669017A0181E0C81AD108E108F10840
:1010F00093E0D0CFD0928900C092880020935D0108
:1011000030935E0140935F015093600180916F00C6
:10111000826080936F0036CEC092B3002093680146
:101120003093690140936A0150936B018091700084
:1011300082608093700026CE84E09FEFC916D104B0
:10114000E104F10409F008F466CFC980DA80EB808D
:10115000FC808AE0F594E794D794C7948A95D1F7F8
:1011600081E0C81AD108E108F10885E054CF68E4AD
:1011700078EE81E090E0A50198010E94C716690110
:101180007A0181E0C81AD108E108F1089FEFC91679
:10119000D104E104F10411F00CF011CF84E069CE28
:1011A00083E09FEFC916D104E104F10409F00CF4C7
:1011B00032CF62E17AE780E090E0A50194010E94DD
:1011C000C71669017A0181E0C81AD108E108F1085F
:1011D0009D81992309F4B0CF86E09FEFC916D10411
:1011E000E104F10409F008F444CEC980DA80EB8010
:1011F000FC809AE0F594E794D794C7949A95D1F738
:1012000081E0C81AD108E108F10887E032CE82E017
:1012100030CE1F93CF93DF93182FEB0161E00E9434
:101220007206209739F460E0812FDF91CF911F91F2
:101230000C941806CF3FD10511F461E0F5CFE12FF2
:10124000F0E0EC5DFE4FE491E33031F140F4E13049
:10125000B1F0E230E1F0C038D1057CF7E4CFE730FF
:1012600029F1E83059F1E430B1F7809180008062D3
:1012700080938000D0938B00C0938A0004C084B513
:10128000806884BDC7BDDF91CF911F91089584B55B
:10129000806284BDC8BDF7CF809180008068809354
:1012A0008000D0938900C0938800EDCF8091B0007A
:1012B00080688093B000C093B300E5CF8091B00008
:1012C00080628093B000C093B400DDCFECE6F1E023
:1012D000118610861782168260E082E00E9418064E
:1012E00060E084E00E94180670E060E085E00E9403
:1012F000090970E060E086E00C9409098E50806472
:1013000080937C0080917A00806480937A00809141
:101310007A0086FDFCCF8091780090917900089545
:101320003FB7F8948091390190913A01A0913B0127
:10133000B0913C0126B5A89B05C02F3F19F001963E
:10134000A11DB11D3FBFBA2FA92F982F8827BC011F
:10135000CD01620F711D811D911D42E0660F771F47
:10136000881F991F4A95D1F708958F929F92AF9247
:10137000BF92CF92DF92EF92FF924B015C010E94ED
:1013800090096B017C010E9490096C197D098E09FE
:101390009F09683E734081059105A8F321E0821AF8
:1013A0009108A108B10888EEC80E83E0D81EE11CA0
:1013B000F11C81149104A104B10429F7FF90EF906E
:1013C000DF90CF90BF90AF909F908F900895CF9374
:1013D000DF93EC018A8181110BC08FB7F89422E36F
:1013E00030E030934301209342018FBF81E08A8334
:1013F0008091420190914301892B09F061C01A82CA
:101400008885882361F187FF13C061E084E00E9432
:1014100018068E819885282F30E0291B310997FD09
:1014200033954B81891B421713069CF4188612C012
:1014300060E084E00E9418069E818885282F082E8F
:10144000000C330B290F311D4B814217130674F327
:10145000890F8E836E8170E086E00E94090989857C
:10146000882371F187FF13C061E082E00E941806B3
:101470008F819985282F30E0291B310997FD3395FD
:101480004B81891B421713069CF4198612C060E039
:1014900082E00E9418069F818985282F082E000C63
:1014A000330B290F311D4B814217130674F3890F3B
:1014B0008F836F8170E085E0DF91CF910C940909F3
:1014C000DF91CF910895FC0101900020E9F7319759
:1014D000AF01481B590BBC0186E791E00C94A704AF
:1014E000CF93DF93682F86E791E00E945905EC01C6
:1014F00085E291E00E94630A8C0F9D1FDF91CF91DE
:1015000008958F929F92AF92BF920F931F93CF93A4
:10151000DF93CDB7DEB7A1970FB6F894DEBF0FBE4D
:10152000CDBF19A2423008F44AE08E010F5D1F4F73
:10153000842E912CB12CA12CA50194010E946C1534
:10154000E62FB901CA01EA30F4F4E05DD801EE9368
:101550008D01232B242B252B79F790E080E0109729
:1015600019F0CD010E94630AA1960FB6F894DEBF70
:101570000FBECDBFDF91CF911F910F91BF90AF9064
:101580009F908F900895E95CE1CFCF92DF92EF9228
:10159000FF92CF93DF936C01990FEE08FF08F7FEDF
:1015A0001FC06DE286E791E00E945905EC016627B5
:1015B0007727CB016C197D098E099F094AE00E94AB
:1015C000810AC80FD91F85E291E00E94630A8C0F3F
:1015D0009D1FDF91CF91FF90EF90DF90CF90089506
:1015E0004AE0C701B6010E94810AEC01ECCFCF931B
:1015F000DF93FC012FB7F8941386128611861086AC
:1016000015861486118A108A138A128A848195811C
:1016100015821482C681D781178216822FBF009748
:1016200011F00E948817209729F0CE01DF91CF9109
:101630000C948817DF91CF9108950F931F93CF9348
:10164000DF93EC01198618861B861A860E94F70A1A
:1016500080E790E00E94EC168C019D838C83892B9F
:1016600051F088E390E00E94EC169F838E83892BD3
:1016700039F41D821C82DF91CF911F910F91089543
:1016800040E750E060EA70E0C8010E943F1448E380
:1016900050E068E670E08E819F810E943F14198AB5
:1016A000188A1B8A1A8A89E190E09F878E8788E3CF
:1016B00090E09B878A87DFCFCF93DF93EC010E9476
:1016C000F70A81E08B838C89DF91CF910C944606D9
:1016D0000F931F93CF93DF93EC018A8181110BC08D
:1016E0008FB7F89425E030E030934101209340011A
:1016F0008FBF81E08A838091400190914101892BC5
:1017000021F48B81882331F01A82DF91CF911F91D0
:101710000F9108958A859B8518161906ACF70885E0
:101720001985081719070CF04EC08C859D85181671
:10173000190624F405979D878C87E6CFEE81FF81FB
:10174000E00FF11F8081082E000C990B2E853F853C
:1017500018161906FCF4289FB001299F700D389FB8
:10176000700D11247D876C879B01770F440B550BFF
:10177000000F111F8C819D81080F191FD8016D91D9
:101780007C918C890E94A30688859985019699870A
:101790008887BACF919581959109829FB001839FE7
:1017A000700D929F700D1124072E000C880B990B61
:1017B0000E944F1420E030E040EA5FE30E94AE1444
:1017C0000E948716CFCFE889F9898A899B899C0175
:1017D00021703327309719F42115310581F0959543
:1017E00087958C0F9D1F232B41F0DC012D913C919F
:1017F000E20FF31F0190F081E02D099585CFCE0116
:101800000E945C0B81CFCF92DF92EF92FF920F93F9
:101810001F9360E08CE00E94180683E090E001973F
:10182000F1F761E08CE00E94180683E290E00197F6
:10183000F1F760E08CE00E941806E4EAF8E06491B9
:10184000E2ECF8E0E491F0E0EE0FFF1FE65EFE4F01
:101850008591949100E412E42FE030E0462F0E943D
:10186000900D6B017C01C114D104E104F10439F045
:101870008FEFC81AD80AE80AF80A8FE0F8226AE05F
:1018800070E080E090E00E94B509C701B6010E94B7
:101890004D142DEC3CEC48E652E40E9415161F91C5
:1018A0000F91FF90EF90DF90CF9008951F920F92CD
:1018B0000FB60F9211242F933F934F935F936F9323
:1018C0007F938F939F93AF93BF93EF93FF938091F9
:1018D000680190916901A0916A01B0916B01892B17
:1018E0008A2B8B2BD1F190916701E0916501F091EA
:1018F00066018081892780838091680190916901C8
:10190000A0916A01B0916B01181619061A061B0600
:101910009CF48091680190916901A0916A01B09155
:101920006B010197A109B109809368019093690146
:10193000A0936A01B0936B01FF91EF91BF91AF91BA
:101940009F918F917F916F915F914F913F912F91D7
:101950000F900FBE0F901F901895809100010E946C
:101960004606EACF1F920F920FB60F9211242F93C3
:101970003F934F935F936F937F938F939F93AF9317
:10198000BF93EF93FF9386E791E00E943705FF91A5
:10199000EF91BF91AF919F918F917F916F915F91E7
:1019A0004F913F912F910F900FBE0F901F90189560
:1019B0001F920F920FB60F9211242F938F939F9324
:1019C000EF93FF93E0918601F09187018081E09190
:1019D0008C01F0918D0182FD1BC0908180918F015F
:1019E0008F5F8F7320919001821741F0E0918F01FA
:1019F000F0E0EA58FE4F958F80938F01FF91EF91B1
:101A00009F918F912F910F900FBE0F901F9018955F
:101A10008081F4CF1F920F920FB60F9211242F9353
:101A20003F938F939F93AF93BF9380913501909194
:101A30003601A0913701B09138013091340123E093
:101A4000230F2D3758F50196A11DB11D20933401A8
:101A50008093350190933601A0933701B0933801FC
:101A60008091390190913A01A0913B01B0913C01E4
:101A70000196A11DB11D8093390190933A01A09365
:101A80003B01B0933C01BF91AF919F918F913F91EA
:101A90002F910F900FBE0F901F90189526E8230FDF
:101AA0000296A11DB11DD2CF1F920F920FB60F92B9
:101AB00011248F939F938091440190914501892B2C
:101AC00049F080914401909145010197909345011F
:101AD000809344018091400190914101892B49F00C
:101AE0008091400190914101019790934101809331
:101AF00040018091420190914301892B49F08091EE
:101B000042019091430101979093430180934201D8
:101B100078949F918F910F900FBE0F901F90189502
:101B2000CF92DF92EF92FF920F931F93E82FF92F3E
:101B300005C0015011092109310961F190819623F5
:101B40009417B9F305C0015011092109310911F1A8
:101B5000908196239413F7CFC12CD12CE12CF12C3A
:101B60000AC08FEFC81AD80AE80AF80A0C151D0532
:101B70002E053F0579F080818623841791F36C2D23
:101B80007D2D8E2D9F2D1F910F91FF90EF90DF9057
:101B9000CF90089560E070E080E090E01F910F9199
:101BA000FF90EF90DF90CF900895E6E7F1E0138289
:101BB000128288EE93E0A0E0B0E084839583A68350
:101BC000B78387E191E09183808385EC90E09587EE
:101BD000848784EC90E09787868780EC90E0918BF7
:101BE000808B81EC90E0938B828B82EC90E0958BE4
:101BF000848B86EC90E0978B868B118E128E138EE1
:101C0000148EE3E1F2E016821782108611861286A6
:101C100013861486158616861786108A118A128AEC
:101C2000138A148A158A0895789484B5826084BDD5
:101C300084B5816084BD85B5826085BD85B58160D0
:101C400085BD80916E00816080936E00109281004E
:101C50008091810082608093810080918100816009
:101C600080938100809180008160809380008091CA
:101C7000B10084608093B1008091B0008160809356
:101C8000B00080917A00846080937A0080917A001D
:101C9000826080937A0080917A00816080937A00DC
:101CA00080917A00806880937A001092C1008091C0
:101CB0003D0181112BC01092410110924001109200
:101CC00043011092420110924501109244019FB7C6
:101CD000F89410928000109281002EE330E030934F
:101CE0008900209388008091810088608093810022
:101CF0008091810084608093810080916F00826078
:101D000080936F009FBF81E080933D0180913E01F1
:101D100081111DC010926E018BE091E090936D01D6
:101D200080936C018FEF80936F0184E18093700149
:101D300080937101109272011092730110927401DC
:101D40001092750110926E0181E080933E018091A6
:101D50003F0181112FC01092480181E191E09093E1
:101D60004701809346011092490110924B01109255
:101D70004A0110924D0110924C0110924F011092A5
:101D80004E01109251011092500110925301109285
:101D9000520182E390E09093550180935401109298
:101DA000570110925601109259011092580181E08A
:101DB00080933F018AE080935A018FB7F89425E021
:101DC00030E030934101209340018FBF61E084E017
:101DD0000E94720661E086E00E94720661E082E085
:101DE0000E94720661E085E00E94720660E084E075
:101DF0000E94180670E060E086E00E94090960E039
:101E000082E00E94180670E060E085E00E94090907
:101E100010926E01E0918601F091870182E080834B
:101E2000E0918201F09183011082E0918401F091B0
:101E3000850180E1808310928E01E0918A01F0910A
:101E40008B0186E08083E0918801F0918901808197
:101E500080618083E0918801F091890180818860B0
:101E60008083E0918801F09189018081806880837E
:101E7000E0918801F091890180818F7D808361E00C
:101E800089E00E94720661E08AE00E94720660E0CA
:101E90008BE00E94720660E087E00E94720660E0BC
:101EA00088E00E94720661E08CE00E94720660E0A9
:101EB0008DE00E94720660E08FE00E94720660E092
:101EC00080E10E947206C2E302E310E064E6A62EFF
:101ED000B12C74ED272E74E0372EE9E18E2E912C73
:101EE00086E791E00E941705892B09F46CC086E70C
:101EF00091E00E94F504D82F0E94700AEFECED0FDC
:101F0000EA3408F060C00E2E000CFF0BE657F04FCD
:101F10000C94E61631113B11421149115011571121
:101F20005E116511E30FE30FE30FE30FE30FE30F20
:101F3000E30FE30FE30F2210E30FE30FE30FD40FE0
:101F4000E30FE30FE30FE30FE30FE10FE30FE30F03
:101F5000E30FE30FE30F04100810E30FE30FE30FA9
:101F6000E30FE30FE30FE30FE30FE30FE30FE30FE1
:101F7000E30FE30F0B101010E30FE30FAD1012107F
:101F800000114310E30FE30F1F126C12B112F6128F
:101F90003B138413E30FE30FE30FE30FE30FE30FB0
:101FA00017126C111D12DC13809171018093750161
:101FB0008091700180937401C0937201C09373018A
:101FC00002C00E949C04E0916C01F0916D010190AF
:101FD000F081E02D8CE691E00995E0914601F091C9
:101FE00047010190F081E02D86E491E0099580E0C1
:101FF00090E0892B09F474CF0E942305882309F40B
:102000006FCF0E9400006CCF809171018195CECF7F
:102010000E946609D8CF61E089E00E941806D3CFFC
:1020200060E0FACF0E94900468EC70E080E090E0FD
:102030000E94B5090E949C046CEB72E080E090E085
:102040000E94B5090E949004BECF86E791E00E94ED
:10205000F504D82F0E94700AD335D9F4B4CFE11417
:10206000F10449F4009731F18130910581F58091B7
:102070007101819521C021E0E216F10441F500973C
:1020800031F50E949C0486E791E00E941705892B98
:10209000E1F60E94030C0E9487162B016B018FE072
:1020A0000E94EF057C0180E10E94EF0526E04216C8
:1020B0005104ACF68091710180937501809170019B
:1020C00080937401C0937201C0937301DCCF9201BD
:1020D000265031092A30310550F421E0E216F1048E
:1020E00031F48130910519F40E946609CCCF20E1CA
:1020F000421A510824E14216510438F4EA94EF28B8
:1021000011F6019709F0BFCFD5CF24E2C216D10452
:102110000CF4B9CFEA94EF2809F0B5CF019709F094
:10212000B2CFE2CF86E791E00E94F504D82F0E945B
:10213000700AD335C1F447CFEF2861F5019751F507
:1021400090917001809171018195809375019093B8
:102150007401C0937201C093730186E791E00E94FD
:102160001705892BF9F68BE00E94EF057C0187E0CB
:102170000E94EF056C0188E00E94EF05CA94CD280B
:1021800091F421E0E216F104B9F6892B19F40E94CA
:102190009C04E3CF8091710180937501809170015F
:1021A00080937401D6CF21E0E216F10429F4892B43
:1021B00071F30E946609D1CFEF28D9F70197C9F7CB
:1021C000809171018195E8CF86E791E00E94F50446
:1021D000D82F0E94700AD335C9F4F5CE009771F557
:1021E0000E94900468EE73E080E090E00E94B509E0
:1021F0000E949C0464EF71E080E090E00E94B509C9
:1022000086E791E00E941705892BF1F60E94030CE6
:102210000E9487167B018FE00E94EF056C0180E130
:102220000E94EF05C114D104C9F2CA94CD2841F728
:10223000009709F019C30E949C04E2CF019701F7AF
:1022400080917101819580937501809170018093D7
:102250007401C0937201C0937301D2CF019781F6CC
:10226000EACF24EF31E040E050E066E071E08AE040
:102270000E94A306A8CE24EF31E040E050E066E2E1
:1022800071E0F5CF24EF31E040E050E06AE471E026
:10229000EECF24EF31E040E050E06DE571E0E7CFB4
:1022A00024EF31E040E050E068E871E0E0CF24EF57
:1022B00031E040E050E068EB71E0D9CF24EF31E04D
:1022C00040E050E06EEE71E0D2CF24EF31E040E02C
:1022D00050E064E172E0CBCF0E94030C6B017C0103
:1022E000AC019B010E94C216882379F088E291E03C
:1022F0000E94630A85E291E00E94630A62E370E053
:1023000080E090E00E94B5095ECE26013701E89496
:1023100077F82FEF3FEF4FE75FE7C301B2010E946D
:10232000C21681110DC02FEF3FEF4FE75FE7C301EA
:10233000B2010E94481418161CF48CE291E0D8CF28
:102340002FEF3FEF4FE75FE4C701B6010E94BD16D4
:1023500018161CF480E391E0CBCF2FEF3FEF4FE74F
:102360005FECC701B6010E94481487FDF3CF20E05F
:1023700030E0A901C701B6010E94481487FF09C0D7
:102380006DE286E791E00E945905F7FAF094F7F8BC
:10239000F0942AE037ED43EA5BE3C701B6010E94FF
:1023A000A9152B013C010E948E166B017C010E9435
:1023B0004D149B01AC01C301B2010E94A8152B0171
:1023C0003C014AE0C701B6010E94810A6EE286E73D
:1023D00091E00E94590520E030E040E251E4C30161
:1023E000B2010E94AE142B013C010E948E166B01BB
:1023F000F12CE12C4AE0C701B6010E94810AC70115
:10240000B6010E944D149B01AC01C301B2010E94B0
:10241000A81520E030E040E251E40E94AE140E9492
:102420008E1690E080E04AE00E94810A63CF8FE040
:102430000E947E090E94C50A61CF80E1F9CF86E43F
:1024400091E00E945C0B1092490110924F01109292
:102450004E0110925101109250018CE990E00E94BF
:10246000EC167C0190934B0180934A01892B09F46F
:10247000AACD8EE490E00E94EC1690934D018093DB
:102480004C01892B29F410924B0110924A019BCDEB
:102490004CE950E066E871E0C7010E943F144EE449
:1024A00050E068E371E080914C0190914D010E94F1
:1024B0003F14309257012092560110925901109208
:1024C000580190925501809254018EE490E09093CF
:1024D00051018093500177CD86E491E00E945C0B1E
:1024E0001092490110924F0110924E011092510129
:1024F000109250011093550100935401109257010E
:102500001092560110925901109258018EE990E0F4
:102510000E94EC167C0190934B0180934A01892B19
:1025200009F451CD8FE490E00E94EC1690934D0198
:1025300080934C01892B09F4A6CF4EE950E061E766
:1025400072E0C7010E943F144FE450E062E272E083
:1025500080914C0190914D010E943F148FE490E0D6
:10256000B6CF86E491E00E945C0B10924901109274
:102570004F0110924E011092510110925001109390
:102580005501009354011092570110925601109278
:102590005901109258018CE290E00E94EC167C01E7
:1025A00090934B0180934A01892B09F40CCD86E16D
:1025B00090E00E94EC1690934D0180934C01892B82
:1025C00009F461CF4CE250E065E273E0C7010E947C
:1025D0003F1446E150E06FE073E080914C01909130
:1025E0004D010E943F1486E190E071CF86E491E0B6
:1025F0000E945C0B1092490110924F0110924E0103
:102600001092510110925001B0925501A0925401C4
:1026100010925701109256011092590110925801D0
:1026200082EA90E00E94EC167C0190934B0180932B
:102630004A01892B09F4C7CC81E590E00E94EC1691
:1026400090934D0180934C01892B09F41CCF42EAF1
:1026500050E062EA73E0C7010E943F1441E550E098
:1026600061E573E080914C0190914D010E943F140F
:1026700081E590E02CCF86E491E00E945C0B86E43B
:1026800091E00E945C0B1092490110924F01109250
:102690004E011092510110925001B0925501A0923A
:1026A0005401109257011092560110925901109244
:1026B000580180E890E00E94EC167C0190934B0159
:1026C00080934A01892B09F47ECC80E490E00E943B
:1026D000EC1690934D0180934C01892B09F4D3CED5
:1026E00040E850E064E874E0C7010E943F1440E411
:1026F00050E064E474E080914C0190914D010E949F
:102700003F1480E490E0E3CE86E491E00E945C0B0D
:102710001092490110924F0110924E0110925101F6
:1027200010925001B0925501A0925401109257019D
:1027300010925601109259011092580182E291E0D4
:102740000E94EC167C0190934B0180934A01892BE7
:1027500009F439CC81E990E00E94EC1690934D0188
:1027600080934C01892B09F48ECE42E251E065E959
:1027700075E0C7010E943F1441E950E064E075E054
:1027800080914C0190914D010E943F14E0914A01CB
:10279000F0914B019F012E5D3E4F2E173F0749F0F0
:1027A0008081918197FD019695958795819391936D
:1027B000F4CF81E990E08BCE86E491E00E945C0B3F
:1027C0001092490110924F0110924E011092510146
:1027D000109250011093550100935401109257012B
:1027E00010925601109259011092580180E491E024
:1027F0000E94EC167C0190934B0180934A01892B37
:1028000009F4E1CB80EA90E00E94EC1690934D0130
:1028100080934C01892B09F436CE40E451E067E502
:1028200077E0C7010E943F1440EA50E067EB76E092
:1028300080914C0190914D010E943F14E0914A011A
:10284000F0914B019F01205C3E4F2E173F0749F04E
:102850008081918197FD01969595879581939193BC
:10286000F4CF80EA90E033CE2BE0E216F1040CF4D2
:10287000F5CC019709F0C4CC80917101E4CCFB0147
:10288000DC0102C005900D9241505040D8F70895E8
:102890000E948A1408F481E00895E89409C097FB27
:1028A0003EF490958095709561957F4F8F4F9F4F27
:1028B0009923A9F0F92F96E9BB279395F69587956B
:1028C00077956795B795F111F8CFFAF4BB0F11F42E
:1028D00060FF1BC06F5F7F4F8F4F9F4F16C08823D5
:1028E00011F096E911C0772321F09EE8872F762F0B
:1028F00005C0662371F096E8862F70E060E02AF04C
:102900009A95660F771F881FDAF7880F9695879537
:1029100097F90895990F0008550FAA0BE0E8FEEF0C
:1029200016161706E807F907C0F012161306E40793
:10293000F50798F0621B730B840B950B39F40A268C
:1029400061F0232B242B252B21F408950A2609F46A
:10295000A140A6958FEF811D811D08950E94C1148D
:102960000C9432150E94241538F00E942B1520F08B
:10297000952311F00C941B150C94211511240C9423
:1029800066150E94431570F3959FC1F3950F50E0B3
:10299000551F629FF001729FBB27F00DB11D639F11
:1029A000AA27F00DB11DAA1F649F6627B00DA11DB7
:1029B000661F829F2227B00DA11D621F739FB00D5D
:1029C000A11D621F839FA00D611D221F749F3327CD
:1029D000A00D611D231F849F600D211D822F762F66
:1029E0006A2F11249F5750409AF0F1F088234AF043
:1029F000EE0FFF1FBB1F661F771F881F91505040AF
:102A0000A9F79E3F510580F00C941B150C94661598
:102A10005F3FE4F3983ED4F3869577956795B79535
:102A2000F795E7959F5FC1F7FE2B880F911D96954F
:102A3000879597F9089597F99F6780E870E060E0BF
:102A400008959FEF80EC089500240A941616170647
:102A500018060906089500240A941216130614068F
:102A600005060895092E0394000C11F4882352F0F2
:102A7000BB0F40F4BF2B11F460FF04C06F5F7F4FAA
:102A80008F4F9F4F089557FD9058440F551F59F091
:102A90005F3F71F04795880F97FB991F61F09F3F4B
:102AA00079F087950895121613061406551FF2CF74
:102AB0004695F1DF08C0161617061806991FF1CFC4
:102AC00086957105610508940895E894BB276627EB
:102AD0007727CB0197F90895A1E21A2EAA1BBB1BF9
:102AE000FD010DC0AA1FBB1FEE1FFF1FA217B307DA
:102AF000E407F50720F0A21BB30BE40BF50B661FF0
:102B0000771F881F991F1A9469F7609570958095B3
:102B100090959B01AC01BD01CF0108950E949915CC
:102B2000A59F900DB49F900DA49F800D911D112421
:102B30000895A29FB001B39FC001A39F700D811D96
:102B40001124911DB29F700D811D1124911D0895B6
:102B50005058BB27AA270E94C0150C9432150E941A
:102B6000241538F00E942B1520F039F49F3F19F4FA
:102B700026F40C9421150EF4E095E7FB0C941B153C
:102B8000E92F0E94431558F3BA17620773078407A9
:102B9000950720F079F4A6F50C9465150EF4E095F0
:102BA0000B2EBA2FA02D0B01B90190010C01CA0107
:102BB000A0011124FF27591B99F0593F50F4503EB2
:102BC00068F11A16F040A22F232F342F4427585FA4
:102BD000F3CF469537952795A795F0405395C9F7BC
:102BE0007EF41F16BA0B620B730B840BBAF0915074
:102BF000A1F0FF0FBB1F661F771F881FC2F70EC013
:102C0000BA0F621F731F841F48F4879577956795E5
:102C1000B795F7959E3F08F0B0CF9395880F08F0D1
:102C20009927EE0F9795879508950E9429160C9481
:102C300032150E942B1558F00E94241540F029F4FB
:102C40005F3F29F00C941B1551110C9466150C94E0
:102C500021150E94431568F39923B1F3552391F38D
:102C6000951B550BBB27AA2762177307840738F0FB
:102C70009F5F5F4F220F331F441FAA1FA9F335D058
:102C80000E2E3AF0E0E832D091505040E695001C0C
:102C9000CAF72BD0FE2F29D0660F771F881FBB1FC6
:102CA000261737074807AB07B0E809F0BB0B802DA4
:102CB000BF01FF2793585F4F3AF09E3F510578F0D0
:102CC0000C941B150C9466155F3FE4F3983ED4F307
:102CD000869577956795B795F7959F5FC9F7880FA4
:102CE000911D9695879597F90895E1E0660F771FF6
:102CF000881FBB1F621773078407BA0720F0621B87
:102D0000730B840BBA0BEE1F88F7E09508950E94B1
:102D10008E166894B1110C94661508950E944B1597
:102D200088F09F5798F0B92F9927B751B0F0E1F08C
:102D3000660F771F881F991F1AF0BA95C9F714C03C
:102D4000B13091F00E946515B1E008950C946515BD
:102D5000672F782F8827B85F39F0B93FCCF3869575
:102D600077956795B395D9F73EF4909580957095D2
:102D700061957F4F8F4F9F4F08950E948A1408F4EA
:102D80008FEF08950E948A14880B990B0895052EE1
:102D900097FB1EF400940E94DE1657FD07D00E9498
:102DA0006C1507FC03D04EF40C94DE16509540953C
:102DB000309521953F4F4F4F5F4F089590958095E7
:102DC000709561957F4F8F4F9F4F0895EE0FFF1FB6
:102DD0000590F491E02D09940F931F93CF93DF9307
:102DE0008230910510F482E090E0E0915B02F09176
:102DF0005C0230E020E0B0E0A0E0309799F42115CB
:102E0000310509F44AC0281B390B24303105D8F5A7
:102E10008A819B816115710589F1FB01938382830E
:102E2000FE0111C040815181028113814817590769
:102E3000E0F04817590799F4109761F012960C9337
:102E4000129713961C933296CF01DF91CF911F9169
:102E50000F91089500935B0210935C02F4CF21154B
:102E6000310551F04217530738F0A901DB019A01EF
:102E7000BD01DF01F801C1CFEF01F9CF90935C02F2
:102E800080935B02CDCFFE01E20FF31F81939193FC
:102E90002250310939832883D7CF209159023091AC
:102EA0005A02232B41F42091030130910401309305
:102EB0005A022093590220910101309102012115FB
:102EC000310541F42DB73EB74091050150910601FF
:102ED000241B350BE0915902F0915A02E217F307D7
:102EE000A0F42E1B3F0B2817390778F0AC014E5F7A
:102EF0005F4F2417350748F04E0F5F1F50935A025B
:102F000040935902819391939FCFF0E0E0E09CCFF2
:102F1000CF93DF930097E9F0FC013297138212827E
:102F2000A0915B02B0915C02ED0130E020E01097CF
:102F3000A1F420813181820F931F20915902309199
:102F40005A022817390709F061C0F0935A02E0933A
:102F50005902DF91CF910895EA01CE17DF07E8F516
:102F60004A815B819E0141155105B1F7E901FB835F
:102F7000EA8349915991C40FD51FEC17FD0761F4FD
:102F8000808191810296840F951FE901998388833E
:102F9000828193819B838A83F0E0E0E012968D9199
:102FA0009C9113970097B9F52D913C911197CD0104
:102FB0000296820F931F2091590230915A022817CE
:102FC000390739F6309751F510925C0210925B0286
:102FD000B0935A02A0935902BCCFD383C2834081DD
:102FE0005181840F951FC817D90761F44E5F5F4F59
:102FF00088819981480F591F518340838A819B8121
:10300000938382832115310509F0B0CFF0935C02E0
:10301000E0935B029ECFFD01DC01C0CF13821282E0
:06302000D7CFF894FFCFAA
:10302600FF00005D02800000000000E709000000CC
:1030360000680B000000005905A704E604A6051762
:1030460005F50409050D0A006E616E00696E6600DD
:043056006F7666002B
:00000001FF
