:020000040000FA
:100000000C94F3010C941B020C941B020C941B0225
:100010000C941B020C941B020C941B020C941B02EC
:100020000C94D2090C941B020C941B020C948709AB
:100030000C941B020C941B020C941B020C941B02CC
:100040000C943D090C941B020C940B090C94E508CC
:100050000C941B020C941B020C941B020C941B02AC
:100060000C941B020C941B020000000024002700CB
:100070002A0000000000250028002B0000000008D6
:10008000000201000003040700000000000000005F
:100090002A2A2A2A2A2A2A2A2A2A2A2A2A2A2A2AC0
:1000A0002A2A2A2A2A2A2A2A2A2A2A2A2A2A2A2AB0
:1000B0002A2A2A2A2A2A2A2A2A2A2A2A2A2A2A2AA0
:1000C0002A2A2A2A2A2A2A2A2A2A2A2A2A2A2A2A90
:1000D0002A2A2A2A2A2A2A2A2A2A2A2A2A2A2A2A80
:1000E0002A2A2A2A2A2A2A2A2A2A2A2A2A2A2A2A70
:1000F0002A2A005468616E6B7300206874747073F0
:100100003A2F2F6769746875622E636F6D2F417285
:100110006475696E6F2D495272656D6F74652F41FC
:10012000726475696E6F2D495272656D6F746523C7
:10013000636F6E76657274696E672D796F75722D57
:1001400032782D70726F6772616D2D746F2D7468C7
:10015000652D34782D76657273696F6E0041206766
:100160007569646520686F7720746F20636F6E76A1
:1001700065727420796F757220322E302070726F24
:100180006772616D20697320686572653A00206846
:10019000747470733A2F2F6769746875622E636F79
:1001A0006D2F41726475696E6F2D495272656D6F66
:1001B00074652F41726475696E6F2D495272656D59
:1001C0006F7465236578616D706C65732D666F72F1
:1001D0002D746869732D6C6962726172790054685C
:1001E00065206578616D706C65732061726520644F
:1001F0006F63756D656E74656420686572653A003D
:100200005374617274207769746820746865205330
:10021000696D706C655265636569766572206F7291
:100220002053696D706C6553656E646572206578E6
:10023000616D706C652E0020617661696C61626C25
:1002400065206174202246696C65203E20457861F6
:100250006D706C6573203E204578616D706C6573C0
:100260002066726F6D20437573746F6D204C6962E8
:10027000726172696573202F20495272656D6F74C7
:1002800065222E00506C6561736520757365206F63
:100290006E65206F6620746865206E657720636FD9
:1002A0006465206578616D706C65732066726F6D32
:1002B00020746865206C6962726172792C005468E0
:1002C00069732076657273696F6E206973206E6F33
:1002D000206C6F6E67657220737570706F727465D5
:1002E0006421004974207365656D732C2074686106
:1002F0007420796F7520617265207573696E67204F
:1003000061206F6C642076657273696F6E20322E87
:100310003020636F6465202F206578616D706C6597
:100320002E005468616E6B20796F7520666F7220A5
:100330007573696E672074686520495272656D6FC8
:100340007465206C69627261727921002A2A2A2AF6
:100350002A2A2A2A2A2A2A2A2A2A2A2A2A2A2A2AFD
:100360002A2A2A2A2A2A2A2A2A2A2A2A2A2A2A2AED
:100370002A2A2A2A2A2A2A2A2A2A2A2A2A2A2A2ADD
:100380002A2A2A2A2A2A2A2A2A2A2A2A2A2A2A2ACD
:100390002A2A2A2A2A2A2A2A2A2A2A2A2A2A2A2ABD
:1003A0002A2A2A2A2A2A2A2A2A2A2A2A2A2A000001
:1003B00000000023002600290004040404040404AF
:1003C0000402020202020203030303030301020404
:1003D00008102040800102040810200102040810C7
:1003E0002000E10A1A1411241FBECFEFD8E0DEBFAF
:1003F000CDBF11E0A0E0B1E0EEEEF2E302C0059067
:100400000D92AA3EB107D9F724E0AAEEB1E001C0EF
:100410001D92A337B207E1F711E0C2EFD1E004C0AB
:100420002197FE010E946B17C13FD107C9F70E94B7
:10043000530B0C946A190C9400000F931F93CF93E5
:10044000DF93E0913004F0913104409132028285D3
:1004500010E0481708F064C0142F117000913102A9
:1004600001114FC0842F90E0880F991FE80FF91FEA
:100470000384F485E02D2CEE3FEF112311F024E1ED
:1004800030E0C0912F02D09130022C0F3D1FC901E6
:1004900063E470E00E944317E617F70760F0C901B4
:1004A00068E270E00E9443176F5F7F4F81E090E049
:1004B0006E177F0710F52C0F3D1FC90163E470E034
:1004C0000E944317E617F70750F0C90168E270E091
:1004D0000E9443176F5F7F4F6E177F0760F42C0FEA
:1004E0003D1FC90163E470E00E944317E617F70758
:1004F000E8F41FEF15C082E090E090932E02809305
:100500002D020F5F0093310280912D0290912E02F7
:100510000817190628F0109231024F5F40933202FB
:10052000812FDF91CF911F910F910895C90168E24A
:1005300070E00E9443176F5F7F4F6E177F07C8F20E
:1005400083E090E0DACFCF93DF93482FE09130043F
:10055000F091310471969B012C5E3F4FC90163E419
:1005600070E00E944317EB01C90168E270E00E944D
:1005700043176F5F7F4F80E090E0DC012081318185
:10058000880F991FAA1FBB1F34962C173D0720F018
:100590006217730708F08160415081F7809315045A
:1005A00090931604A0931704B093180481E0DF9190
:1005B000CF9108950895AF92BF92CF92DF92EF92BC
:1005C000FF920F931F93CF93DF936C017B018B01FD
:1005D000040F151FEB015E01AE18BF08C017D1074D
:1005E00059F06991D601ED91FC910190F081E02DD7
:1005F000C6010995892B79F7C501DF91CF911F912C
:100600000F91FF90EF90DF90CF90BF90AF90089543
:10061000FC01538D448D252F30E0842F90E0821B08
:10062000930B541710F0CF96089501970895FC018D
:10063000918D828D981761F0A28DAE0FBF2FB11DE5
:100640005D968C91928D9F5F9F73928F90E008953D
:100650008FEF9FEF08952FB7F89480912902909122
:100660002A02A0912B02B0912C022FBF80933B0253
:1006700090933C02A0933D02B0933E0283E392E04C
:100680000E94170397FF26C02FB7F8948091290284
:1006900090912A02A0912B02B0912C022FBF409181
:1006A0003B0250913C0260913D0270913E02841BDE
:1006B000950BA60BB70B4091370250913802609111
:1006C000390270913A0284179507A607B707B0F26E
:1006D0008FEF9FEF0895FC01918D828D981731F077
:1006E000828DE80FF11D858D90E008958FEF9FEFCB
:1006F0000895FC01918D228D892F90E0805C9F4FA1
:10070000821B91098F739927089583E392E00E94D9
:10071000790321E0892B09F420E0822F089580E0FD
:1007200090E0892B29F00E94850381110C94000030
:100730000895FC01A48DA80FB92FB11DA35ABF4F76
:100740002C91848D90E001968F739927848FA689D0
:10075000B7892C93A089B1898C91837080648C9324
:10076000938D848D981306C00288F389E02D8081D3
:100770008F7D80830895EF92FF920F931F93CF9305
:10078000DF93EC0181E0888F9B8D8C8D98131AC0CC
:10079000E889F989808185FF15C09FB7F894EE89B3
:1007A000FF896083E889F989808183708064808310
:1007B0009FBF81E090E0DF91CF911F910F91FF905B
:1007C000EF900895F62E0B8D10E00F5F1F4F0F7303
:1007D0001127E02E8C8D8E110CC00FB607FCFACFBE
:1007E000E889F989808185FFF5CFCE010E949903C0
:1007F000F1CFEB8DEC0FFD2FF11DE35AFF4FF0828F
:100800009FB7F8940B8FEA89FB8980818062CFCFF4
:10081000CF93DF93EC01888D8823B9F0AA89BB8937
:10082000E889F9898C9185FD03C0808186FD0DC022
:100830000FB607FCF7CF8C9185FFF2CF808185FF43
:10084000EDCFCE010E949903E9CFDF91CF910895BA
:10085000833081F028F4813099F08230A9F0089536
:100860008730A9F08830C9F08430B1F480918000DD
:100870008F7D03C0809180008F77809380000895E2
:1008800084B58F7784BD089584B58F7DFBCF80912B
:10089000B0008F778093B00008958091B0008F7D75
:1008A000F9CFCF93DF93282F30E0F901E458FF4FC1
:1008B0008491F901E353FC4FD491F901E754FC4FC3
:1008C000C491CC23A1F081110E942804EC2FF0E008
:1008D000EE0FFF1FE155FC4FA591B491EC91ED2374
:1008E00081E090E009F480E0DF91CF91089580E00D
:1008F00090E0FACF1F93CF93DF93282F30E0F901D8
:10090000E458FF4F8491F901E353FC4FD491F9016E
:10091000E754FC4FC491CC23A9F0162F81110E94FB
:100920002804EC2FF0E0EE0FFF1FEE58FF4FA591CB
:10093000B4918FB7F894EC91111108C0D095DE23D3
:10094000DC938FBFDF91CF911F910895DE2BF8CFFD
:10095000CF93DF9390E0FC01E353FC4F2491875445
:100960009C4FFC0184918823D1F090E0880F991F5F
:10097000FC01E859FF4FA591B491FC01EE58FF4FDF
:10098000C591D49161110EC09FB7F8948C91E22F5C
:10099000E0958E238C932881E223E8839FBFDF912B
:1009A000CF9108958FB7F894EC91E22BEC938FBF21
:1009B000F6CFA6E1B3E011968C931197282F30E083
:1009C000F901E353FC4FE4911496EC931497F90169
:1009D000E754FC4FE491F0E0EE0FFF1FE155FC4FB0
:1009E0002591349113963C932E93129760E00C94CA
:1009F000A8041F93CF93DF93182FEB0161E00E94AF
:100A0000A804209739F460E0812FDF91CF911F91E6
:100A10000C947A04CF3FD10511F461E0F5CFE12FBA
:100A2000F0E0E458FF4FE491E33031F140F4E1307D
:100A3000B1F0E230E1F0C038D1057CF7E4CFE73027
:100A400029F1E83059F1E430B1F7809180008062FB
:100A500080938000D0938B00C0938A0004C084B53B
:100A6000806884BDC7BDDF91CF911F91089584B583
:100A7000806284BDC8BDF7CF80918000806880937C
:100A80008000D0938900C0938800EDCF8091B000A2
:100A900080688093B000C093B300E5CF8091B00030
:100AA00080628093B000C093B400DDCF8E5080642C
:100AB00080937C0080917A00806480937A0080919A
:100AC0007A0086FDFCCF809178009091790008959E
:100AD0003FB7F8948091EB019091EC01A091ED016A
:100AE000B091EE0126B5A89B05C02F3F19F00196E5
:100AF000A11DB11D3FBFBA2FA92F982F8827BC0178
:100B0000CD01620F711D811D911D42E0660F771F9F
:100B1000881F991F4A95D1F708958F929F92AF929F
:100B2000BF92CF92DF92EF92FF926B017C010E9405
:100B300068054B015C01C114D104E104F104B9F072
:100B40000E946805681979098A099B09683E734003
:100B50008105910580F321E0C21AD108E108F1086E
:100B600088EE880E83E0981EA11CB11CE4CFFF9094
:100B7000EF90DF90CF90BF90AF909F908F900895AF
:100B8000CF93DF9360E083E10E947A0460E082E12A
:100B90000E947A04C7E0D0E0CE010197F1F761E04E
:100BA00083E10E947A04CE010197F1F761E082E1CE
:100BB0000E947A042197F1F7DF91CF910895EF9287
:100BC000FF920F931F93CF93DF93082FC8E0D0E0DD
:100BD00011E087E0E82EF12C802F812361E009F4F9
:100BE00060E082E10E947A04C7010197F1F761E0B9
:100BF00083E10E947A04C7010197F1F760E083E185
:100C00000E947A04110F219739F7DF91CF911F913C
:100C10000F91FF90EF900895CF93DF9361E082E111
:100C20000E947A0461E083E10E947A04C7E0D0E088
:100C3000CE010197F1F760E082E10E947A042197EA
:100C4000F1F760E083E1DF91CF910C947A040F9388
:100C50001F93CF93DF938C010E940C0680EC0E94BF
:100C6000DF05E801005F1F4F89910E94DF05C01773
:100C7000D107D1F70E94C0050E940C068AE80E94A5
:100C8000DF05DF91CF911F910F910C94C00560E0BB
:100C900082E00E947A0470E060E085E00E94F9043E
:100CA00060E084E00E947A0470E060E086E00E94E8
:100CB000F90480E491E00C94270660E082E00E9451
:100CC0007A046091C00170E085E00E94F90461E05F
:100CD00084E00E947A048091C1016FEF70E0681B8C
:100CE000710986E00E94F90480E391E00C942706E4
:100CF00061E082E00E947A048091C0016FEF70E0B1
:100D0000681B710985E00E94F90460E084E00E949C
:100D10007A046091C10170E086E00E94F90480E2EB
:100D200091E00C942706CF93DF9361E082E00E946C
:100D30007A048091C001CFEFD0E0BE01681B710939
:100D400085E00E94F90461E084E00E947A048091C9
:100D5000C101BE01681B710986E00E94F90480E1AF
:100D600091E0DF91CF910C94270660E082E00E9431
:100D70007A046091C00170E085E00E94F90460E0AF
:100D800084E00E947A046091C10170E086E00E94D4
:100D9000F90480E091E00C942706CF92DF92EF9265
:100DA000FF920F931F93CF93DF932CED35E0DC017F
:100DB0000E94711724EB30E040E050E00E94B4152F
:100DC000DA01C9018C509E4FAF4FBF4FEC01CC0FE1
:100DD000DD1FCC0FDD1F259768E17CEF0E945717C0
:100DE0006B0184E1C80ED11C0D2C000CEE08FF082D
:100DF00005E010E061E08AE00E947A04CE010197EC
:100E0000F1F760E08AE00E947A04C701B6010E940F
:100E10008D050150110971F7DF91CF911F910F914D
:100E2000FF90EF90DF90CF900895FC01019000209B
:100E3000E9F73197AF01481B590BBC0183E392E0FE
:100E40000C94DB028AED91E00C9415070F931F932D
:100E5000CF93DF938C01D0E0C0E0F801EC0FFD1FD1
:100E60006491662341F083E392E00E94BB03892BE7
:100E700011F02196F2CF0E9422078C0F9D1FDF9167
:100E8000CF911F910F9108958F929F92AF92BF9231
:100E90000F931F93CF93DF93CDB7DEB7A1970FB614
:100EA000F894DEBF0FBECDBF19A2423008F44AE06D
:100EB0008E010F5D1F4F842E912CB12CA12CA5010A
:100EC00094010E949215E62FB901CA01EA30F4F4A8
:100ED000E05DD801EE938D01232B242B252B79F790
:100EE00090E080E0109719F0CD010E941507A196BF
:100EF0000FB6F894DEBF0FBECDBFDF91CF911F912B
:100F00000F91BF90AF909F908F900895E95CE1CFD3
:100F1000CF92DF92EF92FF92CF93DF936C01990F04
:100F2000EE08FF08F7FE1DC06DE283E392E00E9429
:100F3000BB03EC0166277727CB016C197D098E096D
:100F40009F094AE00E944407C80FD91F0E94220748
:100F50008C0F9D1FDF91CF91FF90EF90DF90CF908E
:100F600008954AE0C701B6010E944407EC01EECFA4
:100F70000F931F93CF93DF938C01EB01FC018081D2
:100F800091810097E1F06881798161157105A9F07F
:100F9000428153812C813D814217530770F00E949A
:100FA00063198C819D81F801958384831D821C8245
:100FB000DF91CF911F910F9108950E94141888819D
:100FC0009981F801918380838A819B8193838283B5
:100FD0008C819D8195838483198218821B821A8259
:100FE000E5CFFC0180819181009711F00C941418D9
:100FF00008950F931F93CF93DF93EC01888199811C
:10100000009759F02A813B812617370730F081E09D
:10101000DF91CF911F910F9108958B016F5F7F4FEB
:101020000E949D18009759F0998388831B830A8337
:101030002C813D81232B59F7FC011082E8CF80E001
:10104000E7CFEF92FF920F931F93CF93DF93EC01C3
:101050007B018A01BA010E94F90728813981811137
:1010600014C02115310519F0C9010E941418198204
:1010700018821D821C821B821A82CE01DF91CF91C1
:101080001F910F91FF90EF9008951D830C83B7017E
:10109000C9010E946319F1CFEF92FF920F931F9342
:1010A000CF93DF9300D0CDB7DEB78C01FC01118266
:1010B0001082138212821582148250E040E06CED9F
:1010C00071E00E9421080E942B0397FD21C083320A
:1010D0009105F1F089831A82F801E480F580FFEF31
:1010E000EF1AFF0AB701C8010E94F907882359F3D4
:1010F000F8012081318184819581BE016F5F7F4F2E
:10110000820F931F0E946319F801F582E482DBCFFE
:10111000C8010F900F90DF91CF911F910F91FF9019
:10112000EF900895CF92DF92EF92FF920F931F936B
:1011300060E08CE00E947A0483E090E00197F1F790
:1011400061E08CE00E947A0483E290E00197F1F77D
:1011500060E08CE00E947A04EAEDF3E06491E6EC52
:10116000F3E0E491F0E0EE0FFF1FE155FC4F8591B5
:10117000949100E412E42FE030E0462F0E949C0A94
:101180006B017C01C114D104E104F10439F08FEF4B
:10119000C81AD80AE80AF80A8FE0F8226AE070E074
:1011A00080E090E00E948D05C701B6010E946314A3
:1011B0002DEC3CEC48E652E40E9491161F910F91F1
:1011C000FF90EF90DF90CF9008951F920F920FB68F
:1011D0000F9211242F933F934F935F936F937F93BD
:1011E0008F939F93AF93BF93EF93FF9383E392E02B
:1011F0000E949903FF91EF91BF91AF919F918F91C1
:101200007F916F915F914F913F912F910F900FBE02
:101210000F901F9018951F920F920FB60F921124E6
:101220002F938F939F93EF93FF93E0914302F0915D
:1012300044028081E0914902F0914A0282FD1BC084
:10124000908180914C028F5F8F7320914D028217A5
:1012500041F0E0914C02F0E0ED5CFD4F958F809302
:101260004C02FF91EF919F918F912F910F900FBEA4
:101270000F901F9018958081F4CF1F920F920FB698
:101280000F9211242F933F938F939F93AF93BF930C
:101290008091290290912A02A0912B02B0912C02F8
:1012A0003091EA0123E0230F2D3758F50196A11D57
:1012B000B11D2093EA018093290290932A02A09302
:1012C0002B02B0932C028091EB019091EC01A09144
:1012D000ED01B091EE010196A11DB11D8093EB01CE
:1012E0009093EC01A093ED01B093EE01BF91AF910B
:1012F0009F918F913F912F910F900FBE0F901F9054
:10130000189526E8230F0296A11DB11DD2CF1F927A
:101310000F920FB60F9211248F939F938091F60135
:101320009091F701892B49F08091F6019091F70196
:1013300001979093F7018093F6018091F0019091CD
:10134000F101892B49F08091F0019091F101019711
:101350009093F1018093F0018091F2019091F3015B
:10136000892B49F08091F2019091F30101979093BC
:10137000F3018093F2018091F4019091F501892BA2
:1013800049F08091F4019091F50101979093F50156
:101390008093F40178949F918F910F900FBE0F90DE
:1013A0001F9018951F920F920FB60F9211242F9332
:1013B0003F934F935F936F937F938F939F93AF93DD
:1013C000BF93CF93EF93FF93E0911803F09119032C
:1013D000C08180911A03C82380911B0390911C0344
:1013E000019649F080911B0390911C030196909304
:1013F0001C0380931B038091160381111DC0C11132
:101400006EC080911B0390911C038536910578F086
:1014100010921F0380911B0390911C039093220351
:101420008093210381E08093200380931603109220
:101430001C0310921B0353C0809116038130A9F442
:10144000CC2309F44CC0E09120038E0F809320033D
:1014500080911B0390911C03F0E0EE0FFF1FEA5EEA
:10146000FC4F9487838782E0E0CF8091160382301F
:1014700009F053C0C11122C0E091200381E0E037A0
:1014800068F080931F0383E080931603E0911D03AF
:10149000F0911E03309759F20995C9CF8E0F8093B2
:1014A000200380911B0390911C03F0E0EE0FFF1FBF
:1014B000EA5EFC4F9487838781E0B7CF80911B035E
:1014C00090911C038536910550F083E080931603BC
:1014D000E0911D03F0911E03309709F0099580916A
:1014E0003E04813041F480913D04C1111DC061E092
:1014F00081111DC02D9AFF91EF91CF91BF91AF91B6
:101500009F918F917F916F915F914F913F912F911B
:101510000F900FBE0F901F90189580911603833087
:10152000F1F6C111DCCF83CF882321F060E00E9467
:101530007A04E1CF2D98DFCFCF92DF92EF92FF9226
:101540000F931F93E82FF92F05C0015011092109AE
:10155000310961F1908196239417B9F305C00150C8
:1015600011092109310911F1908196239413F7CFC4
:10157000C12CD12CE12CF12C0AC08FEFC81AD80A4B
:10158000E80AF80A0C151D052E053F0579F0808143
:101590008623841791F36C2D7D2D8E2D9F2D1F9109
:1015A0000F91FF90EF90DF90CF90089560E070E092
:1015B00080E090E01F910F91FF90EF90DF90CF902F
:1015C0000895CF93DF93E3E3F2E01382128288EE73
:1015D00093E0A0E0B0E084839583A683B7838CEC8E
:1015E00091E09183808385EC90E09587848784ECFB
:1015F00090E09787868780EC90E0918B808B81ECE0
:1016000090E0938B828B82EC90E0958B848B86ECC0
:1016100090E0978B868B118E128E138E148EE0EDD8
:10162000F2E01682178210861186128613861486BF
:10163000158616861786108A118A128A138A148ACA
:10164000158AC6E1D3E0D0936304C093620480E0BE
:101650000E94D90410923D04D0933104C093300409
:1016600083E00E94D904E7E0F4E011821082138243
:1016700012821582148250E040E06CED71E0CF01DF
:101680000E942108E1E0F4E01182108213821282AC
:101690001582148250E040E06CED71E0CF01DF91E3
:1016A000CF910C942108CF93DF9300D000D000D0CD
:1016B000CDB7DEB7789484B5826084BD84B581608F
:1016C00084BD85B5826085BD85B5816085BD80910D
:1016D0006E00816080936E00109281008091810085
:1016E000826080938100809181008160809381007D
:1016F000809180008160809380008091B10084603F
:101700008093B1008091B00081608093B00080919F
:101710007A00846080937A0080917A00826080935E
:101720007A0080917A00816080937A0080917A00BB
:10173000806880937A001092C1008091EF0181113E
:101740002FC01092F1011092F0011092F30110924B
:10175000F2011092F5011092F4011092F70110922B
:10176000F6019FB7F89410928000109281002EE34A
:1017700030E0309389002093880080918100886058
:1017800080938100809181008460809381008091AA
:101790006F00826080936F009FBF81E08093EF01B4
:1017A0008FB7F89420EA3FE03093F3012093F201E1
:1017B0008FBFE0914302F091440282E08083E09188
:1017C0003F02F09140021082E0914102F09142020A
:1017D0009FEC908310924B02E0914702F0914802F7
:1017E00096E09083E0914502F091460290819061ED
:1017F0009083E0914502F091460290819860908339
:10180000E0914502F0914602908190689083E091CA
:101810004502F091460290819F7D90838093B000B5
:101820008093B10084E68093B3008093B40010925B
:10183000B20080911603833011F41092160384E0F5
:101840008093700061E083E10E94A80461E082E17E
:101850000E94A80488E192E00E94270661E084E0EB
:101860000E94A80461E086E00E94A80461E082E092
:101870000E94A80461E085E00E94A80460E08BE07B
:101880000E94A80460E087E00E94A80460E088E06D
:101890000E94A80461E08AE00E94A80460E08FE052
:1018A0000E94A80460E080E10E94A80461E08CE04E
:1018B0000E94A80460E08DE00E94A8048AE590E000
:1018C0000E94CD068091F2019091F301892B11F0D5
:1018D0000000F8CF80E591E00E94270644E0242E26
:1018E000312C44244A94542C320111E083E392E0D9
:1018F0000E947903892B09F455C083E392E00E948A
:10190000170380932802682F83E392E00E94BB03B1
:101910000E942207E0912802E254E93308F042C015
:101920000E2E000CFF0BE956F34F0C946B17910D24
:10193000D20CD20CD20CD00CD20CD20CD20CD20CB9
:10194000D20C940DD20CD20CD20CD20CD20C970D1E
:101950009A0DD20CD20CD20CD20CD20CD20CD20CCE
:10196000D20CD20CD20CD20CD20CD20CD20CD20C87
:10197000D20CD20C9D0DEC0D2E0EA90EFE0ED20C2B
:10198000980F9D0FA00FA30FA60FA90FD20CD20C7A
:10199000D20CD20C380F6A0FD20CD20CD20CAC0F76
:1019A0000E94930680912802883709F06AC30E943A
:1019B00092084B015C01AC019B010E943E178823F9
:1019C00009F4CDC28DED91E00E9415070E94220717
:1019D00062E370E080E090E00E948D05809101025A
:1019E000811140C08CE493E00E94260782E293E0DC
:1019F0000E94260783EE92E00E9426078EEB92E07B
:101A00000E94260784E892E00E94260787E392E07E
:101A10000E9426070E94220780E092E00E9426078B
:101A20000E9422078EED91E00E9426078EE891E049
:101A30000E9426078DE591E00E9426078AEF90E03C
:101A40000E9426070E94220783EF90E00E9426074B
:101A500080E990E00E9426070E9422070E94220748
:101A60001093010280911603833009F076C481E25D
:101A700093E090931302809312028091200380934D
:101A8000140290911F03992321F010921F031092CA
:101A9000200390911F039093150210920A02109256
:101AA0000B0210920C0210920D0290E890932F04FA
:101AB0002091230330912403265831092C35310518
:101AC00090F4843009F0F0C28091250390912603B0
:101AD0008197489740F480912703909128030897B5
:101AE000089708F41DC3809114028A3108F44DC38D
:101AF000E0911202F0911302208131812A303105E8
:101B000008F022C310920E0240920A0250920B0279
:101B100060920C0270920D0210932F0487E190E006
:101B20000EC30E94B5063ECF0E9478063BCF0E94AE
:101B30005D0638CF0E94470635CF10920002809193
:101B4000000281112FCF8BE00E9451047C01909301
:101B5000FB018093FA0187E00E9451045C0190939D
:101B6000F9018093F80188E00E945104AA94AB28FF
:101B700029F521E0E216F104B9F4892BE1F40E9481
:101B8000780683E392E00E947903892BC1F283E314
:101B900092E00E94170380932802833581F6109308
:101BA00000020E944706CBCFEF2829F4019719F4D1
:101BB0000E945D06E6CF0E949306E3CF21E0E21685
:101BC000F10429F4892BD9F20E944706DACFEF28D5
:101BD000D9F70197C9F7ECCF10920002809100026B
:101BE0008111E0CE8BE00E9451045C019093FB01D7
:101BF0008093FA0187E00E9451047C019093F901DF
:101C00008093F80188E00E945104AB2821F4EF286A
:101C100011F4892B81F00E94B5066CEB72E080E034
:101C200090E00E948D050E94780660E273E080E0FB
:101C300090E00E948D0583E392E00E947903892B56
:101C400069F283E392E00E941703809328028335B0
:101C500029F6109300020E944706C0CF109200029E
:101C60008091000281119ECE0E9492080E9403176B
:101C7000643171050CF06AC00E94470664EF71E0A0
:101C800080E090E00E948D0584EB90E00E94CD06FC
:101C900064EF71E080E090E00E948D050E94920860
:101CA0000E9403177093FF016093FE0164E670E0E9
:101CB00080E090E00E948D0590E080E00E94CD06DB
:101CC00064EF71E080E090E00E948D050E94920830
:101CD0000E9403177B017093FD016093FC0164E691
:101CE00070E080E090E00E948D058AE590E00E941F
:101CF000CD0664EF71E080E090E00E948D05809158
:101D0000FE019091FF01E816F906ECF40E947806B6
:101D10006CEB72E080E090E00E948D0583E392E03E
:101D20000E947903892B09F49BCF83E392E00E9400
:101D3000170380932802833509F092CF1093000295
:101D40000E9447068DCF0E945D06E2CF0E94930657
:101D5000E5CF1092000280910002811123CE0E94F3
:101D600092084B015C0120E030E040EA51E40E941F
:101D7000391787FD1FC020E030E040E752E4C5017D
:101D8000B4010E945E141816ACF00E94930683E31F
:101D900092E00E947903892BF1F283E392E00E94A2
:101DA0001703809328028335B1F6109300020E9436
:101DB0004706D1CF20E030E040E251E4C501B40154
:101DC0000E94391718166CF420E030E040EA51E424
:101DD000C501B4010E945E1487FF03C00E9447063C
:101DE000D6CF20E030E040E251E4C501B4010E94CA
:101DF0005E1418169CF30E94B506C9CF109200021B
:101E0000809100028111CECD8FE00E9456057C01A9
:101E1000909317028093160280E10E9456052BE8EA
:101E2000E21622E0F206DCF08B389240ACF00E9421
:101E3000930683E392E00E947903892B09F383E3FD
:101E400092E00E941703809328028335C9F610930D
:101E500000020E944706D4CF0E947806EACF8B3852
:101E600092401CF00E945D06E4CF0E944706E1CF3D
:101E7000CE0101960E944C08BE016F5F7F4F87E044
:101E800094E00E94B807CE0101960E94F1071A82E1
:101E900019821C821B821E821D8260910704709130
:101EA00008046115710541F040910B0450910C0438
:101EB000CE0101960E94210889819A8160E00097F5
:101EC00011F00E9422146093C101CE0101960E947C
:101ED000F10768CDCE0101960E944C08BE016F5FEC
:101EE0007F4F81E094E00E94B807CE0101960E94E6
:101EF000F1071A8219821C821B821E821D82609148
:101F00000104709102046115710541F040910504CE
:101F100050910604CE0101960E94210889819A8180
:101F200060E0009711F00E9422146093C001CDCFB1
:101F300080EB91E00E94270635CD80EA91E0FACF50
:101F400080E991E0F7CF80E891E0F4CF80E791E07D
:101F5000F1CF80E691E0EECF88E192E0EBCF750122
:101F60006401E894F7F82FEF3FEF4FE75FE7C70111
:101F7000B6010E943E1781110DC02FEF3FEF4FE7D2
:101F80005FE7C701B6010E945E1418161CF481EECB
:101F900091E01ACD2FEF3FEF4FE75FE4C501B401A9
:101FA0000E94391718161CF485EE91E00DCD2FEF25
:101FB0003FEF4FE75FECC501B4010E945E1487FD5F
:101FC000F3CF20E030E0A901C501B4010E945E1406
:101FD00087FF09C06DE283E392E00E94BB03B7FA7A
:101FE000B094B7F8B0942AE037ED43EA5BE3C5015B
:101FF000B4010E9425166B017C010E940A174B0157
:102000005C010E9463149B01AC01C701B6010E94F0
:1020100024166B017C014AE0C501B4010E9444070B
:102020006EE283E392E00E94BB0320E030E040E2F6
:1020300051E4C701B6010E94C4146B017C010E94E7
:102040000A174B01B12CA12C4AE0C501B4010E9432
:102050004407C501B4010E9463149B01AC01C70190
:10206000B6010E94241620E030E040E251E40E94D4
:10207000C4140E940A1790E080E04AE00E944407DE
:10208000A5CC873751F48FE00E9456059093170234
:10209000809316020E9488079BCC893709F09ECC5A
:1020A00080E10E945605F6CF843409F01CCD809162
:1020B000250390912603825491098F9708F013CD40
:1020C00040E956E060E372E080E20E94A3028823C8
:1020D00009F409CDE0911202F0911302EA57FF4F83
:1020E000808191810897089708F0FDCC80911504B4
:1020F00090911604A0911704B091180480930A02DD
:1021000090930B02A0930C02B0930D0280E2809397
:102110000E0288E090E090930702809306020FC0C1
:1021200010920E0240920A0250920B0260920C0230
:1021300070920D0281E880932F0488E090E09093E4
:102140000E0480930D04CEC02281338124523109C4
:102150002A313105D0F443E050E060E0812C912C2D
:10216000540190E04817590708F054C02481358184
:10217000285031092830310540F426813781223139
:10218000310590F120323105D0F11093320289E708
:1021900093E09093300280932F02109231020E94BC
:1021A0001D02813009F0E6C0812C912C540100E021
:1021B000E0913004F09131049285809132028917C8
:1021C00008F03FC00E941D02F82E0E941D02F1106F
:1021D0002EC0813009F0CEC0880C991CAA1CBB1CF3
:1021E000689480F80F5FE4CF2930310570F2213117
:1021F000310558F6880C991CAA1CBB1C06C0880C1B
:10220000991CAA1CBB1C689480F86F5F4E5F5F4FDF
:102210003496A8CF60930E0280920A0290920B022D
:10222000A0920C02B0920D0287E190E074CF91E091
:10223000F912A0C081119EC0880C991CAA1CBB1C5D
:10224000D1CF802F90E090932E0480932D04809224
:10225000150490921604A0921704B0921804882DC9
:102260008F7390E090931204809311049401A6E080
:1022700036952795AA95E1F72F71332730931004EF
:1022800020930F04940122273071232B31F4805CBA
:102290009F4F909312048093110480E893FC88E888
:1022A00080932F0481E190E090930E0480930D04BD
:1022B000838594858F3C994028F480912F04816018
:1022C00080932F0400930E0280920A0290920B02D8
:1022D000A0920C02B0920D0281E190E0909307026F
:1022E0008093060260910A0270910B0280910C02A9
:1022F00090910D0260930202709303028093040296
:102300009093050240E10E9444070E9422078091B9
:10231000020290910302A0910402B09105028D394E
:1023200022E692072FEFA207B10509F477C20CF05D
:1023300065C28D3F22E092072FEFA207B10509F495
:1023400076C28D3D9242AF4FB10509F46DC28091C6
:102350001603833011F41092160380E090E0892B6D
:1023600009F4C4CA0E948503882309F4BECA0E94E6
:102370000000BBCAE0913004F09131048585968558
:1023800088974D9708F046C0878590890C970B97E2
:1023900008F040C083E0809332028CEB91E0909390
:1023A000300280932F02109231020E941D02813070
:1023B00089F50E941D0281112DC0812C912C5401A0
:1023C00000E0E0913004F091310492858091320276
:1023D000891708F06CC00E941D02E82E0330B1F08E
:1023E0000E941D02F82E033021F40E941D02F812F3
:1023F00011C081E0E81251C0F1100CC0880C991C8A
:10240000AA1CBB1C689480F80F5FDBCF0E941D02E2
:10241000E81631F3809114028C3309F0A2C0E091E8
:102420001202F091130282819381865891098D35B1
:10243000910508F096C084819581CE978C9708F01D
:1024400090C04CE256E064EF71E08CE10E94A30280
:10245000882309F486C0E0911202F0911302EA5831
:10246000FF4F808191810797089708F07AC080918B
:10247000150490911604A0911704B091180480934C
:102480000A0290930B02A0930C02B0930D028CE110
:1024900080930E0286E090E03ECEE110BBCF91E04B
:1024A000F912B8CF880C991CAA1CBB1CADCF802F89
:1024B00090E090932E0480932D04809215049092C6
:1024C0001604A0921704B0921804282D30E0892D2C
:1024D0000432A0F580E880932F04309312042093F7
:1024E0001104892D90E09093100480930F04A0FEB6
:1024F00003C088E880932F04053128F080912F04D1
:10250000806180932F048385948583379A4028F4D3
:1025100080912F04816080932F0482E190E090935A
:102520000E0480930D0400930E0280920A02909292
:102530000B02A0920C02B0920D02D0CE90E89093C4
:102540002F0497FE03C098E890932F043093120451
:10255000209311048F7790E09093100480930F04E0
:10256000D2CF40911402E0911202F09113028281C5
:102570009381423289F49C0128503109273031057A
:1025800058F4DF01AE5BBF4F2D913C9128503109CB
:102590002730310508F45EC08D57910987359105C4
:1025A00008F467C0E0911202F091130282819381D6
:1025B000835491098F9780F480911402843009F03C
:1025C0008DC0848195818197489730F48681978169
:1025D0000897089708F4ACC0E0913004F0913104FA
:1025E0008285823209F0B3C0E0911202F0911302A9
:1025F000828193810497059708F0A9C08481958111
:102600000B970A9708F0A3C04CE157E064E071E033
:102610008FE00E94A302882309F499C080911504D9
:1026200090911604A0911704B091180480930A02A7
:1026300090930B02A0930C02B0930D028FE0809355
:102640000E02309207022092060230920E0420926F
:102650000D0448CE10920E0240920A0250920B02D4
:1026600060920C0270920D0210932F0485E090E0AE
:1026700066CD443208F496CF84819581CE978C97AD
:1026800008F090CF4AE256E06EE072E080E10E94EE
:10269000A302882309F486CFE0911202F09113027D
:1026A000EA5BFF4F808191810897079708F07ACF06
:1026B0008091150490911604A0911704B09118040C
:1026C00080930A0290930B02A0930C02B0930D0228
:1026D00080E180930E0285E090E01DCD843408F403
:1026E0007BCF84819581825491098F9708F074CFB4
:1026F00040E956E060E372E080E20E94A302882392
:1027000009F46ACF8091150490911604A0911704E2
:10271000B091180480930A0290930B02A0930C02CC
:10272000B0930D0280E280930E0283E190E0F3CC3F
:1027300010920E0240920A0250920B0260920C021A
:1027400070920D0210932F0483E190E0F8CCB090CA
:10275000140295E09B1508F0FACDE0911202F09179
:102760001302329625EC3DE94CE151E803E07AE0B2
:10277000A72E84819581C190D190A89E7001A99EB9
:10278000F00C1124D60163E0AA0FBB1F6A95E1F794
:10279000EA16FB0688F1AC9CB001AD9C700D1124CB
:1027A000A3E0880F991FAA95E1F7FF24F394681717
:1027B000790710F482E0F82E63E971E080E091E09F
:1027C0000E9482159B01AC012F250F5FB012D1CF63
:1027D00020930A0230930B0240930C0250930D0297
:1027E00080E280930E02109207021092060210926D
:1027F0000E0410920D0476CDF12CDECF873528EA39
:1028000092072FEFA207B10561F08D33924CAF4FC5
:10281000B10509F09CCD0E945D0699CD0E949306FA
:1028200096CD0E94B50693CD0E94780690CD0E9469
:1028300047068DCD81E094E00E94F10787E094E0A7
:102840000C94F1071F93FC0199278827BC01E89499
:1028500011911032E9F3193010F01E30C8F31B3219
:1028600051F01D3249F4689406C00E944914610F6A
:10287000711D811D911D119110531A30B0F33EF45A
:1028800090958095709561957F4F8F4F9F4F1F91C9
:102890000895592F482F372F262F660F771F881F2F
:1028A000991F660F771F881F991F620F731F841F60
:1028B000951F660F771F881F991F08950E94A01407
:1028C00008F481E00895E89409C097FB3EF49095E0
:1028D0008095709561957F4F8F4F9F4F9923A9F0F9
:1028E000F92F96E9BB279395F69587957795679588
:1028F000B795F111F8CFFAF4BB0F11F460FF1BC0CC
:102900006F5F7F4F8F4F9F4F16C0882311F096E95E
:1029100011C0772321F09EE8872F762F05C066230C
:1029200071F096E8862F70E060E02AF09A95660FC5
:10293000771F881FDAF7880F9695879597F908957E
:10294000990F0008550FAA0BE0E8FEEF16161706C0
:10295000E807F907C0F012161306E407F50798F028
:10296000621B730B840B950B39F40A2661F0232B41
:10297000242B252B21F408950A2609F4A140A695BD
:102980008FEF811D811D08950E94D7140C94481566
:102990000E943A1538F00E94411520F0952311F05D
:1029A0000C9431150C94371511240C947C150E944D
:1029B000591570F3959FC1F3950F50E0551F629F15
:1029C000F001729FBB27F00DB11D639FAA27F00D88
:1029D000B11DAA1F649F6627B00DA11D661F829FAF
:1029E0002227B00DA11D621F739FB00DA11D621F94
:1029F000839FA00D611D221F749F3327A00D611DB1
:102A0000231F849F600D211D822F762F6A2F112492
:102A10009F5750409AF0F1F088234AF0EE0FFF1FC5
:102A2000BB1F661F771F881F91505040A9F79E3F1C
:102A3000510580F00C9431150C947C155F3FE4F344
:102A4000983ED4F3869577956795B795F795E79572
:102A50009F5FC1F7FE2B880F911D9695879597F97B
:102A6000089597F99F6780E870E060E008959FEF10
:102A700080EC089500240A94161617061806090615
:102A8000089500240A9412161306140605060895E4
:102A9000092E0394000C11F4882352F0BB0F40F46C
:102AA000BF2B11F460FF04C06F5F7F4F8F4F9F4FAC
:102AB000089557FD9058440F551F59F05F3F71F02E
:102AC0004795880F97FB991F61F09F3F79F0879595
:102AD0000895121613061406551FF2CF4695F1DF1E
:102AE00008C0161617061806991FF1CF86957105AE
:102AF000610508940895E894BB2766277727CB01E2
:102B000097F90895DB018F939F930E94D315BF918E
:102B1000AF91A29F800D911DA39F900DB29F900D2C
:102B200011240895A1E21A2EAA1BBB1BFD010DC0A2
:102B3000AA1FBB1FEE1FFF1FA217B307E407F5076D
:102B400020F0A21BB30BE40BF50B661F771F881F49
:102B5000991F1A9469F760957095809590959B01DF
:102B6000AC01BD01CF010895052E97FB1EF4009422
:102B70000E94CB1557FD07D00E94921507FC03D089
:102B80004EF40C94CB1550954095309521953F4FC0
:102B90004F4F5F4F089590958095709561957F4F49
:102BA0008F4F9F4F08950E941516A59F900DB49FBB
:102BB000900DA49F800D911D112408952F923F9296
:102BC0004F925F926F927F928F929F92AF92BF923D
:102BD000CF92DF92EF92FF920F931F93CF93DF93E9
:102BE000CDB7DEB7CA1BDB0B0FB6F894DEBF0FBE46
:102BF000CDBF09942A88398848885F846E847D8493
:102C00008C849B84AA84B984C884DF80EE80FD8094
:102C10000C811B81AA81B981CE0FD11D0FB6F8940A
:102C2000DEBF0FBECDBFED010895A29FB001B39FDF
:102C3000C001A39F700D811D1124911DB29F700DC5
:102C4000811D1124911D08955058BB27AA270E9469
:102C50003C160C9448150E943A1538F00E94411514
:102C600020F039F49F3F19F426F40C9437150EF434
:102C7000E095E7FB0C943115E92F0E94591558F3A4
:102C8000BA17620773078407950720F079F4A6F551
:102C90000C947B150EF4E0950B2EBA2FA02D0B0192
:102CA000B90190010C01CA01A0011124FF27591B91
:102CB00099F0593F50F4503E68F11A16F040A22F97
:102CC000232F342F4427585FF3CF46953795279508
:102CD000A795F0405395C9F77EF41F16BA0B620B07
:102CE000730B840BBAF09150A1F0FF0FBB1F661F4E
:102CF000771F881FC2F70EC0BA0F621F731F841F91
:102D000048F4879577956795B795F7959E3F08F0B6
:102D1000B0CF9395880F08F09927EE0F9795879578
:102D200008950E94A5160C9448150E94411558F06C
:102D30000E943A1540F029F45F3F29F00C943115B8
:102D400051110C947C150C9437150E94591568F399
:102D50009923B1F3552391F3951B550BBB27AA2754
:102D600062177307840738F09F5F5F4F220F331F8E
:102D7000441FAA1FA9F335D00E2E3AF0E0E832D056
:102D800091505040E695001CCAF72BD0FE2F29D059
:102D9000660F771F881FBB1F261737074807AB072B
:102DA000B0E809F0BB0B802DBF01FF2793585F4FA0
:102DB0003AF09E3F510578F00C9431150C947C1537
:102DC0005F3FE4F3983ED4F3869577956795B79582
:102DD000F7959F5FC9F7880F911D9695879597F98D
:102DE0000895E1E0660F771F881FBB1F6217730706
:102DF0008407BA0720F0621B730B840BBA0BEE1F1B
:102E000088F7E09508950E940A176894B1110C9410
:102E10007C1508950E94611588F09F5798F0B92F8E
:102E20009927B751B0F0E1F0660F771F881F991FFF
:102E30001AF0BA95C9F714C0B13091F00E947B1511
:102E4000B1E008950C947B15672F782F8827B85F21
:102E500039F0B93FCCF3869577956795B395D9F757
:102E60003EF490958095709561957F4F8F4F9F4F61
:102E700008950E94A01408F48FEF08950E94A014F2
:102E8000880B990B0895AA1BBB1B51E107C0AA1F11
:102E9000BB1FA617B70710F0A61BB70B881F991FFB
:102EA0005A95A9F780959095BC01CD01089597FB9F
:102EB000072E16F4009407D077FD09D00E9443171F
:102EC00007FC05D03EF4909581959F4F089570952D
:102ED00061957F4F0895EE0FFF1F0590F491E02D4F
:102EE00009940E941516B7FF0895821B930B08954D
:102EF0000F931F93CF93DF938230910510F482E0FC
:102F000090E0E0917104F091720430E020E0B0E0D4
:102F1000A0E0309799F42115310509F44AC0281B27
:102F2000390B24303105D8F58A819B8161157105F3
:102F300089F1FB0193838283FE0111C0408151819D
:102F40000281138148175907E0F04817590799F48F
:102F5000109761F012960C93129713961C93329669
:102F6000CF01DF91CF911F910F91089500937104CC
:102F700010937204F4CF2115310551F04217530715
:102F800038F0A901DB019A01BD01DF01F801C1CFD1
:102F9000EF01F9CF9093720480937104CDCFFE01BD
:102FA000E20FF31F819391932250310939832883D3
:102FB000D7CF20916F0430917004232B41F42091DE
:102FC000C4013091C5013093700420936F042091A7
:102FD000C2013091C3012115310541F42DB73EB72F
:102FE0004091C6015091C701241B350BE0916F043D
:102FF000F0917004E217F307A0F42E1B3F0B281783
:10300000390778F0AC014E5F5F4F2417350748F061
:103010004E0F5F1F5093700440936F048193919300
:103020009FCFF0E0E0E09CCFCF93DF930097E9F0F3
:10303000FC01329713821282A0917104B091720444
:10304000ED0130E020E01097A1F420813181820F62
:10305000931F20916F04309170042817390709F0ED
:1030600061C0F0937004E0936F04DF91CF910895F5
:10307000EA01CE17DF07E8F54A815B819E01411521
:103080005105B1F7E901FB83EA8349915991C40FD6
:10309000D51FEC17FD0761F4808191810296840FA2
:1030A000951FE90199838883828193819B838A8319
:1030B000F0E0E0E012968D919C9113970097B9F59E
:1030C0002D913C911197CD010296820F931F209173
:1030D0006F04309170042817390739F6309751F58D
:1030E0001092720410927104B0937004A0936F0454
:1030F000BCCFD383C28340815181840F951FC817F1
:10310000D90761F44E5F5F4F88819981480F591F3D
:10311000518340838A819B8193838283211531056A
:1031200009F0B0CFF0937204E09371049ECFFD01DB
:10313000DC01C0CF13821282D7CFB0E0A0E0E3EA77
:10314000F8E10C94E0158C01009751F4CB010E943A
:1031500078178C01C801CDB7DEB7E0E10C94FC15FF
:10316000FC01E60FF71F9C0122503109E217F3071B
:1031700008F49DC0D901CD91DC911197C617D707EE
:1031800098F0C530D10530F3CE0104978617970724
:1031900008F3C61BD70B2297C193D1936D937C93F1
:1031A000CF010E941418D6CF5B01AC1ABD0A4C01A6
:1031B0008C0E9D1EA0917104B0917204512C412C73
:1031C000F12CE12C109731F580916F0490917004EF
:1031D0008815990509F05CC04616570608F058C0D6
:1031E0008091C2019091C301009741F48DB79EB7C1
:1031F0004091C6015091C701841B950BE817F90750
:1032000008F055C0F0937004E0936F04F9017183E6
:103210006083A0CF8D919C91119712966C9012971C
:1032200013967C901397A815B90559F56C0142E0E7
:10323000C40ED11CCA14DB0420F1AC014A195B098D
:10324000DA011296159780F062827382518340836F
:10325000D9016D937C93E114F10471F0D7011396B9
:10326000FC93EE93129776CF22968C0F9D1FF90157
:1032700091838083F301EFCFF0937204E0937104A4
:1032800069CF4816590608F42C017D01D3019ACF65
:10329000CB010E9478177C01009749F0AE01B8017C
:1032A0000E945A19C8010E941418870153CF10E0D8
:1032B00000E050CFFB01DC0102C001900D924150B3
:1032C0005040D8F70895FB01DC0101900D920020D9
:1032D000E1F7089511E0C2EFD1E004C0FE010E94C1
:1032E0006B172196C33FD107C9F7F894FFCF0000B1
:1032F0000000002448904824000000000000000066
:103300000000002412091224000000000000000048
:103310000000000044281044281044281000001029
:1033200028441028441028440000000000002E2AE1
:103330003A00023E02003E223E003E0A0E0001021A
:103340000408102040808040201008040201000082
:103350000C1E3F7FFEFCFE7F3F1E0C0000000000A5
:1033600006040404242020260404040400000000B1
:10337000004122144840404814224100000000004F
:103380003C424A818FF1814A4224140C0000000023
:1033900002020212080408122202020000000E11AA
:1033A00015110E0040808040000E1115110EC8C886
:1033B00000007304800000000000BB03DB02080370
:1033C0000804790317036B030D0A006E616E006930
:0833D0006E66006F76660000D6
:107E0000112484B714BE81FFF0D085E080938100F7
:107E100082E08093C00088E18093C10086E0809377
:107E2000C20080E18093C4008EE0C9D0259A86E02C
:107E300020E33CEF91E0309385002093840096BBD3
:107E4000B09BFECF1D9AA8958150A9F7CC24DD24C4
:107E500088248394B5E0AB2EA1E19A2EF3E0BF2EE7
:107E6000A2D0813461F49FD0082FAFD0023811F036
:107E7000013811F484E001C083E08DD089C08234E0
:107E800011F484E103C0853419F485E0A6D080C0E4
:107E9000853579F488D0E82EFF2485D0082F10E0AE
:107EA000102F00270E291F29000F111F8ED06801E7
:107EB0006FC0863521F484E090D080E0DECF843638
:107EC00009F040C070D06FD0082F6DD080E0C81688
:107ED00080E7D80618F4F601B7BEE895C0E0D1E017
:107EE00062D089930C17E1F7F0E0CF16F0E7DF06D8
:107EF00018F0F601B7BEE89568D007B600FCFDCFD4
:107F0000A601A0E0B1E02C9130E011968C91119780
:107F100090E0982F8827822B932B1296FA010C0160
:107F200087BEE89511244E5F5F4FF1E0A038BF0790
:107F300051F7F601A7BEE89507B600FCFDCF97BE46
:107F4000E89526C08437B1F42ED02DD0F82E2BD052
:107F50003CD0F601EF2C8F010F5F1F4F84911BD097
:107F6000EA94F801C1F70894C11CD11CFA94CF0C13
:107F7000D11C0EC0853739F428D08EE10CD085E9AC
:107F80000AD08FE07ACF813511F488E018D01DD067
:107F900080E101D065CF982F8091C00085FFFCCF94
:107FA0009093C60008958091C00087FFFCCF809118
:107FB000C00084FD01C0A8958091C6000895E0E648
:107FC000F0E098E1908380830895EDDF803219F02E
:107FD00088E0F5DFFFCF84E1DECF1F93182FE3DFCA
:107FE0001150E9F7F2DF1F91089580E0E8DFEE27F6
:047FF000FF270994CA
:027FFE00040479
:00000001FF
